{
  "contractName": "Item",
  "abi": [
    {
      "constant": true,
      "inputs": [
        {
          "name": "",
          "type": "uint256"
        }
      ],
      "name": "owners",
      "outputs": [
        {
          "name": "",
          "type": "address"
        }
      ],
      "payable": false,
      "stateMutability": "view",
      "type": "function"
    },
    {
      "constant": true,
      "inputs": [
        {
          "name": "",
          "type": "uint256"
        }
      ],
      "name": "statuss",
      "outputs": [
        {
          "name": "",
          "type": "uint256"
        }
      ],
      "payable": false,
      "stateMutability": "view",
      "type": "function"
    },
    {
      "constant": false,
      "inputs": [
        {
          "name": "item",
          "type": "uint256"
        }
      ],
      "name": "ohashCheck",
      "outputs": [
        {
          "name": "",
          "type": "bytes32"
        }
      ],
      "payable": false,
      "stateMutability": "nonpayable",
      "type": "function"
    },
    {
      "constant": false,
      "inputs": [
        {
          "name": "item",
          "type": "uint256"
        }
      ],
      "name": "startimeCheck",
      "outputs": [
        {
          "name": "",
          "type": "uint256"
        }
      ],
      "payable": false,
      "stateMutability": "nonpayable",
      "type": "function"
    },
    {
      "constant": false,
      "inputs": [
        {
          "name": "item",
          "type": "uint256"
        },
        {
          "name": "price",
          "type": "uint256"
        },
        {
          "name": "owner",
          "type": "address"
        }
      ],
      "name": "upload",
      "outputs": [],
      "payable": false,
      "stateMutability": "nonpayable",
      "type": "function"
    },
    {
      "constant": false,
      "inputs": [
        {
          "name": "item",
          "type": "uint256"
        }
      ],
      "name": "renterCheck",
      "outputs": [
        {
          "name": "",
          "type": "address"
        }
      ],
      "payable": false,
      "stateMutability": "nonpayable",
      "type": "function"
    },
    {
      "constant": false,
      "inputs": [
        {
          "name": "item",
          "type": "uint256"
        }
      ],
      "name": "priceCheck",
      "outputs": [
        {
          "name": "",
          "type": "uint256"
        }
      ],
      "payable": false,
      "stateMutability": "nonpayable",
      "type": "function"
    },
    {
      "constant": false,
      "inputs": [
        {
          "name": "item",
          "type": "uint256"
        }
      ],
      "name": "statusCheck",
      "outputs": [
        {
          "name": "",
          "type": "uint256"
        }
      ],
      "payable": false,
      "stateMutability": "nonpayable",
      "type": "function"
    },
    {
      "constant": false,
      "inputs": [
        {
          "name": "item",
          "type": "uint256"
        }
      ],
      "name": "status0",
      "outputs": [],
      "payable": false,
      "stateMutability": "nonpayable",
      "type": "function"
    },
    {
      "constant": false,
      "inputs": [
        {
          "name": "item",
          "type": "uint256"
        }
      ],
      "name": "ownerCheck",
      "outputs": [
        {
          "name": "",
          "type": "address"
        }
      ],
      "payable": false,
      "stateMutability": "nonpayable",
      "type": "function"
    },
    {
      "constant": false,
      "inputs": [
        {
          "name": "item",
          "type": "uint256"
        },
        {
          "name": "renter",
          "type": "address"
        }
      ],
      "name": "request",
      "outputs": [],
      "payable": false,
      "stateMutability": "nonpayable",
      "type": "function"
    },
    {
      "constant": false,
      "inputs": [
        {
          "name": "item",
          "type": "uint256"
        },
        {
          "name": "renter",
          "type": "address"
        }
      ],
      "name": "ritemCheck",
      "outputs": [
        {
          "name": "",
          "type": "bool"
        }
      ],
      "payable": false,
      "stateMutability": "nonpayable",
      "type": "function"
    },
    {
      "constant": true,
      "inputs": [
        {
          "name": "",
          "type": "uint256"
        }
      ],
      "name": "startimes",
      "outputs": [
        {
          "name": "",
          "type": "uint256"
        }
      ],
      "payable": false,
      "stateMutability": "view",
      "type": "function"
    },
    {
      "constant": true,
      "inputs": [
        {
          "name": "",
          "type": "uint256"
        }
      ],
      "name": "availables",
      "outputs": [
        {
          "name": "",
          "type": "bool"
        }
      ],
      "payable": false,
      "stateMutability": "view",
      "type": "function"
    },
    {
      "constant": false,
      "inputs": [
        {
          "name": "item",
          "type": "uint256"
        }
      ],
      "name": "availableCheck",
      "outputs": [
        {
          "name": "",
          "type": "bool"
        }
      ],
      "payable": false,
      "stateMutability": "nonpayable",
      "type": "function"
    },
    {
      "constant": true,
      "inputs": [
        {
          "name": "",
          "type": "uint256"
        }
      ],
      "name": "prices",
      "outputs": [
        {
          "name": "",
          "type": "uint256"
        }
      ],
      "payable": false,
      "stateMutability": "view",
      "type": "function"
    },
    {
      "constant": false,
      "inputs": [
        {
          "name": "item",
          "type": "uint256"
        },
        {
          "name": "ohash",
          "type": "bytes32"
        }
      ],
      "name": "acknowledge",
      "outputs": [],
      "payable": false,
      "stateMutability": "nonpayable",
      "type": "function"
    },
    {
      "constant": false,
      "inputs": [
        {
          "name": "item",
          "type": "uint256"
        }
      ],
      "name": "availableTrue",
      "outputs": [],
      "payable": false,
      "stateMutability": "nonpayable",
      "type": "function"
    },
    {
      "constant": true,
      "inputs": [
        {
          "name": "",
          "type": "uint256"
        }
      ],
      "name": "ohashs",
      "outputs": [
        {
          "name": "",
          "type": "bytes32"
        }
      ],
      "payable": false,
      "stateMutability": "view",
      "type": "function"
    },
    {
      "constant": false,
      "inputs": [
        {
          "name": "item",
          "type": "uint256"
        }
      ],
      "name": "status3",
      "outputs": [],
      "payable": false,
      "stateMutability": "nonpayable",
      "type": "function"
    },
    {
      "constant": true,
      "inputs": [
        {
          "name": "",
          "type": "uint256"
        }
      ],
      "name": "renters",
      "outputs": [
        {
          "name": "",
          "type": "address"
        }
      ],
      "payable": false,
      "stateMutability": "view",
      "type": "function"
    },
    {
      "constant": false,
      "inputs": [
        {
          "name": "item",
          "type": "uint256"
        },
        {
          "name": "owner",
          "type": "address"
        }
      ],
      "name": "oitemCheck",
      "outputs": [
        {
          "name": "",
          "type": "bool"
        }
      ],
      "payable": false,
      "stateMutability": "nonpayable",
      "type": "function"
    },
    {
      "constant": false,
      "inputs": [
        {
          "name": "item",
          "type": "uint256"
        }
      ],
      "name": "availableFalse",
      "outputs": [],
      "payable": false,
      "stateMutability": "nonpayable",
      "type": "function"
    },
    {
      "inputs": [],
      "payable": false,
      "stateMutability": "nonpayable",
      "type": "constructor"
    }
  ],
  "bytecode": "0x6060604052341561000f57600080fd5b610cf98061001e6000396000f300606060405260043610610133576000357c0100000000000000000000000000000000000000000000000000000000900463ffffffff168063025e7c2714610138578063089d8bec1461019b578063130b4878146101d25780632ab123161461021157806336268e4514610248578063407d19021461029357806349e5465c146102f657806359ba222f1461032d57806368d75eb81461036457806370497414146103875780639ad8a980146103ea5780639e065b551461042c578063a76147c814610486578063b251a4a3146104bd578063b6fcd3d4146104f8578063bc31c1c114610533578063bf72fd2b1461056a578063bffd511e1461059a578063c92abb44146105bd578063d7de509c146105fc578063dcc3974b1461061f578063f835bca614610682578063fa22dc01146106dc575b600080fd5b341561014357600080fd5b61015960048080359060200190919050506106ff565b604051808273ffffffffffffffffffffffffffffffffffffffff1673ffffffffffffffffffffffffffffffffffffffff16815260200191505060405180910390f35b34156101a657600080fd5b6101bc6004808035906020019091905050610732565b6040518082815260200191505060405180910390f35b34156101dd57600080fd5b6101f3600480803590602001909190505061074a565b60405180826000191660001916815260200191505060405180910390f35b341561021c57600080fd5b6102326004808035906020019091905050610767565b6040518082815260200191505060405180910390f35b341561025357600080fd5b610291600480803590602001909190803590602001909190803573ffffffffffffffffffffffffffffffffffffffff16906020019091905050610784565b005b341561029e57600080fd5b6102b460048080359060200190919050506108c3565b604051808273ffffffffffffffffffffffffffffffffffffffff1673ffffffffffffffffffffffffffffffffffffffff16815260200191505060405180910390f35b341561030157600080fd5b61031760048080359060200190919050506108ff565b6040518082815260200191505060405180910390f35b341561033857600080fd5b61034e600480803590602001909190505061091c565b6040518082815260200191505060405180910390f35b341561036f57600080fd5b6103856004808035906020019091905050610939565b005b341561039257600080fd5b6103a86004808035906020019091905050610955565b604051808273ffffffffffffffffffffffffffffffffffffffff1673ffffffffffffffffffffffffffffffffffffffff16815260200191505060405180910390f35b34156103f557600080fd5b61042a600480803590602001909190803573ffffffffffffffffffffffffffffffffffffffff16906020019091905050610992565b005b341561043757600080fd5b61046c600480803590602001909190803573ffffffffffffffffffffffffffffffffffffffff16906020019091905050610a44565b604051808215151515815260200191505060405180910390f35b341561049157600080fd5b6104a76004808035906020019091905050610ac0565b6040518082815260200191505060405180910390f35b34156104c857600080fd5b6104de6004808035906020019091905050610ad8565b604051808215151515815260200191505060405180910390f35b341561050357600080fd5b6105196004808035906020019091905050610af8565b604051808215151515815260200191505060405180910390f35b341561053e57600080fd5b6105546004808035906020019091905050610b22565b6040518082815260200191505060405180910390f35b341561057557600080fd5b610598600480803590602001909190803560001916906020019091905050610b3a565b005b34156105a557600080fd5b6105bb6004808035906020019091905050610b8b565b005b34156105c857600080fd5b6105de6004808035906020019091905050610bba565b60405180826000191660001916815260200191505060405180910390f35b341561060757600080fd5b61061d6004808035906020019091905050610bd2565b005b341561062a57600080fd5b6106406004808035906020019091905050610bee565b604051808273ffffffffffffffffffffffffffffffffffffffff1673ffffffffffffffffffffffffffffffffffffffff16815260200191505060405180910390f35b341561068d57600080fd5b6106c2600480803590602001909190803573ffffffffffffffffffffffffffffffffffffffff16906020019091905050610c21565b604051808215151515815260200191505060405180910390f35b34156106e757600080fd5b6106fd6004808035906020019091905050610c9e565b005b60016020528060005260406000206000915054906101000a900473ffffffffffffffffffffffffffffffffffffffff1681565b60046020528060005260406000206000915090505481565b600060056000838152602001908152602001600020549050919050565b600060036000838152602001908152602001600020549050919050565b600080600085815260200190815260200160002060006101000a81548173ffffffffffffffffffffffffffffffffffffffff021916908373ffffffffffffffffffffffffffffffffffffffff160217905550806001600085815260200190815260200160002060006101000a81548173ffffffffffffffffffffffffffffffffffffffff021916908373ffffffffffffffffffffffffffffffffffffffff1602179055508160026000858152602001908152602001600020819055506000600360008581526020019081526020016000208190555060006004600085815260200190815260200160002081905550600060010260056000858152602001908152602001600020816000191690555060016006600085815260200190815260200160002060006101000a81548160ff021916908315150217905550505050565b600080600083815260200190815260200160002060009054906101000a900473ffffffffffffffffffffffffffffffffffffffff169050919050565b600060026000838152602001908152602001600020549050919050565b600060046000838152602001908152602001600020549050919050565b6000600460008381526020019081526020016000208190555050565b60006001600083815260200190815260200160002060009054906101000a900473ffffffffffffffffffffffffffffffffffffffff169050919050565b8060008084815260200190815260200160002060006101000a81548173ffffffffffffffffffffffffffffffffffffffff021916908373ffffffffffffffffffffffffffffffffffffffff1602179055504260036000848152602001908152602001600020819055506001600460008481526020019081526020016000208190555060006006600084815260200190815260200160002060006101000a81548160ff0219169083151502179055505050565b60008173ffffffffffffffffffffffffffffffffffffffff1660008085815260200190815260200160002060009054906101000a900473ffffffffffffffffffffffffffffffffffffffff1673ffffffffffffffffffffffffffffffffffffffff161415610ab55760019050610aba565b600090505b92915050565b60036020528060005260406000206000915090505481565b60066020528060005260406000206000915054906101000a900460ff1681565b60006006600083815260200190815260200160002060009054906101000a900460ff169050919050565b60026020528060005260406000206000915090505481565b80600560008481526020019081526020016000208160001916905550600260046000848152602001908152602001600020819055504260036000848152602001908152602001600020819055505050565b60016006600083815260200190815260200160002060006101000a81548160ff02191690831515021790555050565b60056020528060005260406000206000915090505481565b6003600460008381526020019081526020016000208190555050565b60006020528060005260406000206000915054906101000a900473ffffffffffffffffffffffffffffffffffffffff1681565b60008173ffffffffffffffffffffffffffffffffffffffff166001600085815260200190815260200160002060009054906101000a900473ffffffffffffffffffffffffffffffffffffffff1673ffffffffffffffffffffffffffffffffffffffff161415610c935760019050610c98565b600090505b92915050565b60006006600083815260200190815260200160002060006101000a81548160ff021916908315150217905550505600a165627a7a72305820f115d1bfbce582a54152f18636c64de28ee135c6bc81b2719389baf62c634b6a0029",
  "source": "pragma solidity ^0.4.15;\n\n//import './Market.sol';\n\ncontract Item {\n    mapping(uint => address) public renters;\n    mapping(uint => address) public owners;\n    mapping(uint => uint) public prices;\n    mapping(uint => uint) public startimes;\n    mapping(uint => uint) public statuss;\n    mapping(uint => bytes32) public ohashs;\n    mapping(uint => bool) public availables;\n\n    function Item() public {\n    }\n\n    function upload(uint item, uint price, address owner) {\n        renters[item] = 0;\n        owners[item] = owner;\n        prices[item] = price;\n        startimes[item] = 0;\n        statuss[item] = 0;\n        ohashs[item] = 0;\n        availables[item] = true;\n    }\n\n    function request(uint item, address renter) {\n        renters[item] = renter;\n        startimes[item] = now;\n        statuss[item] = 1;\n        availables[item] = false;\n    }\n\n    function acknowledge(uint item, bytes32 ohash) {\n        ohashs[item] = ohash;\n        statuss[item] = 2;\n        startimes[item] = now;\n    }\n\n    function oitemCheck(uint item, address owner) returns (bool) {\n        if (owners[item] == owner) {\n            return true;\n        }\n        return false;\n    }\n\n    function ritemCheck(uint item, address renter) returns (bool) {\n        if (renters[item] == renter) {\n            return true;\n        } else {\n            return false;\n        }\n    }\n\n\n    function renterCheck(uint item) returns (address) {\n        return renters[item];\n    }\n\n    function ownerCheck(uint item) returns (address) {\n        return owners[item];\n    }\n\n    function priceCheck(uint item) returns (uint) {\n        return prices[item];\n    }\n\n    function startimeCheck(uint item) returns (uint) {\n        return startimes[item];\n    }\n\n    function statusCheck(uint item) returns (uint) {\n        return statuss[item];\n    }\n\n    function ohashCheck(uint item) returns (bytes32) {\n        return ohashs[item];\n    }\n\n    function availableCheck(uint item) returns (bool) {\n        return availables[item];\n    }\n\n    function availableFalse(uint item) {\n        availables[item] = false;\n    }\n\n    function availableTrue(uint item) {\n        availables[item] = true;\n    }\n\n    function status0(uint item) {\n        statuss[item] = 0;\n    }\n\n    function status3(uint item) {\n        statuss[item] = 3;\n    }\n\n\n\n\n\n\n    \n    \n}",
  "sourcePath": "/Users/kwanhongyap/Desktop/Crypto_final/contracts/Item.sol",
  "compiler": {
    "name": "solc",
    "version": "0.4.18+commit.9cf6e910.Emscripten.clang"
  },
  "schemaVersion": "1.0.1",
  "updatedAt": "2017-12-03T05:23:08.460Z"
}