{
  "contractName": "Marketplace",
  "abi": [
    {
      "constant": false,
      "inputs": [
        {
          "name": "name",
          "type": "bytes32"
        },
        {
          "name": "price",
          "type": "uint256"
        }
      ],
      "name": "upLoad",
      "outputs": [],
      "payable": false,
      "stateMutability": "nonpayable",
      "type": "function"
    },
    {
      "constant": false,
      "inputs": [],
      "name": "lookingUp",
      "outputs": [
        {
          "components": [
            {
              "name": "name",
              "type": "bytes32"
            },
            {
              "name": "owner",
              "type": "address"
            },
            {
              "name": "price",
              "type": "uint256"
            }
          ],
          "name": "itemlist",
          "type": "tuple[]"
        }
      ],
      "payable": false,
      "stateMutability": "nonpayable",
      "type": "function"
    },
    {
      "inputs": [],
      "payable": false,
      "stateMutability": "view",
      "type": "function",
      "constant": true,
      "name": "owner",
      "outputs": [
        {
          "name": "",
          "type": "address"
        }
      ]
    },
    {
      "inputs": [
        {
          "name": "",
          "type": "uint256"
        }
      ],
      "payable": false,
      "stateMutability": "view",
      "type": "function",
      "constant": true,
      "name": "itemlist",
      "outputs": [
        {
          "name": "name",
          "type": "bytes32"
        },
        {
          "name": "owner",
          "type": "address"
        },
        {
          "name": "price",
          "type": "uint256"
        }
      ]
    },
    {
      "inputs": [],
      "payable": false,
      "stateMutability": "nonpayable",
      "type": "constructor"
    }
  ],
  "bytecode": "0x6060604052341561000f57600080fd5b336000806101000a81548173ffffffffffffffffffffffffffffffffffffffff021916908373ffffffffffffffffffffffffffffffffffffffff1602179055506104328061005e6000396000f300606060405260043610610062576000357c0100000000000000000000000000000000000000000000000000000000900463ffffffff1680635d4091af146100675780635fdde5c2146100975780638da5cb5b146100fc578063a3554eba14610151575b600080fd5b341561007257600080fd5b6100956004808035600019169060200190919080359060200190919050506101ca565b005b34156100a257600080fd5b6100aa6102a3565b60405180806020018281038252838181518152602001915080516000925b818410156100eb57828490602001906020020151815260200192600101926100c8565b925050509250505060405180910390f35b341561010757600080fd5b61010f6102b1565b604051808273ffffffffffffffffffffffffffffffffffffffff1673ffffffffffffffffffffffffffffffffffffffff16815260200191505060405180910390f35b341561015c57600080fd5b61017260048080359060200190919050506102d6565b6040518084600019166000191681526020018373ffffffffffffffffffffffffffffffffffffffff1673ffffffffffffffffffffffffffffffffffffffff168152602001828152602001935050505060405180910390f35b60006101d461032f565b339150606060405190810160405280856000191681526020018373ffffffffffffffffffffffffffffffffffffffff16815260200184815250905060018054806001018281610223919061036a565b916000526020600020906003020160008390919091506000820151816000019060001916905560208201518160010160006101000a81548173ffffffffffffffffffffffffffffffffffffffff021916908373ffffffffffffffffffffffffffffffffffffffff1602179055506040820151816002015550505050505050565b6102ab61039c565b80905090565b6000809054906101000a900473ffffffffffffffffffffffffffffffffffffffff1681565b6001818154811015156102e557fe5b90600052602060002090600302016000915090508060000154908060010160009054906101000a900473ffffffffffffffffffffffffffffffffffffffff16908060020154905083565b60606040519081016040528060008019168152602001600073ffffffffffffffffffffffffffffffffffffffff168152602001600081525090565b8154818355818115116103975760030281600302836000526020600020918201910161039691906103b0565b5b505050565b602060405190810160405280600081525090565b61040391905b808211156103ff576000808201600090556001820160006101000a81549073ffffffffffffffffffffffffffffffffffffffff02191690556002820160009055506003016103b6565b5090565b905600a165627a7a7230582041f8ee27a84c00f13f18901e61d42674d9e0666d78c4d567937007574d3d4ceb0029",
  "source": "pragma solidity ^0.4.15;\n\nimport './Renter.sol';\nimport './Owner.sol';\nimport './Transaction.sol';\nimport './Request.sol';\nimport './Rentpayment.sol';\nimport './Rentdeposit.sol';\n\ncontract Marketplace {\n    address public owner;\n    Item[] public itemlist;\n\tRenter rentstruct;\n\tOwner ownstruct;\n\tTransaction tstruct;\n\tRequest rstruct;\n\tRentpayment rpstruct;\n\tRentdeposit rdstruct;\n\n    struct Item {\n\t\tbytes32 name;\n\t\taddress owner;\n\t\tuint price;\n\t}\n\n    function Marketplace() {\n        //initial constructor\n        owner = msg.sender;\n    }\n\n    function upLoad(bytes32 name, uint price) {\n        //owner upload items to marketplace contract\n        address owner = msg.sender;\n        Item memory uitem = Item(name, owner, price);\n        itemlist.push(uitem);\n    }\n\n    function lookingUp() returns (Item[] itemlist) {\n        //potential renter can lookup what is on the marketplace\n        return itemlist;\n    }\n    \n}\n",
  "sourcePath": "/Users/kwanhongyap/Desktop/Crypto_final/contracts/Marketplace.sol",
  "compiler": {
    "name": "solc",
    "version": "0.4.18+commit.9cf6e910.Emscripten.clang"
  },
  "schemaVersion": "1.0.1",
  "updatedAt": "2017-11-27T02:52:34.484Z"
}