{
  "contractName": "Marketplace",
  "abi": [
    {
      "constant": false,
      "inputs": [
        {
          "name": "name",
          "type": "bytes32"
        },
        {
          "name": "price",
          "type": "uint256"
        }
      ],
      "name": "upLoad",
      "outputs": [],
      "payable": false,
      "stateMutability": "nonpayable",
      "type": "function"
    },
    {
      "constant": false,
      "inputs": [],
      "name": "lookingUp",
      "outputs": [
        {
          "components": [
            {
              "name": "name",
              "type": "bytes32"
            },
            {
              "name": "owner",
              "type": "address"
            },
            {
              "name": "price",
              "type": "uint256"
            }
          ],
          "name": "itemlist",
          "type": "tuple[]"
        }
      ],
      "payable": false,
      "stateMutability": "nonpayable",
      "type": "function"
    },
    {
      "inputs": [],
      "payable": false,
      "stateMutability": "view",
      "type": "function",
      "constant": true,
      "name": "owner",
      "outputs": [
        {
          "name": "",
          "type": "address"
        }
      ]
    },
    {
      "inputs": [],
      "payable": false,
      "stateMutability": "nonpayable",
      "type": "constructor"
    }
  ],
  "bytecode": "0x6060604052341561000f57600080fd5b336000806101000a81548173ffffffffffffffffffffffffffffffffffffffff021916908373ffffffffffffffffffffffffffffffffffffffff1602179055506103558061005e6000396000f300606060405260043610610057576000357c0100000000000000000000000000000000000000000000000000000000900463ffffffff1680635d4091af1461005c5780635fdde5c21461008c5780638da5cb5b146100f1575b600080fd5b341561006757600080fd5b61008a600480803560001916906020019091908035906020019091905050610146565b005b341561009757600080fd5b61009f61021f565b60405180806020018281038252838181518152602001915080516000925b818410156100e057828490602001906020020151815260200192600101926100bd565b925050509250505060405180910390f35b34156100fc57600080fd5b61010461022d565b604051808273ffffffffffffffffffffffffffffffffffffffff1673ffffffffffffffffffffffffffffffffffffffff16815260200191505060405180910390f35b6000610150610252565b339150606060405190810160405280856000191681526020018373ffffffffffffffffffffffffffffffffffffffff1681526020018481525090506001805480600101828161019f919061028d565b916000526020600020906003020160008390919091506000820151816000019060001916905560208201518160010160006101000a81548173ffffffffffffffffffffffffffffffffffffffff021916908373ffffffffffffffffffffffffffffffffffffffff1602179055506040820151816002015550505050505050565b6102276102bf565b80905090565b6000809054906101000a900473ffffffffffffffffffffffffffffffffffffffff1681565b60606040519081016040528060008019168152602001600073ffffffffffffffffffffffffffffffffffffffff168152602001600081525090565b8154818355818115116102ba576003028160030283600052602060002091820191016102b991906102d3565b5b505050565b602060405190810160405280600081525090565b61032691905b80821115610322576000808201600090556001820160006101000a81549073ffffffffffffffffffffffffffffffffffffffff02191690556002820160009055506003016102d9565b5090565b905600a165627a7a72305820434fe467595249d0dcf156cf112b160ce7fe9c516373c696dd9f6be58b9c328b0029",
  "source": "pragma solidity ^0.4.15;\n\nimport './Renter.sol';\nimport './Owner.sol';\nimport './Transaction.sol';\nimport './Request.sol';\nimport './Rentpayment.sol';\nimport './Rentdeposit.sol';\n\ncontract Marketplace {\n    address public owner;\n    Item[] itemlist;\n\tRenter rentstruct;\n\tOwner ownstruct;\n\tTransaction tstruct;\n\tRequest rstruct;\n\tRentpayment rpstruct;\n\tRentdeposit rdstruct;\n\n    struct Item {\n\t\tbytes32 name;\n\t\taddress owner;\n\t\tuint price;\n\t}\n\n    function Marketplace() {\n        //initial constructor\n        owner = msg.sender;\n    }\n\n    function upLoad(bytes32 name, uint price) {\n        //owner upload items to marketplace contract\n        address owner = msg.sender;\n        Item memory uitem = Item(name, owner, price);\n        itemlist.push(uitem);\n    }\n\n    function lookingUp() returns (Item[] itemlist) {\n        //potential renter can lookup what is on the marketplace\n        return itemlist;\n    }\n    \n}\n",
  "sourcePath": "/Users/kwanhongyap/Desktop/Crypto_final/contracts/Marketplace.sol",
  "compiler": {
    "name": "solc",
    "version": "0.4.18+commit.9cf6e910.Emscripten.clang"
  },
  "schemaVersion": "1.0.1",
  "updatedAt": "2017-11-27T02:30:41.113Z"
}