{
  "contractName": "Marketplace",
  "abi": [
    {
      "constant": false,
      "inputs": [
        {
          "name": "index",
          "type": "uint256"
        }
      ],
      "name": "requestcheck2",
      "outputs": [
        {
          "name": "",
          "type": "address"
        },
        {
          "name": "",
          "type": "uint256"
        }
      ],
      "payable": false,
      "stateMutability": "nonpayable",
      "type": "function"
    },
    {
      "constant": false,
      "inputs": [
        {
          "name": "name",
          "type": "string"
        },
        {
          "name": "owner",
          "type": "address"
        },
        {
          "name": "price",
          "type": "uint256"
        },
        {
          "name": "fee",
          "type": "uint256"
        }
      ],
      "name": "request3",
      "outputs": [],
      "payable": false,
      "stateMutability": "nonpayable",
      "type": "function"
    },
    {
      "constant": false,
      "inputs": [
        {
          "name": "index",
          "type": "uint256"
        }
      ],
      "name": "requestcheck",
      "outputs": [
        {
          "name": "",
          "type": "address"
        },
        {
          "name": "",
          "type": "uint256"
        }
      ],
      "payable": false,
      "stateMutability": "nonpayable",
      "type": "function"
    },
    {
      "constant": false,
      "inputs": [],
      "name": "lookingUp",
      "outputs": [
        {
          "name": "",
          "type": "string"
        },
        {
          "name": "",
          "type": "address"
        },
        {
          "name": "",
          "type": "uint256"
        }
      ],
      "payable": false,
      "stateMutability": "nonpayable",
      "type": "function"
    },
    {
      "constant": false,
      "inputs": [
        {
          "name": "renter",
          "type": "address"
        },
        {
          "name": "name",
          "type": "string"
        },
        {
          "name": "owner",
          "type": "address"
        },
        {
          "name": "price",
          "type": "uint256"
        },
        {
          "name": "rfee",
          "type": "uint256"
        }
      ],
      "name": "depositrent",
      "outputs": [],
      "payable": false,
      "stateMutability": "nonpayable",
      "type": "function"
    },
    {
      "constant": false,
      "inputs": [
        {
          "name": "name",
          "type": "string"
        },
        {
          "name": "price",
          "type": "uint256"
        }
      ],
      "name": "upLoad",
      "outputs": [],
      "payable": false,
      "stateMutability": "nonpayable",
      "type": "function"
    },
    {
      "constant": true,
      "inputs": [],
      "name": "rentstruct",
      "outputs": [
        {
          "name": "",
          "type": "address"
        }
      ],
      "payable": false,
      "stateMutability": "view",
      "type": "function"
    },
    {
      "constant": false,
      "inputs": [],
      "name": "owner",
      "outputs": [
        {
          "name": "",
          "type": "address"
        }
      ],
      "payable": false,
      "stateMutability": "nonpayable",
      "type": "function"
    },
    {
      "constant": true,
      "inputs": [
        {
          "name": "",
          "type": "uint256"
        }
      ],
      "name": "itemlist",
      "outputs": [
        {
          "name": "name",
          "type": "string"
        },
        {
          "name": "owner",
          "type": "address"
        },
        {
          "name": "price",
          "type": "uint256"
        }
      ],
      "payable": false,
      "stateMutability": "view",
      "type": "function"
    },
    {
      "constant": false,
      "inputs": [
        {
          "name": "name",
          "type": "string"
        },
        {
          "name": "renter",
          "type": "address"
        },
        {
          "name": "price",
          "type": "uint256"
        },
        {
          "name": "rfee",
          "type": "uint256"
        },
        {
          "name": "ofee",
          "type": "uint256"
        },
        {
          "name": "owner",
          "type": "address"
        }
      ],
      "name": "transact",
      "outputs": [],
      "payable": false,
      "stateMutability": "nonpayable",
      "type": "function"
    },
    {
      "constant": false,
      "inputs": [
        {
          "name": "index",
          "type": "uint256"
        }
      ],
      "name": "transactprice",
      "outputs": [
        {
          "name": "",
          "type": "uint256"
        }
      ],
      "payable": false,
      "stateMutability": "nonpayable",
      "type": "function"
    },
    {
      "constant": false,
      "inputs": [
        {
          "name": "name",
          "type": "string"
        },
        {
          "name": "renter",
          "type": "address"
        },
        {
          "name": "price",
          "type": "uint256"
        },
        {
          "name": "fee",
          "type": "uint256"
        }
      ],
      "name": "request2",
      "outputs": [],
      "payable": false,
      "stateMutability": "nonpayable",
      "type": "function"
    },
    {
      "constant": false,
      "inputs": [
        {
          "name": "index",
          "type": "uint256"
        }
      ],
      "name": "transactprice2",
      "outputs": [
        {
          "name": "",
          "type": "uint256"
        }
      ],
      "payable": false,
      "stateMutability": "nonpayable",
      "type": "function"
    },
    {
      "constant": false,
      "inputs": [
        {
          "name": "name",
          "type": "string"
        },
        {
          "name": "owner",
          "type": "address"
        },
        {
          "name": "price",
          "type": "uint256"
        }
      ],
      "name": "request",
      "outputs": [],
      "payable": false,
      "stateMutability": "nonpayable",
      "type": "function"
    },
    {
      "constant": true,
      "inputs": [],
      "name": "tempitem",
      "outputs": [
        {
          "name": "name",
          "type": "string"
        },
        {
          "name": "owner",
          "type": "address"
        },
        {
          "name": "price",
          "type": "uint256"
        }
      ],
      "payable": false,
      "stateMutability": "view",
      "type": "function"
    },
    {
      "constant": false,
      "inputs": [
        {
          "name": "index",
          "type": "uint256"
        }
      ],
      "name": "requestcheck3",
      "outputs": [
        {
          "name": "",
          "type": "address"
        },
        {
          "name": "",
          "type": "uint256"
        }
      ],
      "payable": false,
      "stateMutability": "nonpayable",
      "type": "function"
    },
    {
      "constant": false,
      "inputs": [],
      "name": "templength",
      "outputs": [
        {
          "name": "",
          "type": "uint256"
        }
      ],
      "payable": false,
      "stateMutability": "nonpayable",
      "type": "function"
    },
    {
      "constant": true,
      "inputs": [
        {
          "name": "",
          "type": "uint256"
        }
      ],
      "name": "tempitemlist",
      "outputs": [
        {
          "name": "name",
          "type": "string"
        },
        {
          "name": "owner",
          "type": "address"
        },
        {
          "name": "price",
          "type": "uint256"
        }
      ],
      "payable": false,
      "stateMutability": "view",
      "type": "function"
    },
    {
      "inputs": [],
      "payable": false,
      "stateMutability": "nonpayable",
      "type": "constructor"
    }
  ],
  "bytecode": "0x606060405234156200001057600080fd5b6200001a62000120565b604051809103906000f08015156200003157600080fd5b600760006101000a81548173ffffffffffffffffffffffffffffffffffffffff021916908373ffffffffffffffffffffffffffffffffffffffff1602179055506200007b62000131565b604051809103906000f08015156200009257600080fd5b600860006101000a81548173ffffffffffffffffffffffffffffffffffffffff021916908373ffffffffffffffffffffffffffffffffffffffff160217905550336000806101000a81548173ffffffffffffffffffffffffffffffffffffffff021916908373ffffffffffffffffffffffffffffffffffffffff160217905550600060018190555062000142565b604051611d5d80620024a783390190565b604051611e89806200420483390190565b61235580620001526000396000f3006060604052600436106100fc576000357c0100000000000000000000000000000000000000000000000000000000900463ffffffff1680632b1b1c79146101015780633f442bf81461016b5780635e43c565146101f95780635fdde5c2146102635780636fada6101461032b57806380b265c2146103d8578063842696281461043e5780638da5cb5b14610493578063a3554eba146104e8578063ab36357a146105db578063b573c55c14610691578063be38d23d146106c8578063d0f1dae914610756578063da2dcf241461078d578063e2e2943314610812578063e93885ec146108f7578063f15eba1714610961578063f913fe9b1461098a575b600080fd5b341561010c57600080fd5b6101226004808035906020019091905050610a7d565b604051808373ffffffffffffffffffffffffffffffffffffffff1673ffffffffffffffffffffffffffffffffffffffff1681526020018281526020019250505060405180910390f35b341561017657600080fd5b6101f7600480803590602001908201803590602001908080601f0160208091040260200160405190810160405280939291908181526020018383808284378201915050505050509190803573ffffffffffffffffffffffffffffffffffffffff16906020019091908035906020019091908035906020019091905050610c6a565b005b341561020457600080fd5b61021a6004808035906020019091905050610df7565b604051808373ffffffffffffffffffffffffffffffffffffffff1673ffffffffffffffffffffffffffffffffffffffff1681526020018281526020019250505060405180910390f35b341561026e57600080fd5b610276610fe4565b60405180806020018473ffffffffffffffffffffffffffffffffffffffff1673ffffffffffffffffffffffffffffffffffffffff168152602001838152602001828103825285818151815260200191508051906020019080838360005b838110156102ee5780820151818401526020810190506102d3565b50505050905090810190601f16801561031b5780820380516001836020036101000a031916815260200191505b5094505050505060405180910390f35b341561033657600080fd5b6103d6600480803573ffffffffffffffffffffffffffffffffffffffff1690602001909190803590602001908201803590602001908080601f0160208091040260200160405190810160405280939291908181526020018383808284378201915050505050509190803573ffffffffffffffffffffffffffffffffffffffff169060200190919080359060200190919080359060200190919050506110ec565b005b34156103e357600080fd5b61043c600480803590602001908201803590602001908080601f0160208091040260200160405190810160405280939291908181526020018383808284378201915050505050509190803590602001909190505061127a565b005b341561044957600080fd5b6104516115dc565b604051808273ffffffffffffffffffffffffffffffffffffffff1673ffffffffffffffffffffffffffffffffffffffff16815260200191505060405180910390f35b341561049e57600080fd5b6104a6611602565b604051808273ffffffffffffffffffffffffffffffffffffffff1673ffffffffffffffffffffffffffffffffffffffff16815260200191505060405180910390f35b34156104f357600080fd5b610509600480803590602001909190505061162b565b60405180806020018473ffffffffffffffffffffffffffffffffffffffff1673ffffffffffffffffffffffffffffffffffffffff1681526020018381526020018281038252858181546001816001161561010002031660029004815260200191508054600181600116156101000203166002900480156105ca5780601f1061059f576101008083540402835291602001916105ca565b820191906000526020600020905b8154815290600101906020018083116105ad57829003601f168201915b505094505050505060405180910390f35b34156105e657600080fd5b61068f600480803590602001908201803590602001908080601f0160208091040260200160405190810160405280939291908181526020018383808284378201915050505050509190803573ffffffffffffffffffffffffffffffffffffffff1690602001909190803590602001909190803590602001909190803590602001909190803573ffffffffffffffffffffffffffffffffffffffff16906020019091905050611683565b005b341561069c57600080fd5b6106b260048080359060200190919050506119a3565b6040518082815260200191505060405180910390f35b34156106d357600080fd5b610754600480803590602001908201803590602001908080601f0160208091040260200160405190810160405280939291908181526020018383808284378201915050505050509190803573ffffffffffffffffffffffffffffffffffffffff16906020019091908035906020019091908035906020019091905050611a9f565b005b341561076157600080fd5b6107776004808035906020019091905050611c2c565b6040518082815260200191505060405180910390f35b341561079857600080fd5b610810600480803590602001908201803590602001908080601f0160208091040260200160405190810160405280939291908181526020018383808284378201915050505050509190803573ffffffffffffffffffffffffffffffffffffffff16906020019091908035906020019091905050611d28565b005b341561081d57600080fd5b610825611eac565b60405180806020018473ffffffffffffffffffffffffffffffffffffffff1673ffffffffffffffffffffffffffffffffffffffff1681526020018381526020018281038252858181546001816001161561010002031660029004815260200191508054600181600116156101000203166002900480156108e65780601f106108bb576101008083540402835291602001916108e6565b820191906000526020600020905b8154815290600101906020018083116108c957829003601f168201915b505094505050505060405180910390f35b341561090257600080fd5b6109186004808035906020019091905050611ee3565b604051808373ffffffffffffffffffffffffffffffffffffffff1673ffffffffffffffffffffffffffffffffffffffff1681526020018281526020019250505060405180910390f35b341561096c57600080fd5b6109746120d0565b6040518082815260200191505060405180910390f35b341561099557600080fd5b6109ab60048080359060200190919050506120da565b60405180806020018473ffffffffffffffffffffffffffffffffffffffff1673ffffffffffffffffffffffffffffffffffffffff168152602001838152602001828103825285818154600181600116156101000203166002900481526020019150805460018160011615610100020316600290048015610a6c5780601f10610a4157610100808354040283529160200191610a6c565b820191906000526020600020905b815481529060010190602001808311610a4f57829003601f168201915b505094505050505060405180910390f35b6000806000806000339250600860009054906101000a900473ffffffffffffffffffffffffffffffffffffffff1673ffffffffffffffffffffffffffffffffffffffff1663bea372df84886000604051602001526040518363ffffffff167c0100000000000000000000000000000000000000000000000000000000028152600401808373ffffffffffffffffffffffffffffffffffffffff1673ffffffffffffffffffffffffffffffffffffffff16815260200182815260200192505050602060405180830381600087803b1515610b5557600080fd5b6102c65a03f11515610b6657600080fd5b505050604051805190509150600860009054906101000a900473ffffffffffffffffffffffffffffffffffffffff1673ffffffffffffffffffffffffffffffffffffffff16632623f2be84886000604051602001526040518363ffffffff167c0100000000000000000000000000000000000000000000000000000000028152600401808373ffffffffffffffffffffffffffffffffffffffff1673ffffffffffffffffffffffffffffffffffffffff16815260200182815260200192505050602060405180830381600087803b1515610c3f57600080fd5b6102c65a03f11515610c5057600080fd5b505050604051805190509050818194509450505050915091565b6000339050600760009054906101000a900473ffffffffffffffffffffffffffffffffffffffff1673ffffffffffffffffffffffffffffffffffffffff16631fa6ef4d82878787876040518663ffffffff167c0100000000000000000000000000000000000000000000000000000000028152600401808673ffffffffffffffffffffffffffffffffffffffff1673ffffffffffffffffffffffffffffffffffffffff168152602001806020018573ffffffffffffffffffffffffffffffffffffffff1673ffffffffffffffffffffffffffffffffffffffff168152602001848152602001838152602001828103825286818151815260200191508051906020019080838360005b83811015610d8d578082015181840152602081019050610d72565b50505050905090810190601f168015610dba5780820380516001836020036101000a031916815260200191505b509650505050505050600060405180830381600087803b1515610ddc57600080fd5b6102c65a03f11515610ded57600080fd5b5050505050505050565b6000806000806000339250600760009054906101000a900473ffffffffffffffffffffffffffffffffffffffff1673ffffffffffffffffffffffffffffffffffffffff16639b19d39484886000604051602001526040518363ffffffff167c0100000000000000000000000000000000000000000000000000000000028152600401808373ffffffffffffffffffffffffffffffffffffffff1673ffffffffffffffffffffffffffffffffffffffff16815260200182815260200192505050602060405180830381600087803b1515610ecf57600080fd5b6102c65a03f11515610ee057600080fd5b505050604051805190509150600760009054906101000a900473ffffffffffffffffffffffffffffffffffffffff1673ffffffffffffffffffffffffffffffffffffffff16631372508884886000604051602001526040518363ffffffff167c0100000000000000000000000000000000000000000000000000000000028152600401808373ffffffffffffffffffffffffffffffffffffffff1673ffffffffffffffffffffffffffffffffffffffff16815260200182815260200192505050602060405180830381600087803b1515610fb957600080fd5b6102c65a03f11515610fca57600080fd5b505050604051805190509050818194509450505050915091565b610fec612132565b6000806000803391506006600081548110151561100557fe5b90600052602060002090600302019050806000018160010160009054906101000a900473ffffffffffffffffffffffffffffffffffffffff168260020154828054600181600116156101000203166002900480601f0160208091040260200160405190810160405280929190818152602001828054600181600116156101000203166002900480156110d85780601f106110ad576101008083540402835291602001916110d8565b820191906000526020600020905b8154815290600101906020018083116110bb57829003601f168201915b505050505092509450945094505050909192565b6000339050600760009054906101000a900473ffffffffffffffffffffffffffffffffffffffff1673ffffffffffffffffffffffffffffffffffffffff166372718b6287878787876040518663ffffffff167c0100000000000000000000000000000000000000000000000000000000028152600401808673ffffffffffffffffffffffffffffffffffffffff1673ffffffffffffffffffffffffffffffffffffffff168152602001806020018573ffffffffffffffffffffffffffffffffffffffff1673ffffffffffffffffffffffffffffffffffffffff168152602001848152602001838152602001828103825286818151815260200191508051906020019080838360005b8381101561120f5780820151818401526020810190506111f4565b50505050905090810190601f16801561123c5780820380516001836020036101000a031916815260200191505b509650505050505050600060405180830381600087803b151561125e57600080fd5b6102c65a03f1151561126f57600080fd5b505050505050505050565b600080611285612146565b6000339350600092505b815183101561134b5781838151811015156112a657fe5b906020019060200201516006848154811015156112bf57fe5b906000526020600020906003020160008201518160000190805190602001906112e992919061215a565b5060208201518160010160006101000a81548173ffffffffffffffffffffffffffffffffffffffff021916908373ffffffffffffffffffffffffffffffffffffffff16021790555060408201518160020155905050828060010193505061128f565b6006805480600101828161135f91906121da565b916000526020600020906003020160006060604051908101604052808a81526020018873ffffffffffffffffffffffffffffffffffffffff16815260200189815250909190915060008201518160000190805190602001906113c292919061215a565b5060208201518160010160006101000a81548173ffffffffffffffffffffffffffffffffffffffff021916908373ffffffffffffffffffffffffffffffffffffffff1602179055506040820151816002015550505060068054905060405180591061142a5750595b90808252806020026020018201604052801561146057816020015b61144d61220c565b8152602001906001900390816114455790505b509150600090505b6006805490508110156115c85760068181548110151561148457fe5b906000526020600020906003020160606040519081016040529081600082018054600181600116156101000203166002900480601f0160208091040260200160405190810160405280929190818152602001828054600181600116156101000203166002900480156115375780601f1061150c57610100808354040283529160200191611537565b820191906000526020600020905b81548152906001019060200180831161151a57829003601f168201915b505050505081526020016001820160009054906101000a900473ffffffffffffffffffffffffffffffffffffffff1673ffffffffffffffffffffffffffffffffffffffff1673ffffffffffffffffffffffffffffffffffffffff16815260200160028201548152505082828151811015156115ae57fe5b906020019060200201819052508080600101915050611468565b600680549050600181905550505050505050565b600760009054906101000a900473ffffffffffffffffffffffffffffffffffffffff1681565b60008060009054906101000a900473ffffffffffffffffffffffffffffffffffffffff16905090565b60068181548110151561163a57fe5b906000526020600020906003020160009150905080600001908060010160009054906101000a900473ffffffffffffffffffffffffffffffffffffffff16908060020154905083565b6000339050600760009054906101000a900473ffffffffffffffffffffffffffffffffffffffff1673ffffffffffffffffffffffffffffffffffffffff16638ee347508789858989896040518763ffffffff167c0100000000000000000000000000000000000000000000000000000000028152600401808773ffffffffffffffffffffffffffffffffffffffff1673ffffffffffffffffffffffffffffffffffffffff168152602001806020018673ffffffffffffffffffffffffffffffffffffffff1673ffffffffffffffffffffffffffffffffffffffff168152602001858152602001848152602001838152602001828103825287818151815260200191508051906020019080838360005b838110156117ad578082015181840152602081019050611792565b50505050905090810190601f1680156117da5780820380516001836020036101000a031916815260200191505b50975050505050505050600060405180830381600087803b15156117fd57600080fd5b6102c65a03f1151561180e57600080fd5b505050600860009054906101000a900473ffffffffffffffffffffffffffffffffffffffff1673ffffffffffffffffffffffffffffffffffffffff16638ee347508789858989896040518763ffffffff167c0100000000000000000000000000000000000000000000000000000000028152600401808773ffffffffffffffffffffffffffffffffffffffff1673ffffffffffffffffffffffffffffffffffffffff168152602001806020018673ffffffffffffffffffffffffffffffffffffffff1673ffffffffffffffffffffffffffffffffffffffff168152602001858152602001848152602001838152602001828103825287818151815260200191508051906020019080838360005b8381101561193657808201518184015260208101905061191b565b50505050905090810190601f1680156119635780820380516001836020036101000a031916815260200191505b50975050505050505050600060405180830381600087803b151561198657600080fd5b6102c65a03f1151561199757600080fd5b50505050505050505050565b6000806000339150600760009054906101000a900473ffffffffffffffffffffffffffffffffffffffff1673ffffffffffffffffffffffffffffffffffffffff1663cae08ddc83866000604051602001526040518363ffffffff167c0100000000000000000000000000000000000000000000000000000000028152600401808373ffffffffffffffffffffffffffffffffffffffff1673ffffffffffffffffffffffffffffffffffffffff16815260200182815260200192505050602060405180830381600087803b1515611a7857600080fd5b6102c65a03f11515611a8957600080fd5b5050506040518051905090508092505050919050565b6000339050600860009054906101000a900473ffffffffffffffffffffffffffffffffffffffff1673ffffffffffffffffffffffffffffffffffffffff16631fa6ef4d85878487876040518663ffffffff167c0100000000000000000000000000000000000000000000000000000000028152600401808673ffffffffffffffffffffffffffffffffffffffff1673ffffffffffffffffffffffffffffffffffffffff168152602001806020018573ffffffffffffffffffffffffffffffffffffffff1673ffffffffffffffffffffffffffffffffffffffff168152602001848152602001838152602001828103825286818151815260200191508051906020019080838360005b83811015611bc2578082015181840152602081019050611ba7565b50505050905090810190601f168015611bef5780820380516001836020036101000a031916815260200191505b509650505050505050600060405180830381600087803b1515611c1157600080fd5b6102c65a03f11515611c2257600080fd5b5050505050505050565b6000806000339150600860009054906101000a900473ffffffffffffffffffffffffffffffffffffffff1673ffffffffffffffffffffffffffffffffffffffff1663cae08ddc83866000604051602001526040518363ffffffff167c0100000000000000000000000000000000000000000000000000000000028152600401808373ffffffffffffffffffffffffffffffffffffffff1673ffffffffffffffffffffffffffffffffffffffff16815260200182815260200192505050602060405180830381600087803b1515611d0157600080fd5b6102c65a03f11515611d1257600080fd5b5050506040518051905090508092505050919050565b6000339050600760009054906101000a900473ffffffffffffffffffffffffffffffffffffffff1673ffffffffffffffffffffffffffffffffffffffff166353f23a92828686866040518563ffffffff167c0100000000000000000000000000000000000000000000000000000000028152600401808573ffffffffffffffffffffffffffffffffffffffff1673ffffffffffffffffffffffffffffffffffffffff168152602001806020018473ffffffffffffffffffffffffffffffffffffffff1673ffffffffffffffffffffffffffffffffffffffff168152602001838152602001828103825285818151815260200191508051906020019080838360005b83811015611e44578082015181840152602081019050611e29565b50505050905090810190601f168015611e715780820380516001836020036101000a031916815260200191505b5095505050505050600060405180830381600087803b1515611e9257600080fd5b6102c65a03f11515611ea357600080fd5b50505050505050565b600280600001908060010160009054906101000a900473ffffffffffffffffffffffffffffffffffffffff16908060020154905083565b6000806000806000339250600760009054906101000a900473ffffffffffffffffffffffffffffffffffffffff1673ffffffffffffffffffffffffffffffffffffffff1663bea372df84886000604051602001526040518363ffffffff167c0100000000000000000000000000000000000000000000000000000000028152600401808373ffffffffffffffffffffffffffffffffffffffff1673ffffffffffffffffffffffffffffffffffffffff16815260200182815260200192505050602060405180830381600087803b1515611fbb57600080fd5b6102c65a03f11515611fcc57600080fd5b505050604051805190509150600760009054906101000a900473ffffffffffffffffffffffffffffffffffffffff1673ffffffffffffffffffffffffffffffffffffffff16632623f2be84886000604051602001526040518363ffffffff167c0100000000000000000000000000000000000000000000000000000000028152600401808373ffffffffffffffffffffffffffffffffffffffff1673ffffffffffffffffffffffffffffffffffffffff16815260200182815260200192505050602060405180830381600087803b15156120a557600080fd5b6102c65a03f115156120b657600080fd5b505050604051805190509050818194509450505050915091565b6000600154905090565b6005818154811015156120e957fe5b906000526020600020906003020160009150905080600001908060010160009054906101000a900473ffffffffffffffffffffffffffffffffffffffff16908060020154905083565b602060405190810160405280600081525090565b602060405190810160405280600081525090565b828054600181600116156101000203166002900490600052602060002090601f016020900481019282601f1061219b57805160ff19168380011785556121c9565b828001600101855582156121c9579182015b828111156121c85782518255916020019190600101906121ad565b5b5090506121d6919061224a565b5090565b81548183558181151161220757600302816003028360005260206000209182019101612206919061226f565b5b505050565b6060604051908101604052806122206122cd565b8152602001600073ffffffffffffffffffffffffffffffffffffffff168152602001600081525090565b61226c91905b80821115612268576000816000905550600101612250565b5090565b90565b6122ca91905b808211156122c6576000808201600061228e91906122e1565b6001820160006101000a81549073ffffffffffffffffffffffffffffffffffffffff0219169055600282016000905550600301612275565b5090565b90565b602060405190810160405280600081525090565b50805460018160011615610100020316600290046000825580601f106123075750612326565b601f016020900490600052602060002090810190612325919061224a565b5b505600a165627a7a72305820022ab993b4cf23066b75f3e373e7600b1c6180761091ab5c55aabb59a3d4b2fa00296060604052341561000f57600080fd5b60006004819055506000600381905550611d2f8061002e6000396000f3006060604052600436106100fc576000357c0100000000000000000000000000000000000000000000000000000000900463ffffffff16806313725088146101015780631fa6ef4d146101575780632623f2be1461020457806353f23a921461025a5780635ca41469146102fe57806372718b6214610417578063759fa999146104c45780638a4887cf146104ed5780638e26a302146105a85780638ee34750146105fe5780639b19d394146106b45780639ecebe2a14610736578063a474884514610848578063bea372df1461099b578063cae08ddc14610a1d578063d6d6817714610a73578063e65986b114610bbf578063f15eba1714610c7a575b600080fd5b341561010c57600080fd5b610141600480803573ffffffffffffffffffffffffffffffffffffffff16906020019091908035906020019091905050610ca3565b6040518082815260200191505060405180910390f35b341561016257600080fd5b610202600480803573ffffffffffffffffffffffffffffffffffffffff1690602001909190803590602001908201803590602001908080601f0160208091040260200160405190810160405280939291908181526020018383808284378201915050505050509190803573ffffffffffffffffffffffffffffffffffffffff16906020019091908035906020019091908035906020019091905050610d18565b005b341561020f57600080fd5b610244600480803573ffffffffffffffffffffffffffffffffffffffff16906020019091908035906020019091905050610e38565b6040518082815260200191505060405180910390f35b341561026557600080fd5b6102fc600480803573ffffffffffffffffffffffffffffffffffffffff1690602001909190803590602001908201803590602001908080601f0160208091040260200160405190810160405280939291908181526020018383808284378201915050505050509190803573ffffffffffffffffffffffffffffffffffffffff16906020019091908035906020019091905050610ead565b005b341561030957600080fd5b61033e600480803573ffffffffffffffffffffffffffffffffffffffff16906020019091908035906020019091905050611005565b60405180806020018573ffffffffffffffffffffffffffffffffffffffff1673ffffffffffffffffffffffffffffffffffffffff1681526020018481526020018381526020018281038252868181546001816001161561010002031660029004815260200191508054600181600116156101000203166002900480156104055780601f106103da57610100808354040283529160200191610405565b820191906000526020600020905b8154815290600101906020018083116103e857829003601f168201915b50509550505050505060405180910390f35b341561042257600080fd5b6104c2600480803573ffffffffffffffffffffffffffffffffffffffff1690602001909190803590602001908201803590602001908080601f0160208091040260200160405190810160405280939291908181526020018383808284378201915050505050509190803573ffffffffffffffffffffffffffffffffffffffff16906020019091908035906020019091908035906020019091905050611070565b005b34156104cf57600080fd5b6104d76111f3565b6040518082815260200191505060405180910390f35b34156104f857600080fd5b61052d600480803573ffffffffffffffffffffffffffffffffffffffff169060200190919080359060200190919050506111f9565b6040518080602001828103825283818151815260200191508051906020019080838360005b8381101561056d578082015181840152602081019050610552565b50505050905090810190601f16801561059a5780820380516001836020036101000a031916815260200191505b509250505060405180910390f35b34156105b357600080fd5b6105e8600480803573ffffffffffffffffffffffffffffffffffffffff1690602001909190803590602001909190505061130d565b6040518082815260200191505060405180910390f35b341561060957600080fd5b6106b2600480803573ffffffffffffffffffffffffffffffffffffffff1690602001909190803590602001908201803590602001908080601f0160208091040260200160405190810160405280939291908181526020018383808284378201915050505050509190803573ffffffffffffffffffffffffffffffffffffffff1690602001909190803590602001909190803590602001909190803590602001909190505061137a565b005b34156106bf57600080fd5b6106f4600480803573ffffffffffffffffffffffffffffffffffffffff1690602001909190803590602001909190505061150e565b604051808273ffffffffffffffffffffffffffffffffffffffff1673ffffffffffffffffffffffffffffffffffffffff16815260200191505060405180910390f35b341561074157600080fd5b610776600480803573ffffffffffffffffffffffffffffffffffffffff169060200190919080359060200190919050506115a3565b60405180806020018473ffffffffffffffffffffffffffffffffffffffff1673ffffffffffffffffffffffffffffffffffffffff1681526020018381526020018281038252858181546001816001161561010002031660029004815260200191508054600181600116156101000203166002900480156108375780601f1061080c57610100808354040283529160200191610837565b820191906000526020600020905b81548152906001019060200180831161081a57829003601f168201915b505094505050505060405180910390f35b341561085357600080fd5b610888600480803573ffffffffffffffffffffffffffffffffffffffff16906020019091908035906020019091905050611608565b604051808773ffffffffffffffffffffffffffffffffffffffff1673ffffffffffffffffffffffffffffffffffffffff168152602001806020018673ffffffffffffffffffffffffffffffffffffffff1673ffffffffffffffffffffffffffffffffffffffff1681526020018581526020018481526020018381526020018281038252878181546001816001161561010002031660029004815260200191508054600181600116156101000203166002900480156109875780601f1061095c57610100808354040283529160200191610987565b820191906000526020600020905b81548152906001019060200180831161096a57829003601f168201915b505097505050505050505060405180910390f35b34156109a657600080fd5b6109db600480803573ffffffffffffffffffffffffffffffffffffffff1690602001909190803590602001909190505061169f565b604051808273ffffffffffffffffffffffffffffffffffffffff1673ffffffffffffffffffffffffffffffffffffffff16815260200191505060405180910390f35b3415610a2857600080fd5b610a5d600480803573ffffffffffffffffffffffffffffffffffffffff16906020019091908035906020019091905050611734565b6040518082815260200191505060405180910390f35b3415610a7e57600080fd5b610ab3600480803573ffffffffffffffffffffffffffffffffffffffff169060200190919080359060200190919050506117a9565b604051808673ffffffffffffffffffffffffffffffffffffffff1673ffffffffffffffffffffffffffffffffffffffff168152602001806020018573ffffffffffffffffffffffffffffffffffffffff1673ffffffffffffffffffffffffffffffffffffffff168152602001848152602001838152602001828103825286818154600181600116156101000203166002900481526020019150805460018160011615610100020316600290048015610bac5780601f10610b8157610100808354040283529160200191610bac565b820191906000526020600020905b815481529060010190602001808311610b8f57829003601f168201915b5050965050505050505060405180910390f35b3415610bca57600080fd5b610bff600480803573ffffffffffffffffffffffffffffffffffffffff1690602001909190803590602001909190505061183a565b6040518080602001828103825283818151815260200191508051906020019080838360005b83811015610c3f578082015181840152602081019050610c24565b50505050905090810190601f168015610c6c5780820380516001836020036101000a031916815260200191505b509250505060405180910390f35b3415610c8557600080fd5b610c8d61194e565b6040518082815260200191505060405180910390f35b600080600560008573ffffffffffffffffffffffffffffffffffffffff1673ffffffffffffffffffffffffffffffffffffffff16815260200190815260200160002083815481101515610cf257fe5b906000526020600020906003020190506001600381905550806002015491505092915050565b600660008673ffffffffffffffffffffffffffffffffffffffff1673ffffffffffffffffffffffffffffffffffffffff1681526020019081526020016000208054806001018281610d699190611954565b916000526020600020906004020160006080604051908101604052808881526020018773ffffffffffffffffffffffffffffffffffffffff1681526020018681526020018581525090919091506000820151816000019080519060200190610dd2929190611986565b5060208201518160010160006101000a81548173ffffffffffffffffffffffffffffffffffffffff021916908373ffffffffffffffffffffffffffffffffffffffff16021790555060408201518160020155606082015181600301555050505050505050565b600080600660008573ffffffffffffffffffffffffffffffffffffffff1673ffffffffffffffffffffffffffffffffffffffff16815260200190815260200160002083815481101515610e8757fe5b906000526020600020906004020190506001600381905550806002015491505092915050565b600560008573ffffffffffffffffffffffffffffffffffffffff1673ffffffffffffffffffffffffffffffffffffffff1681526020019081526020016000208054806001018281610efe9190611a06565b916000526020600020906003020160006060604051908101604052808781526020018673ffffffffffffffffffffffffffffffffffffffff1681526020018581525090919091506000820151816000019080519060200190610f61929190611986565b5060208201518160010160006101000a81548173ffffffffffffffffffffffffffffffffffffffff021916908373ffffffffffffffffffffffffffffffffffffffff16021790555060408201518160020155505050600560008573ffffffffffffffffffffffffffffffffffffffff1673ffffffffffffffffffffffffffffffffffffffff1681526020019081526020016000208054905060048190555050505050565b60066020528160005260406000208181548110151561102057fe5b90600052602060002090600402016000915091505080600001908060010160009054906101000a900473ffffffffffffffffffffffffffffffffffffffff16908060020154908060030154905084565b600860008673ffffffffffffffffffffffffffffffffffffffff1673ffffffffffffffffffffffffffffffffffffffff16815260200190815260200160002080548060010182816110c19190611a38565b9160005260206000209060050201600060a0604051908101604052808973ffffffffffffffffffffffffffffffffffffffff1681526020018881526020018773ffffffffffffffffffffffffffffffffffffffff16815260200186815260200185815250909190915060008201518160000160006101000a81548173ffffffffffffffffffffffffffffffffffffffff021916908373ffffffffffffffffffffffffffffffffffffffff160217905550602082015181600101908051906020019061118d929190611986565b5060408201518160020160006101000a81548173ffffffffffffffffffffffffffffffffffffffff021916908373ffffffffffffffffffffffffffffffffffffffff16021790555060608201518160030155608082015181600401555050505050505050565b60035481565b611201611a6a565b6000600560008573ffffffffffffffffffffffffffffffffffffffff1673ffffffffffffffffffffffffffffffffffffffff1681526020019081526020016000208381548110151561124f57fe5b906000526020600020906003020190506001600381905550806000018054600181600116156101000203166002900480601f0160208091040260200160405190810160405280929190818152602001828054600181600116156101000203166002900480156112ff5780601f106112d4576101008083540402835291602001916112ff565b820191906000526020600020905b8154815290600101906020018083116112e257829003601f168201915b505050505091505092915050565b600080600860008573ffffffffffffffffffffffffffffffffffffffff1673ffffffffffffffffffffffffffffffffffffffff1681526020019081526020016000208381548110151561135c57fe5b90600052602060002090600502019050806004015491505092915050565b600760008773ffffffffffffffffffffffffffffffffffffffff1673ffffffffffffffffffffffffffffffffffffffff16815260200190815260200160002080548060010182816113cb9190611a7e565b9160005260206000209060060201600060c0604051908101604052808a73ffffffffffffffffffffffffffffffffffffffff1681526020018981526020018873ffffffffffffffffffffffffffffffffffffffff16815260200187815260200186815260200185815250909190915060008201518160000160006101000a81548173ffffffffffffffffffffffffffffffffffffffff021916908373ffffffffffffffffffffffffffffffffffffffff160217905550602082015181600101908051906020019061149d929190611986565b5060408201518160020160006101000a81548173ffffffffffffffffffffffffffffffffffffffff021916908373ffffffffffffffffffffffffffffffffffffffff160217905550606082015181600301556080820151816004015560a08201518160050155505050505050505050565b600080600560008573ffffffffffffffffffffffffffffffffffffffff1673ffffffffffffffffffffffffffffffffffffffff1681526020019081526020016000208381548110151561155d57fe5b9060005260206000209060030201905060016003819055508060010160009054906101000a900473ffffffffffffffffffffffffffffffffffffffff1691505092915050565b6005602052816000526040600020818154811015156115be57fe5b90600052602060002090600302016000915091505080600001908060010160009054906101000a900473ffffffffffffffffffffffffffffffffffffffff16908060020154905083565b60076020528160005260406000208181548110151561162357fe5b9060005260206000209060060201600091509150508060000160009054906101000a900473ffffffffffffffffffffffffffffffffffffffff169080600101908060020160009054906101000a900473ffffffffffffffffffffffffffffffffffffffff16908060030154908060040154908060050154905086565b600080600660008573ffffffffffffffffffffffffffffffffffffffff1673ffffffffffffffffffffffffffffffffffffffff168152602001908152602001600020838154811015156116ee57fe5b9060005260206000209060040201905060016003819055508060010160009054906101000a900473ffffffffffffffffffffffffffffffffffffffff1691505092915050565b600080600760008573ffffffffffffffffffffffffffffffffffffffff1673ffffffffffffffffffffffffffffffffffffffff1681526020019081526020016000208381548110151561178357fe5b906000526020600020906006020190506001600381905550806003015491505092915050565b6008602052816000526040600020818154811015156117c457fe5b9060005260206000209060050201600091509150508060000160009054906101000a900473ffffffffffffffffffffffffffffffffffffffff169080600101908060020160009054906101000a900473ffffffffffffffffffffffffffffffffffffffff16908060030154908060040154905085565b611842611a6a565b6000600660008573ffffffffffffffffffffffffffffffffffffffff1673ffffffffffffffffffffffffffffffffffffffff1681526020019081526020016000208381548110151561189057fe5b906000526020600020906004020190506001600381905550806000018054600181600116156101000203166002900480601f0160208091040260200160405190810160405280929190818152602001828054600181600116156101000203166002900480156119405780601f1061191557610100808354040283529160200191611940565b820191906000526020600020905b81548152906001019060200180831161192357829003601f168201915b505050505091505092915050565b60045481565b815481835581811511611981576004028160040283600052602060002091820191016119809190611ab0565b5b505050565b828054600181600116156101000203166002900490600052602060002090601f016020900481019282601f106119c757805160ff19168380011785556119f5565b828001600101855582156119f5579182015b828111156119f45782518255916020019190600101906119d9565b5b509050611a029190611b16565b5090565b815481835581811511611a3357600302816003028360005260206000209182019101611a329190611b3b565b5b505050565b815481835581811511611a6557600502816005028360005260206000209182019101611a649190611b99565b5b505050565b602060405190810160405280600081525090565b815481835581811511611aab57600602816006028360005260206000209182019101611aaa9190611c26565b5b505050565b611b1391905b80821115611b0f5760008082016000611acf9190611cbb565b6001820160006101000a81549073ffffffffffffffffffffffffffffffffffffffff02191690556002820160009055600382016000905550600401611ab6565b5090565b90565b611b3891905b80821115611b34576000816000905550600101611b1c565b5090565b90565b611b9691905b80821115611b925760008082016000611b5a9190611cbb565b6001820160006101000a81549073ffffffffffffffffffffffffffffffffffffffff0219169055600282016000905550600301611b41565b5090565b90565b611c2391905b80821115611c1f57600080820160006101000a81549073ffffffffffffffffffffffffffffffffffffffff0219169055600182016000611bdf9190611cbb565b6002820160006101000a81549073ffffffffffffffffffffffffffffffffffffffff02191690556003820160009055600482016000905550600501611b9f565b5090565b90565b611cb891905b80821115611cb457600080820160006101000a81549073ffffffffffffffffffffffffffffffffffffffff0219169055600182016000611c6c9190611cbb565b6002820160006101000a81549073ffffffffffffffffffffffffffffffffffffffff021916905560038201600090556004820160009055600582016000905550600601611c2c565b5090565b90565b50805460018160011615610100020316600290046000825580601f10611ce15750611d00565b601f016020900490600052602060002090810190611cff9190611b16565b5b505600a165627a7a7230582044200c62c6bcf141cdcc95e3e7b33ffa73faf83116a40d338e9a46138159b7ed00296060604052341561000f57600080fd5b60006004819055506000600381905550611e5b8061002e6000396000f3006060604052600436106100fc576000357c0100000000000000000000000000000000000000000000000000000000900463ffffffff16806313725088146101015780631fa6ef4d146101575780632623f2be1461020457806353f23a921461025a5780635ca41469146102fe57806372718b621461044a578063759fa999146104f75780638a4887cf146105205780638e26a302146105db5780638ee34750146106315780639b19d394146106e75780639ecebe2a14610769578063a47488451461087b578063bea372df146109ce578063cae08ddc14610a50578063d6d6817714610aa6578063e65986b114610bf2578063f15eba1714610cad575b600080fd5b341561010c57600080fd5b610141600480803573ffffffffffffffffffffffffffffffffffffffff16906020019091908035906020019091905050610cd6565b6040518082815260200191505060405180910390f35b341561016257600080fd5b610202600480803573ffffffffffffffffffffffffffffffffffffffff1690602001909190803590602001908201803590602001908080601f0160208091040260200160405190810160405280939291908181526020018383808284378201915050505050509190803573ffffffffffffffffffffffffffffffffffffffff16906020019091908035906020019091908035906020019091905050610d4b565b005b341561020f57600080fd5b610244600480803573ffffffffffffffffffffffffffffffffffffffff16906020019091908035906020019091905050610f17565b6040518082815260200191505060405180910390f35b341561026557600080fd5b6102fc600480803573ffffffffffffffffffffffffffffffffffffffff1690602001909190803590602001908201803590602001908080601f0160208091040260200160405190810160405280939291908181526020018383808284378201915050505050509190803573ffffffffffffffffffffffffffffffffffffffff16906020019091908035906020019091905050610f8c565b005b341561030957600080fd5b61033e600480803573ffffffffffffffffffffffffffffffffffffffff169060200190919080359060200190919050506110e4565b604051808673ffffffffffffffffffffffffffffffffffffffff1673ffffffffffffffffffffffffffffffffffffffff168152602001806020018573ffffffffffffffffffffffffffffffffffffffff1673ffffffffffffffffffffffffffffffffffffffff1681526020018481526020018381526020018281038252868181546001816001161561010002031660029004815260200191508054600181600116156101000203166002900480156104375780601f1061040c57610100808354040283529160200191610437565b820191906000526020600020905b81548152906001019060200180831161041a57829003601f168201915b5050965050505050505060405180910390f35b341561045557600080fd5b6104f5600480803573ffffffffffffffffffffffffffffffffffffffff1690602001909190803590602001908201803590602001908080601f0160208091040260200160405190810160405280939291908181526020018383808284378201915050505050509190803573ffffffffffffffffffffffffffffffffffffffff16906020019091908035906020019091908035906020019091905050611175565b005b341561050257600080fd5b61050a6112f8565b6040518082815260200191505060405180910390f35b341561052b57600080fd5b610560600480803573ffffffffffffffffffffffffffffffffffffffff169060200190919080359060200190919050506112fe565b6040518080602001828103825283818151815260200191508051906020019080838360005b838110156105a0578082015181840152602081019050610585565b50505050905090810190601f1680156105cd5780820380516001836020036101000a031916815260200191505b509250505060405180910390f35b34156105e657600080fd5b61061b600480803573ffffffffffffffffffffffffffffffffffffffff16906020019091908035906020019091905050611412565b6040518082815260200191505060405180910390f35b341561063c57600080fd5b6106e5600480803573ffffffffffffffffffffffffffffffffffffffff1690602001909190803590602001908201803590602001908080601f0160208091040260200160405190810160405280939291908181526020018383808284378201915050505050509190803573ffffffffffffffffffffffffffffffffffffffff1690602001909190803590602001909190803590602001909190803590602001909190505061147f565b005b34156106f257600080fd5b610727600480803573ffffffffffffffffffffffffffffffffffffffff16906020019091908035906020019091905050611613565b604051808273ffffffffffffffffffffffffffffffffffffffff1673ffffffffffffffffffffffffffffffffffffffff16815260200191505060405180910390f35b341561077457600080fd5b6107a9600480803573ffffffffffffffffffffffffffffffffffffffff169060200190919080359060200190919050506116a8565b60405180806020018473ffffffffffffffffffffffffffffffffffffffff1673ffffffffffffffffffffffffffffffffffffffff16815260200183815260200182810382528581815460018160011615610100020316600290048152602001915080546001816001161561010002031660029004801561086a5780601f1061083f5761010080835404028352916020019161086a565b820191906000526020600020905b81548152906001019060200180831161084d57829003601f168201915b505094505050505060405180910390f35b341561088657600080fd5b6108bb600480803573ffffffffffffffffffffffffffffffffffffffff1690602001909190803590602001909190505061170d565b604051808773ffffffffffffffffffffffffffffffffffffffff1673ffffffffffffffffffffffffffffffffffffffff168152602001806020018673ffffffffffffffffffffffffffffffffffffffff1673ffffffffffffffffffffffffffffffffffffffff1681526020018581526020018481526020018381526020018281038252878181546001816001161561010002031660029004815260200191508054600181600116156101000203166002900480156109ba5780601f1061098f576101008083540402835291602001916109ba565b820191906000526020600020905b81548152906001019060200180831161099d57829003601f168201915b505097505050505050505060405180910390f35b34156109d957600080fd5b610a0e600480803573ffffffffffffffffffffffffffffffffffffffff169060200190919080359060200190919050506117a4565b604051808273ffffffffffffffffffffffffffffffffffffffff1673ffffffffffffffffffffffffffffffffffffffff16815260200191505060405180910390f35b3415610a5b57600080fd5b610a90600480803573ffffffffffffffffffffffffffffffffffffffff16906020019091908035906020019091905050611839565b6040518082815260200191505060405180910390f35b3415610ab157600080fd5b610ae6600480803573ffffffffffffffffffffffffffffffffffffffff169060200190919080359060200190919050506118ae565b604051808673ffffffffffffffffffffffffffffffffffffffff1673ffffffffffffffffffffffffffffffffffffffff168152602001806020018573ffffffffffffffffffffffffffffffffffffffff1673ffffffffffffffffffffffffffffffffffffffff168152602001848152602001838152602001828103825286818154600181600116156101000203166002900481526020019150805460018160011615610100020316600290048015610bdf5780601f10610bb457610100808354040283529160200191610bdf565b820191906000526020600020905b815481529060010190602001808311610bc257829003601f168201915b5050965050505050505060405180910390f35b3415610bfd57600080fd5b610c32600480803573ffffffffffffffffffffffffffffffffffffffff1690602001909190803590602001909190505061193f565b6040518080602001828103825283818151815260200191508051906020019080838360005b83811015610c72578082015181840152602081019050610c57565b50505050905090810190601f168015610c9f5780820380516001836020036101000a031916815260200191505b509250505060405180910390f35b3415610cb857600080fd5b610cc0611a53565b6040518082815260200191505060405180910390f35b600080600560008573ffffffffffffffffffffffffffffffffffffffff1673ffffffffffffffffffffffffffffffffffffffff16815260200190815260200160002083815481101515610d2557fe5b906000526020600020906003020190506001600381905550806002015491505092915050565b600660008473ffffffffffffffffffffffffffffffffffffffff1673ffffffffffffffffffffffffffffffffffffffff1681526020019081526020016000208054806001018281610d9c9190611a59565b9160005260206000209060050201600060a0604051908101604052808973ffffffffffffffffffffffffffffffffffffffff1681526020018881526020018773ffffffffffffffffffffffffffffffffffffffff16815260200186815260200185815250909190915060008201518160000160006101000a81548173ffffffffffffffffffffffffffffffffffffffff021916908373ffffffffffffffffffffffffffffffffffffffff1602179055506020820151816001019080519060200190610e68929190611a8b565b5060408201518160020160006101000a81548173ffffffffffffffffffffffffffffffffffffffff021916908373ffffffffffffffffffffffffffffffffffffffff1602179055506060820151816003015560808201518160040155505050600560008473ffffffffffffffffffffffffffffffffffffffff1673ffffffffffffffffffffffffffffffffffffffff168152602001908152602001600020805490506004819055505050505050565b600080600660008573ffffffffffffffffffffffffffffffffffffffff1673ffffffffffffffffffffffffffffffffffffffff16815260200190815260200160002083815481101515610f6657fe5b906000526020600020906005020190506001600381905550806003015491505092915050565b600560008573ffffffffffffffffffffffffffffffffffffffff1673ffffffffffffffffffffffffffffffffffffffff1681526020019081526020016000208054806001018281610fdd9190611b0b565b916000526020600020906003020160006060604051908101604052808781526020018673ffffffffffffffffffffffffffffffffffffffff1681526020018581525090919091506000820151816000019080519060200190611040929190611a8b565b5060208201518160010160006101000a81548173ffffffffffffffffffffffffffffffffffffffff021916908373ffffffffffffffffffffffffffffffffffffffff16021790555060408201518160020155505050600560008573ffffffffffffffffffffffffffffffffffffffff1673ffffffffffffffffffffffffffffffffffffffff1681526020019081526020016000208054905060048190555050505050565b6006602052816000526040600020818154811015156110ff57fe5b9060005260206000209060050201600091509150508060000160009054906101000a900473ffffffffffffffffffffffffffffffffffffffff169080600101908060020160009054906101000a900473ffffffffffffffffffffffffffffffffffffffff16908060030154908060040154905085565b600860008473ffffffffffffffffffffffffffffffffffffffff1673ffffffffffffffffffffffffffffffffffffffff16815260200190815260200160002080548060010182816111c69190611b3d565b9160005260206000209060050201600060a0604051908101604052808973ffffffffffffffffffffffffffffffffffffffff1681526020018881526020018773ffffffffffffffffffffffffffffffffffffffff16815260200186815260200185815250909190915060008201518160000160006101000a81548173ffffffffffffffffffffffffffffffffffffffff021916908373ffffffffffffffffffffffffffffffffffffffff1602179055506020820151816001019080519060200190611292929190611a8b565b5060408201518160020160006101000a81548173ffffffffffffffffffffffffffffffffffffffff021916908373ffffffffffffffffffffffffffffffffffffffff16021790555060608201518160030155608082015181600401555050505050505050565b60035481565b611306611b6f565b6000600560008573ffffffffffffffffffffffffffffffffffffffff1673ffffffffffffffffffffffffffffffffffffffff1681526020019081526020016000208381548110151561135457fe5b906000526020600020906003020190506001600381905550806000018054600181600116156101000203166002900480601f0160208091040260200160405190810160405280929190818152602001828054600181600116156101000203166002900480156114045780601f106113d957610100808354040283529160200191611404565b820191906000526020600020905b8154815290600101906020018083116113e757829003601f168201915b505050505091505092915050565b600080600860008573ffffffffffffffffffffffffffffffffffffffff1673ffffffffffffffffffffffffffffffffffffffff1681526020019081526020016000208381548110151561146157fe5b90600052602060002090600502019050806004015491505092915050565b600760008573ffffffffffffffffffffffffffffffffffffffff1673ffffffffffffffffffffffffffffffffffffffff16815260200190815260200160002080548060010182816114d09190611b83565b9160005260206000209060060201600060c0604051908101604052808a73ffffffffffffffffffffffffffffffffffffffff1681526020018981526020018873ffffffffffffffffffffffffffffffffffffffff16815260200187815260200186815260200185815250909190915060008201518160000160006101000a81548173ffffffffffffffffffffffffffffffffffffffff021916908373ffffffffffffffffffffffffffffffffffffffff16021790555060208201518160010190805190602001906115a2929190611a8b565b5060408201518160020160006101000a81548173ffffffffffffffffffffffffffffffffffffffff021916908373ffffffffffffffffffffffffffffffffffffffff160217905550606082015181600301556080820151816004015560a08201518160050155505050505050505050565b600080600560008573ffffffffffffffffffffffffffffffffffffffff1673ffffffffffffffffffffffffffffffffffffffff1681526020019081526020016000208381548110151561166257fe5b9060005260206000209060030201905060016003819055508060010160009054906101000a900473ffffffffffffffffffffffffffffffffffffffff1691505092915050565b6005602052816000526040600020818154811015156116c357fe5b90600052602060002090600302016000915091505080600001908060010160009054906101000a900473ffffffffffffffffffffffffffffffffffffffff16908060020154905083565b60076020528160005260406000208181548110151561172857fe5b9060005260206000209060060201600091509150508060000160009054906101000a900473ffffffffffffffffffffffffffffffffffffffff169080600101908060020160009054906101000a900473ffffffffffffffffffffffffffffffffffffffff16908060030154908060040154908060050154905086565b600080600660008573ffffffffffffffffffffffffffffffffffffffff1673ffffffffffffffffffffffffffffffffffffffff168152602001908152602001600020838154811015156117f357fe5b9060005260206000209060050201905060016003819055508060000160009054906101000a900473ffffffffffffffffffffffffffffffffffffffff1691505092915050565b600080600760008573ffffffffffffffffffffffffffffffffffffffff1673ffffffffffffffffffffffffffffffffffffffff1681526020019081526020016000208381548110151561188857fe5b906000526020600020906006020190506001600381905550806003015491505092915050565b6008602052816000526040600020818154811015156118c957fe5b9060005260206000209060050201600091509150508060000160009054906101000a900473ffffffffffffffffffffffffffffffffffffffff169080600101908060020160009054906101000a900473ffffffffffffffffffffffffffffffffffffffff16908060030154908060040154905085565b611947611b6f565b6000600660008573ffffffffffffffffffffffffffffffffffffffff1673ffffffffffffffffffffffffffffffffffffffff1681526020019081526020016000208381548110151561199557fe5b906000526020600020906005020190506001600381905550806001018054600181600116156101000203166002900480601f016020809104026020016040519081016040528092919081815260200182805460018160011615610100020316600290048015611a455780601f10611a1a57610100808354040283529160200191611a45565b820191906000526020600020905b815481529060010190602001808311611a2857829003601f168201915b505050505091505092915050565b60045481565b815481835581811511611a8657600502816005028360005260206000209182019101611a859190611bb5565b5b505050565b828054600181600116156101000203166002900490600052602060002090601f016020900481019282601f10611acc57805160ff1916838001178555611afa565b82800160010185558215611afa579182015b82811115611af9578251825591602001919060010190611ade565b5b509050611b079190611c42565b5090565b815481835581811511611b3857600302816003028360005260206000209182019101611b379190611c67565b5b505050565b815481835581811511611b6a57600502816005028360005260206000209182019101611b699190611cc5565b5b505050565b602060405190810160405280600081525090565b815481835581811511611bb057600602816006028360005260206000209182019101611baf9190611d52565b5b505050565b611c3f91905b80821115611c3b57600080820160006101000a81549073ffffffffffffffffffffffffffffffffffffffff0219169055600182016000611bfb9190611de7565b6002820160006101000a81549073ffffffffffffffffffffffffffffffffffffffff02191690556003820160009055600482016000905550600501611bbb565b5090565b90565b611c6491905b80821115611c60576000816000905550600101611c48565b5090565b90565b611cc291905b80821115611cbe5760008082016000611c869190611de7565b6001820160006101000a81549073ffffffffffffffffffffffffffffffffffffffff0219169055600282016000905550600301611c6d565b5090565b90565b611d4f91905b80821115611d4b57600080820160006101000a81549073ffffffffffffffffffffffffffffffffffffffff0219169055600182016000611d0b9190611de7565b6002820160006101000a81549073ffffffffffffffffffffffffffffffffffffffff02191690556003820160009055600482016000905550600501611ccb565b5090565b90565b611de491905b80821115611de057600080820160006101000a81549073ffffffffffffffffffffffffffffffffffffffff0219169055600182016000611d989190611de7565b6002820160006101000a81549073ffffffffffffffffffffffffffffffffffffffff021916905560038201600090556004820160009055600582016000905550600601611d58565b5090565b90565b50805460018160011615610100020316600290046000825580601f10611e0d5750611e2c565b601f016020900490600052602060002090810190611e2b9190611c42565b5b505600a165627a7a72305820dc5c27dfd12123faa8b91602490c0ff34970964585433c2d77cd120baff900eb0029",
  "source": "pragma solidity ^0.4.15;\n\nimport './Renter.sol';\nimport './Owner.sol';\nimport './Transaction.sol';\nimport './Request.sol';\nimport './Rentpayment.sol';\nimport './Rentdeposit.sol';\n\ncontract Marketplace {\n    address public owner;\n    uint public templength;\n    Item public tempitem;\n    Item[] public tempitemlist;\n    Item[] public itemlist;\n\tRenter public rentstruct;\n\tOwner ownstruct;\n\tTransaction tstruct;\n\tRequest rstruct;\n\tRentpayment rpstruct;\n\tRentdeposit rdstruct;\n\n    struct Item {\n\t\tstring name;\n\t\taddress owner;\n\t\tuint price;\n\t}\n\n    struct Rrequest {\n        string name;\n        address owner;\n        uint price;\n        uint fee;\n    }\n\n    function Marketplace() {\n        //initial constructor\n        \n        rentstruct = new Renter();\n        ownstruct = new Owner();\n        owner = msg.sender;\n        templength = 0;\n    }\n\n    function owner() public returns (address) {\n        return owner;\n    }\n\n    function templength() public returns (uint) {\n        return templength;\n    }\n\n    function upLoad(string name, uint price) {\n        //owner upload items to marketplace contract\n        address itemowner = msg.sender;\n        for (uint index = 0; index < tempitemlist.length; index++) {\n            itemlist[index] = tempitemlist[index];\n        }\n\n        itemlist.push(Item(name, itemowner, price));\n        Item[] memory tempitemlist = new Item[](itemlist.length);\n        for (uint i = 0; i < itemlist.length; i++) {\n            tempitemlist[i] = itemlist[i];\n        }\n        //Item[] memory tempitemlist = itemlist;\n        templength = itemlist.length;    \n    }\n\n    \n\n    function lookingUp() returns (string, address, uint) {\n        //potential renter can lookup what is on the \n        address potentialrenter = msg.sender;\n        Item retval = itemlist[0];\n        return (retval.name, retval.owner, retval.price);\n\n    }\n\n    function request(string name, address owner, uint price) {\n        address renter = msg.sender;\n        rentstruct.requesting(renter, name, owner, price);\n\n    }\n\n    function request2(string name, address renter, uint price, uint fee) {\n        address owner = msg.sender;\n        ownstruct.requesting2(renter, name, owner, price, fee);\n\n    }\n\n    function request3(string name, address owner, uint price, uint fee) {\n        address renter = msg.sender;\n        rentstruct.requesting2(renter, name, owner, price, fee);\n\n    }\n    \n    function requestcheck(uint index) public returns ( address, uint) {\n        address renter = msg.sender;\n        //string tname = rentstruct.namerequest(renter, index);\n        address towner = rentstruct.addressrequest(renter, index);\n        uint tprice = rentstruct.pricerequest(renter, index);\n        return ( towner, tprice);\n    }\n\n    function requestcheck2(uint index) public returns ( address, uint) {\n        address owner = msg.sender;\n        //string tname = rentstruct.namerequest(renter, index);\n        address towner = ownstruct.addressrequest2(owner, index);\n        uint tprice = ownstruct.pricerequest2(owner, index);\n        return ( towner, tprice);\n    }\n\n    function requestcheck3(uint index) public returns ( address, uint) {\n        address renter = msg.sender;\n        //string tname = rentstruct.namerequest(renter, index);\n        address towner = rentstruct.addressrequest2(renter, index);\n        uint tprice = rentstruct.pricerequest2(renter, index);\n        return ( towner, tprice);\n    }\n\n    function transact(string name, address renter, uint price, uint rfee, uint ofee, address owner) {\n        address towner = msg.sender;\n        rentstruct.transacting(renter, name, owner, price, rfee, ofee);\n        ownstruct.transacting(renter, name, owner, price, rfee, ofee);\n    }\n\n    function transactprice(uint index) public returns (uint) {\n        address renter = msg.sender;\n        //string tname = rentstruct.namerequest(renter, index);\n        //address towner = rentstruct.pricetransact(renter, index);\n        uint tprice = rentstruct.pricetransact(renter, index);\n        return tprice;\n    }\n\n    function transactprice2(uint index) public returns (uint) {\n        address owner = msg.sender;\n        //string tname = rentstruct.namerequest(renter, index);\n        //address towner = rentstruct.pricetransact(renter, index);\n        uint tprice = ownstruct.pricetransact(owner, index);\n        return tprice;\n    }\n\n   function depositrent(address renter, string name, address owner, uint price, uint rfee) public {\n        address drenter = msg.sender;\n        rentstruct.depositing(renter, name, owner, price, rfee);\n        //ownstruct.depositing(renter, name, owner, price, rfee);\n        return;\n    }\n\n /*   function depositrent2(address renter, string name, address owner, uint price, uint rfee) public {\n        address drenter = msg.sender;\n        //rentstruct.rRentdeposit(renter, name, owner, price, rfee);\n        ownstruct.oRentdeposit(renter, name, owner, price, rfee);\n        return;\n    }*/\n\n/*    function rentfee(uint index) public returns (uint) {\n        address renter = msg.sender;\n        uint rfee = rentstruct.rentfee(renter, index);\n        return rfee;\n    }*/\n/*\n    function rentfee2(uint index) public returns (uint) {\n        address owner = msg.sender;\n        uint rfee = ownstruct.rentfee(owner, index);\n        return rfee;\n    }*/\n\n}\n",
  "sourcePath": "/Users/kwanhongyap/Desktop/Crypto_final/contracts/Marketplace.sol",
  "compiler": {
    "name": "solc",
    "version": "0.4.18+commit.9cf6e910.Emscripten.clang"
  },
  "schemaVersion": "1.0.1",
  "updatedAt": "2017-11-28T02:33:44.898Z"
}