{
  "contractName": "Market",
  "abi": [
    {
      "constant": false,
      "inputs": [
        {
          "name": "index",
          "type": "uint256"
        }
      ],
      "name": "rackCheck",
      "outputs": [
        {
          "name": "",
          "type": "uint256"
        }
      ],
      "payable": false,
      "stateMutability": "nonpayable",
      "type": "function"
    },
    {
      "constant": true,
      "inputs": [],
      "name": "creator",
      "outputs": [
        {
          "name": "",
          "type": "address"
        }
      ],
      "payable": false,
      "stateMutability": "view",
      "type": "function"
    },
    {
      "constant": false,
      "inputs": [
        {
          "name": "item",
          "type": "uint256"
        },
        {
          "name": "price",
          "type": "uint256"
        }
      ],
      "name": "upLoad",
      "outputs": [],
      "payable": false,
      "stateMutability": "nonpayable",
      "type": "function"
    },
    {
      "constant": true,
      "inputs": [],
      "name": "itemcount",
      "outputs": [
        {
          "name": "",
          "type": "uint256"
        }
      ],
      "payable": false,
      "stateMutability": "view",
      "type": "function"
    },
    {
      "constant": false,
      "inputs": [
        {
          "name": "index",
          "type": "uint256"
        }
      ],
      "name": "oRequestcheck",
      "outputs": [
        {
          "name": "",
          "type": "uint256"
        }
      ],
      "payable": false,
      "stateMutability": "nonpayable",
      "type": "function"
    },
    {
      "constant": true,
      "inputs": [],
      "name": "itemstruct",
      "outputs": [
        {
          "name": "",
          "type": "address"
        }
      ],
      "payable": false,
      "stateMutability": "view",
      "type": "function"
    },
    {
      "constant": false,
      "inputs": [
        {
          "name": "index",
          "type": "uint256"
        }
      ],
      "name": "rRequestcheck",
      "outputs": [
        {
          "name": "",
          "type": "uint256"
        }
      ],
      "payable": false,
      "stateMutability": "nonpayable",
      "type": "function"
    },
    {
      "constant": false,
      "inputs": [
        {
          "name": "index",
          "type": "uint256"
        },
        {
          "name": "key",
          "type": "uint256"
        }
      ],
      "name": "acknowledge",
      "outputs": [],
      "payable": false,
      "stateMutability": "nonpayable",
      "type": "function"
    },
    {
      "constant": false,
      "inputs": [
        {
          "name": "index",
          "type": "uint256"
        }
      ],
      "name": "oackCheck",
      "outputs": [
        {
          "name": "",
          "type": "uint256"
        }
      ],
      "payable": false,
      "stateMutability": "nonpayable",
      "type": "function"
    },
    {
      "constant": true,
      "inputs": [
        {
          "name": "",
          "type": "uint256"
        }
      ],
      "name": "items",
      "outputs": [
        {
          "name": "",
          "type": "uint256"
        }
      ],
      "payable": false,
      "stateMutability": "view",
      "type": "function"
    },
    {
      "constant": false,
      "inputs": [
        {
          "name": "index",
          "type": "uint256"
        }
      ],
      "name": "request",
      "outputs": [],
      "payable": true,
      "stateMutability": "payable",
      "type": "function"
    },
    {
      "constant": false,
      "inputs": [
        {
          "name": "index",
          "type": "uint256"
        }
      ],
      "name": "lookUp",
      "outputs": [
        {
          "name": "",
          "type": "uint256"
        },
        {
          "name": "",
          "type": "uint256"
        },
        {
          "name": "",
          "type": "address"
        },
        {
          "name": "",
          "type": "bool"
        }
      ],
      "payable": false,
      "stateMutability": "nonpayable",
      "type": "function"
    },
    {
      "constant": false,
      "inputs": [
        {
          "name": "index",
          "type": "uint256"
        },
        {
          "name": "key",
          "type": "uint256"
        }
      ],
      "name": "transact",
      "outputs": [
        {
          "name": "",
          "type": "uint256"
        }
      ],
      "payable": false,
      "stateMutability": "nonpayable",
      "type": "function"
    },
    {
      "inputs": [],
      "payable": false,
      "stateMutability": "nonpayable",
      "type": "constructor"
    }
  ],
  "bytecode": "0x606060405234156200001057600080fd5b336000806101000a81548173ffffffffffffffffffffffffffffffffffffffff021916908373ffffffffffffffffffffffffffffffffffffffff1602179055506200005a620000bf565b604051809103906000f08015156200007157600080fd5b600360006101000a81548173ffffffffffffffffffffffffffffffffffffffff021916908373ffffffffffffffffffffffffffffffffffffffff1602179055506000600281905550620000d0565b604051610d17806200376b83390190565b61368b80620000e06000396000f3006060604052600436106100c4576000357c0100000000000000000000000000000000000000000000000000000000900463ffffffff168062b5ac8c146100c957806302d05d3f146101005780631e1068d5146101555780634232dc02146101815780634796c464146101aa5780634f570508146101e1578063770990641461023657806387d3287e1461026d578063bab1640814610299578063bfb231d2146102d0578063d845a4b314610307578063eedf60101461031f578063f9b1fb481461039b575b600080fd5b34156100d457600080fd5b6100ea60048080359060200190919050506103db565b6040518082815260200191505060405180910390f35b341561010b57600080fd5b610113610a1a565b604051808273ffffffffffffffffffffffffffffffffffffffff1673ffffffffffffffffffffffffffffffffffffffff16815260200191505060405180910390f35b341561016057600080fd5b61017f6004808035906020019091908035906020019091905050610a3f565b005b341561018c57600080fd5b610194610b65565b6040518082815260200191505060405180910390f35b34156101b557600080fd5b6101cb6004808035906020019091905050610b6b565b6040518082815260200191505060405180910390f35b34156101ec57600080fd5b6101f4611262565b604051808273ffffffffffffffffffffffffffffffffffffffff1673ffffffffffffffffffffffffffffffffffffffff16815260200191505060405180910390f35b341561024157600080fd5b6102576004808035906020019091905050611288565b6040518082815260200191505060405180910390f35b341561027857600080fd5b61029760048080359060200190919080359060200190919050506118c7565b005b34156102a457600080fd5b6102ba6004808035906020019091905050611fc9565b6040518082815260200191505060405180910390f35b34156102db57600080fd5b6102f160048080359060200190919050506126c0565b6040518082815260200191505060405180910390f35b61031d60048080359060200190919050506126e4565b005b341561032a57600080fd5b6103406004808035906020019091905050612a9b565b604051808581526020018481526020018373ffffffffffffffffffffffffffffffffffffffff1673ffffffffffffffffffffffffffffffffffffffff1681526020018215151515815260200194505050505060405180910390f35b34156103a657600080fd5b6103c56004808035906020019091908035906020019091905050612dfb565b6040518082815260200191505060405180910390f35b6000806000806000339350600360009054906101000a900473ffffffffffffffffffffffffffffffffffffffff1673ffffffffffffffffffffffffffffffffffffffff16639e065b5587866000604051602001526040518363ffffffff167c0100000000000000000000000000000000000000000000000000000000028152600401808381526020018273ffffffffffffffffffffffffffffffffffffffff1673ffffffffffffffffffffffffffffffffffffffff16815260200192505050602060405180830381600087803b15156104b357600080fd5b6102c65a03f115156104c457600080fd5b50505060405180519050158061058a5750600360009054906101000a900473ffffffffffffffffffffffffffffffffffffffff1673ffffffffffffffffffffffffffffffffffffffff1663b6fcd3d4876000604051602001526040518263ffffffff167c010000000000000000000000000000000000000000000000000000000002815260040180828152602001915050602060405180830381600087803b151561056e57600080fd5b6102c65a03f1151561057f57600080fd5b505050604051805190505b8061064957506002600360009054906101000a900473ffffffffffffffffffffffffffffffffffffffff1673ffffffffffffffffffffffffffffffffffffffff166359ba222f886000604051602001526040518263ffffffff167c010000000000000000000000000000000000000000000000000000000002815260040180828152602001915050602060405180830381600087803b151561062b57600080fd5b6102c65a03f1151561063c57600080fd5b5050506040518051905014155b156106575760009450610a11565b600360009054906101000a900473ffffffffffffffffffffffffffffffffffffffff1673ffffffffffffffffffffffffffffffffffffffff16632ab12316876000604051602001526040518263ffffffff167c010000000000000000000000000000000000000000000000000000000002815260040180828152602001915050602060405180830381600087803b15156106f057600080fd5b6102c65a03f1151561070157600080fd5b505050604051805190509250600a830142111561095757600360009054906101000a900473ffffffffffffffffffffffffffffffffffffffff1673ffffffffffffffffffffffffffffffffffffffff166368d75eb8876040518263ffffffff167c010000000000000000000000000000000000000000000000000000000002815260040180828152602001915050600060405180830381600087803b15156107a857600080fd5b6102c65a03f115156107b957600080fd5b505050600360009054906101000a900473ffffffffffffffffffffffffffffffffffffffff1673ffffffffffffffffffffffffffffffffffffffff1663bffd511e876040518263ffffffff167c010000000000000000000000000000000000000000000000000000000002815260040180828152602001915050600060405180830381600087803b151561084c57600080fd5b6102c65a03f1151561085d57600080fd5b505050600360009054906101000a900473ffffffffffffffffffffffffffffffffffffffff1673ffffffffffffffffffffffffffffffffffffffff166349e5465c876000604051602001526040518263ffffffff167c010000000000000000000000000000000000000000000000000000000002815260040180828152602001915050602060405180830381600087803b15156108f957600080fd5b6102c65a03f1151561090a57600080fd5b5050506040518051905091508373ffffffffffffffffffffffffffffffffffffffff166108fc839081150290604051600060405180830381858888f19350505050151561095657600080fd5b5b600360009054906101000a900473ffffffffffffffffffffffffffffffffffffffff1673ffffffffffffffffffffffffffffffffffffffff166359ba222f876000604051602001526040518263ffffffff167c010000000000000000000000000000000000000000000000000000000002815260040180828152602001915050602060405180830381600087803b15156109f057600080fd5b6102c65a03f11515610a0157600080fd5b5050506040518051905090508094505b50505050919050565b6000809054906101000a900473ffffffffffffffffffffffffffffffffffffffff1681565b600033905060018054806001018281610a58919061360e565b916000526020600020900160008590919091505550600360009054906101000a900473ffffffffffffffffffffffffffffffffffffffff1673ffffffffffffffffffffffffffffffffffffffff166336268e4560025484846040518463ffffffff167c0100000000000000000000000000000000000000000000000000000000028152600401808481526020018381526020018273ffffffffffffffffffffffffffffffffffffffff1673ffffffffffffffffffffffffffffffffffffffff1681526020019350505050600060405180830381600087803b1515610b3b57600080fd5b6102c65a03f11515610b4c57600080fd5b5050506001600260008282540192505081905550505050565b60025481565b600080600080600080339450600360009054906101000a900473ffffffffffffffffffffffffffffffffffffffff1673ffffffffffffffffffffffffffffffffffffffff1663f835bca688876000604051602001526040518363ffffffff167c0100000000000000000000000000000000000000000000000000000000028152600401808381526020018273ffffffffffffffffffffffffffffffffffffffff1673ffffffffffffffffffffffffffffffffffffffff16815260200192505050602060405180830381600087803b1515610c4457600080fd5b6102c65a03f11515610c5557600080fd5b505050604051805190501580610d1b5750600360009054906101000a900473ffffffffffffffffffffffffffffffffffffffff1673ffffffffffffffffffffffffffffffffffffffff1663b6fcd3d4886000604051602001526040518263ffffffff167c010000000000000000000000000000000000000000000000000000000002815260040180828152602001915050602060405180830381600087803b1515610cff57600080fd5b6102c65a03f11515610d1057600080fd5b505050604051805190505b80610dda57506001600360009054906101000a900473ffffffffffffffffffffffffffffffffffffffff1673ffffffffffffffffffffffffffffffffffffffff166359ba222f896000604051602001526040518263ffffffff167c010000000000000000000000000000000000000000000000000000000002815260040180828152602001915050602060405180830381600087803b1515610dbc57600080fd5b6102c65a03f11515610dcd57600080fd5b5050506040518051905014155b15610de85760009550611258565b600360009054906101000a900473ffffffffffffffffffffffffffffffffffffffff1673ffffffffffffffffffffffffffffffffffffffff16632ab12316886000604051602001526040518263ffffffff167c010000000000000000000000000000000000000000000000000000000002815260040180828152602001915050602060405180830381600087803b1515610e8157600080fd5b6102c65a03f11515610e9257600080fd5b505050604051805190509350600a840142111561119e57600360009054906101000a900473ffffffffffffffffffffffffffffffffffffffff1673ffffffffffffffffffffffffffffffffffffffff166368d75eb8886040518263ffffffff167c010000000000000000000000000000000000000000000000000000000002815260040180828152602001915050600060405180830381600087803b1515610f3957600080fd5b6102c65a03f11515610f4a57600080fd5b505050600360009054906101000a900473ffffffffffffffffffffffffffffffffffffffff1673ffffffffffffffffffffffffffffffffffffffff1663bffd511e886040518263ffffffff167c010000000000000000000000000000000000000000000000000000000002815260040180828152602001915050600060405180830381600087803b1515610fdd57600080fd5b6102c65a03f11515610fee57600080fd5b505050600360009054906101000a900473ffffffffffffffffffffffffffffffffffffffff1673ffffffffffffffffffffffffffffffffffffffff1663407d1902886000604051602001526040518263ffffffff167c010000000000000000000000000000000000000000000000000000000002815260040180828152602001915050602060405180830381600087803b151561108a57600080fd5b6102c65a03f1151561109b57600080fd5b505050604051805190509250600360009054906101000a900473ffffffffffffffffffffffffffffffffffffffff1673ffffffffffffffffffffffffffffffffffffffff166349e5465c886000604051602001526040518263ffffffff167c010000000000000000000000000000000000000000000000000000000002815260040180828152602001915050602060405180830381600087803b151561114057600080fd5b6102c65a03f1151561115157600080fd5b5050506040518051905091508273ffffffffffffffffffffffffffffffffffffffff166108fc839081150290604051600060405180830381858888f19350505050151561119d57600080fd5b5b600360009054906101000a900473ffffffffffffffffffffffffffffffffffffffff1673ffffffffffffffffffffffffffffffffffffffff166359ba222f886000604051602001526040518263ffffffff167c010000000000000000000000000000000000000000000000000000000002815260040180828152602001915050602060405180830381600087803b151561123757600080fd5b6102c65a03f1151561124857600080fd5b5050506040518051905090508095505b5050505050919050565b600360009054906101000a900473ffffffffffffffffffffffffffffffffffffffff1681565b6000806000806000339350600360009054906101000a900473ffffffffffffffffffffffffffffffffffffffff1673ffffffffffffffffffffffffffffffffffffffff16639e065b5587866000604051602001526040518363ffffffff167c0100000000000000000000000000000000000000000000000000000000028152600401808381526020018273ffffffffffffffffffffffffffffffffffffffff1673ffffffffffffffffffffffffffffffffffffffff16815260200192505050602060405180830381600087803b151561136057600080fd5b6102c65a03f1151561137157600080fd5b5050506040518051905015806114375750600360009054906101000a900473ffffffffffffffffffffffffffffffffffffffff1673ffffffffffffffffffffffffffffffffffffffff1663b6fcd3d4876000604051602001526040518263ffffffff167c010000000000000000000000000000000000000000000000000000000002815260040180828152602001915050602060405180830381600087803b151561141b57600080fd5b6102c65a03f1151561142c57600080fd5b505050604051805190505b806114f657506001600360009054906101000a900473ffffffffffffffffffffffffffffffffffffffff1673ffffffffffffffffffffffffffffffffffffffff166359ba222f886000604051602001526040518263ffffffff167c010000000000000000000000000000000000000000000000000000000002815260040180828152602001915050602060405180830381600087803b15156114d857600080fd5b6102c65a03f115156114e957600080fd5b5050506040518051905014155b1561150457600094506118be565b600360009054906101000a900473ffffffffffffffffffffffffffffffffffffffff1673ffffffffffffffffffffffffffffffffffffffff16632ab12316876000604051602001526040518263ffffffff167c010000000000000000000000000000000000000000000000000000000002815260040180828152602001915050602060405180830381600087803b151561159d57600080fd5b6102c65a03f115156115ae57600080fd5b505050604051805190509250600a830142111561180457600360009054906101000a900473ffffffffffffffffffffffffffffffffffffffff1673ffffffffffffffffffffffffffffffffffffffff166368d75eb8876040518263ffffffff167c010000000000000000000000000000000000000000000000000000000002815260040180828152602001915050600060405180830381600087803b151561165557600080fd5b6102c65a03f1151561166657600080fd5b505050600360009054906101000a900473ffffffffffffffffffffffffffffffffffffffff1673ffffffffffffffffffffffffffffffffffffffff1663bffd511e876040518263ffffffff167c010000000000000000000000000000000000000000000000000000000002815260040180828152602001915050600060405180830381600087803b15156116f957600080fd5b6102c65a03f1151561170a57600080fd5b505050600360009054906101000a900473ffffffffffffffffffffffffffffffffffffffff1673ffffffffffffffffffffffffffffffffffffffff166349e5465c876000604051602001526040518263ffffffff167c010000000000000000000000000000000000000000000000000000000002815260040180828152602001915050602060405180830381600087803b15156117a657600080fd5b6102c65a03f115156117b757600080fd5b5050506040518051905091508373ffffffffffffffffffffffffffffffffffffffff166108fc839081150290604051600060405180830381858888f19350505050151561180357600080fd5b5b600360009054906101000a900473ffffffffffffffffffffffffffffffffffffffff1673ffffffffffffffffffffffffffffffffffffffff166359ba222f876000604051602001526040518263ffffffff167c010000000000000000000000000000000000000000000000000000000002815260040180828152602001915050602060405180830381600087803b151561189d57600080fd5b6102c65a03f115156118ae57600080fd5b5050506040518051905090508094505b50505050919050565b600080600080339350600360009054906101000a900473ffffffffffffffffffffffffffffffffffffffff1673ffffffffffffffffffffffffffffffffffffffff1663f835bca687866000604051602001526040518363ffffffff167c0100000000000000000000000000000000000000000000000000000000028152600401808381526020018273ffffffffffffffffffffffffffffffffffffffff1673ffffffffffffffffffffffffffffffffffffffff16815260200192505050602060405180830381600087803b151561199d57600080fd5b6102c65a03f115156119ae57600080fd5b505050604051805190501580611a745750600360009054906101000a900473ffffffffffffffffffffffffffffffffffffffff1673ffffffffffffffffffffffffffffffffffffffff1663b6fcd3d4876000604051602001526040518263ffffffff167c010000000000000000000000000000000000000000000000000000000002815260040180828152602001915050602060405180830381600087803b1515611a5857600080fd5b6102c65a03f11515611a6957600080fd5b505050604051805190505b80611b3357506001600360009054906101000a900473ffffffffffffffffffffffffffffffffffffffff1673ffffffffffffffffffffffffffffffffffffffff166359ba222f886000604051602001526040518263ffffffff167c010000000000000000000000000000000000000000000000000000000002815260040180828152602001915050602060405180830381600087803b1515611b1557600080fd5b6102c65a03f11515611b2657600080fd5b5050506040518051905014155b15611b3d57611fc1565b600360009054906101000a900473ffffffffffffffffffffffffffffffffffffffff1673ffffffffffffffffffffffffffffffffffffffff16632ab12316876000604051602001526040518263ffffffff167c010000000000000000000000000000000000000000000000000000000002815260040180828152602001915050602060405180830381600087803b1515611bd657600080fd5b6102c65a03f11515611be757600080fd5b505050604051805190509250600a8301421115611ef757600360009054906101000a900473ffffffffffffffffffffffffffffffffffffffff1673ffffffffffffffffffffffffffffffffffffffff166368d75eb8876040518263ffffffff167c010000000000000000000000000000000000000000000000000000000002815260040180828152602001915050600060405180830381600087803b1515611c8e57600080fd5b6102c65a03f11515611c9f57600080fd5b505050600360009054906101000a900473ffffffffffffffffffffffffffffffffffffffff1673ffffffffffffffffffffffffffffffffffffffff1663bffd511e876040518263ffffffff167c010000000000000000000000000000000000000000000000000000000002815260040180828152602001915050600060405180830381600087803b1515611d3257600080fd5b6102c65a03f11515611d4357600080fd5b505050600360009054906101000a900473ffffffffffffffffffffffffffffffffffffffff1673ffffffffffffffffffffffffffffffffffffffff1663407d1902876000604051602001526040518263ffffffff167c010000000000000000000000000000000000000000000000000000000002815260040180828152602001915050602060405180830381600087803b1515611ddf57600080fd5b6102c65a03f11515611df057600080fd5b505050604051805190509150600360009054906101000a900473ffffffffffffffffffffffffffffffffffffffff1673ffffffffffffffffffffffffffffffffffffffff166349e5465c876000604051602001526040518263ffffffff167c010000000000000000000000000000000000000000000000000000000002815260040180828152602001915050602060405180830381600087803b1515611e9557600080fd5b6102c65a03f11515611ea657600080fd5b5050506040518051905090508173ffffffffffffffffffffffffffffffffffffffff166108fc829081150290604051600060405180830381858888f193505050501515611ef257600080fd5b611fc1565b600360009054906101000a900473ffffffffffffffffffffffffffffffffffffffff1673ffffffffffffffffffffffffffffffffffffffff1663bf72fd2b87876040518082815260200191505060405180910390206040518363ffffffff167c010000000000000000000000000000000000000000000000000000000002815260040180838152602001826000191660001916815260200192505050600060405180830381600087803b1515611fac57600080fd5b6102c65a03f11515611fbd57600080fd5b5050505b505050505050565b600080600080600080339450600360009054906101000a900473ffffffffffffffffffffffffffffffffffffffff1673ffffffffffffffffffffffffffffffffffffffff1663f835bca688876000604051602001526040518363ffffffff167c0100000000000000000000000000000000000000000000000000000000028152600401808381526020018273ffffffffffffffffffffffffffffffffffffffff1673ffffffffffffffffffffffffffffffffffffffff16815260200192505050602060405180830381600087803b15156120a257600080fd5b6102c65a03f115156120b357600080fd5b5050506040518051905015806121795750600360009054906101000a900473ffffffffffffffffffffffffffffffffffffffff1673ffffffffffffffffffffffffffffffffffffffff1663b6fcd3d4886000604051602001526040518263ffffffff167c010000000000000000000000000000000000000000000000000000000002815260040180828152602001915050602060405180830381600087803b151561215d57600080fd5b6102c65a03f1151561216e57600080fd5b505050604051805190505b8061223857506002600360009054906101000a900473ffffffffffffffffffffffffffffffffffffffff1673ffffffffffffffffffffffffffffffffffffffff166359ba222f896000604051602001526040518263ffffffff167c010000000000000000000000000000000000000000000000000000000002815260040180828152602001915050602060405180830381600087803b151561221a57600080fd5b6102c65a03f1151561222b57600080fd5b5050506040518051905014155b1561224657600095506126b6565b600360009054906101000a900473ffffffffffffffffffffffffffffffffffffffff1673ffffffffffffffffffffffffffffffffffffffff16632ab12316886000604051602001526040518263ffffffff167c010000000000000000000000000000000000000000000000000000000002815260040180828152602001915050602060405180830381600087803b15156122df57600080fd5b6102c65a03f115156122f057600080fd5b505050604051805190509350600a84014211156125fc57600360009054906101000a900473ffffffffffffffffffffffffffffffffffffffff1673ffffffffffffffffffffffffffffffffffffffff166368d75eb8886040518263ffffffff167c010000000000000000000000000000000000000000000000000000000002815260040180828152602001915050600060405180830381600087803b151561239757600080fd5b6102c65a03f115156123a857600080fd5b505050600360009054906101000a900473ffffffffffffffffffffffffffffffffffffffff1673ffffffffffffffffffffffffffffffffffffffff1663bffd511e886040518263ffffffff167c010000000000000000000000000000000000000000000000000000000002815260040180828152602001915050600060405180830381600087803b151561243b57600080fd5b6102c65a03f1151561244c57600080fd5b505050600360009054906101000a900473ffffffffffffffffffffffffffffffffffffffff1673ffffffffffffffffffffffffffffffffffffffff1663407d1902886000604051602001526040518263ffffffff167c010000000000000000000000000000000000000000000000000000000002815260040180828152602001915050602060405180830381600087803b15156124e857600080fd5b6102c65a03f115156124f957600080fd5b505050604051805190509250600360009054906101000a900473ffffffffffffffffffffffffffffffffffffffff1673ffffffffffffffffffffffffffffffffffffffff166349e5465c886000604051602001526040518263ffffffff167c010000000000000000000000000000000000000000000000000000000002815260040180828152602001915050602060405180830381600087803b151561259e57600080fd5b6102c65a03f115156125af57600080fd5b5050506040518051905091508273ffffffffffffffffffffffffffffffffffffffff166108fc839081150290604051600060405180830381858888f1935050505015156125fb57600080fd5b5b600360009054906101000a900473ffffffffffffffffffffffffffffffffffffffff1673ffffffffffffffffffffffffffffffffffffffff166359ba222f886000604051602001526040518263ffffffff167c010000000000000000000000000000000000000000000000000000000002815260040180828152602001915050602060405180830381600087803b151561269557600080fd5b6102c65a03f115156126a657600080fd5b5050506040518051905090508095505b5050505050919050565b6001818154811015156126cf57fe5b90600052602060002090016000915090505481565b600080600080600033945034935060025486101515612742573373ffffffffffffffffffffffffffffffffffffffff166108fc859081150290604051600060405180830381858888f19350505050151561273d57600080fd5b612a93565b600360009054906101000a900473ffffffffffffffffffffffffffffffffffffffff1673ffffffffffffffffffffffffffffffffffffffff166349e5465c876000604051602001526040518263ffffffff167c010000000000000000000000000000000000000000000000000000000002815260040180828152602001915050602060405180830381600087803b15156127db57600080fd5b6102c65a03f115156127ec57600080fd5b505050604051805190509250600360009054906101000a900473ffffffffffffffffffffffffffffffffffffffff1673ffffffffffffffffffffffffffffffffffffffff166370497414876000604051602001526040518263ffffffff167c010000000000000000000000000000000000000000000000000000000002815260040180828152602001915050602060405180830381600087803b151561289157600080fd5b6102c65a03f115156128a257600080fd5b505050604051805190509150600360009054906101000a900473ffffffffffffffffffffffffffffffffffffffff1673ffffffffffffffffffffffffffffffffffffffff1663b6fcd3d4876000604051602001526040518263ffffffff167c010000000000000000000000000000000000000000000000000000000002815260040180828152602001915050602060405180830381600087803b151561294757600080fd5b6102c65a03f1151561295857600080fd5b50505060405180519050905080158061297057508284105b156129ba573373ffffffffffffffffffffffffffffffffffffffff166108fc859081150290604051600060405180830381858888f1935050505015156129b557600080fd5b612a93565b600360009054906101000a900473ffffffffffffffffffffffffffffffffffffffff1673ffffffffffffffffffffffffffffffffffffffff16639ad8a98087876040518363ffffffff167c0100000000000000000000000000000000000000000000000000000000028152600401808381526020018273ffffffffffffffffffffffffffffffffffffffff1673ffffffffffffffffffffffffffffffffffffffff16815260200192505050600060405180830381600087803b1515612a7e57600080fd5b6102c65a03f11515612a8f57600080fd5b5050505b505050505050565b60008060008060008060008060025489101515612ace576000806000808393508292508191509750975097509750612df0565b600360009054906101000a900473ffffffffffffffffffffffffffffffffffffffff1673ffffffffffffffffffffffffffffffffffffffff1663b6fcd3d48a6000604051602001526040518263ffffffff167c010000000000000000000000000000000000000000000000000000000002815260040180828152602001915050602060405180830381600087803b1515612b6757600080fd5b6102c65a03f11515612b7857600080fd5b505050604051805190501515612ba4576000806000808393508292508191509750975097509750612df0565b600189815481101515612bb357fe5b9060005260206000209001549350600360009054906101000a900473ffffffffffffffffffffffffffffffffffffffff1673ffffffffffffffffffffffffffffffffffffffff166349e5465c8a6000604051602001526040518263ffffffff167c010000000000000000000000000000000000000000000000000000000002815260040180828152602001915050602060405180830381600087803b1515612c5a57600080fd5b6102c65a03f11515612c6b57600080fd5b505050604051805190509250600360009054906101000a900473ffffffffffffffffffffffffffffffffffffffff1673ffffffffffffffffffffffffffffffffffffffff1663704974148a6000604051602001526040518263ffffffff167c010000000000000000000000000000000000000000000000000000000002815260040180828152602001915050602060405180830381600087803b1515612d1057600080fd5b6102c65a03f11515612d2157600080fd5b505050604051805190509150600360009054906101000a900473ffffffffffffffffffffffffffffffffffffffff1673ffffffffffffffffffffffffffffffffffffffff1663b6fcd3d48a6000604051602001526040518263ffffffff167c010000000000000000000000000000000000000000000000000000000002815260040180828152602001915050602060405180830381600087803b1515612dc657600080fd5b6102c65a03f11515612dd757600080fd5b5050506040518051905090508383838397509750975097505b505050509193509193565b600080600080600080339450600360009054906101000a900473ffffffffffffffffffffffffffffffffffffffff1673ffffffffffffffffffffffffffffffffffffffff16639e065b5589876000604051602001526040518363ffffffff167c0100000000000000000000000000000000000000000000000000000000028152600401808381526020018273ffffffffffffffffffffffffffffffffffffffff1673ffffffffffffffffffffffffffffffffffffffff16815260200192505050602060405180830381600087803b1515612ed457600080fd5b6102c65a03f11515612ee557600080fd5b505050604051805190501580612fab5750600360009054906101000a900473ffffffffffffffffffffffffffffffffffffffff1673ffffffffffffffffffffffffffffffffffffffff1663b6fcd3d4896000604051602001526040518263ffffffff167c010000000000000000000000000000000000000000000000000000000002815260040180828152602001915050602060405180830381600087803b1515612f8f57600080fd5b6102c65a03f11515612fa057600080fd5b505050604051805190505b8061306a57506002600360009054906101000a900473ffffffffffffffffffffffffffffffffffffffff1673ffffffffffffffffffffffffffffffffffffffff166359ba222f8a6000604051602001526040518263ffffffff167c010000000000000000000000000000000000000000000000000000000002815260040180828152602001915050602060405180830381600087803b151561304c57600080fd5b6102c65a03f1151561305d57600080fd5b5050506040518051905014155b156130785760009550613603565b600360009054906101000a900473ffffffffffffffffffffffffffffffffffffffff1673ffffffffffffffffffffffffffffffffffffffff16632ab12316896000604051602001526040518263ffffffff167c010000000000000000000000000000000000000000000000000000000002815260040180828152602001915050602060405180830381600087803b151561311157600080fd5b6102c65a03f1151561312257600080fd5b505050604051805190509350600360009054906101000a900473ffffffffffffffffffffffffffffffffffffffff1673ffffffffffffffffffffffffffffffffffffffff166349e5465c896000604051602001526040518263ffffffff167c010000000000000000000000000000000000000000000000000000000002815260040180828152602001915050602060405180830381600087803b15156131c757600080fd5b6102c65a03f115156131d857600080fd5b505050604051805190509250600a840142111561338057600360009054906101000a900473ffffffffffffffffffffffffffffffffffffffff1673ffffffffffffffffffffffffffffffffffffffff166368d75eb8896040518263ffffffff167c010000000000000000000000000000000000000000000000000000000002815260040180828152602001915050600060405180830381600087803b151561327f57600080fd5b6102c65a03f1151561329057600080fd5b505050600360009054906101000a900473ffffffffffffffffffffffffffffffffffffffff1673ffffffffffffffffffffffffffffffffffffffff1663bffd511e896040518263ffffffff167c010000000000000000000000000000000000000000000000000000000002815260040180828152602001915050600060405180830381600087803b151561332357600080fd5b6102c65a03f1151561333457600080fd5b5050508473ffffffffffffffffffffffffffffffffffffffff166108fc849081150290604051600060405180830381858888f19350505050151561337757600080fd5b60009550613603565b600360009054906101000a900473ffffffffffffffffffffffffffffffffffffffff1673ffffffffffffffffffffffffffffffffffffffff1663130b4878896000604051602001526040518263ffffffff167c010000000000000000000000000000000000000000000000000000000002815260040180828152602001915050602060405180830381600087803b151561341957600080fd5b6102c65a03f1151561342a57600080fd5b5050506040518051905091508660405180828152602001915050604051809103902060001916826000191614156135fe57600360009054906101000a900473ffffffffffffffffffffffffffffffffffffffff1673ffffffffffffffffffffffffffffffffffffffff166370497414896000604051602001526040518263ffffffff167c010000000000000000000000000000000000000000000000000000000002815260040180828152602001915050602060405180830381600087803b15156134f457600080fd5b6102c65a03f1151561350557600080fd5b505050604051805190509050600360009054906101000a900473ffffffffffffffffffffffffffffffffffffffff1673ffffffffffffffffffffffffffffffffffffffff1663d7de509c896040518263ffffffff167c010000000000000000000000000000000000000000000000000000000002815260040180828152602001915050600060405180830381600087803b15156135a157600080fd5b6102c65a03f115156135b257600080fd5b5050508073ffffffffffffffffffffffffffffffffffffffff166108fc849081150290604051600060405180830381858888f1935050505015156135f557600080fd5b60039550613603565b600295505b505050505092915050565b81548183558181151161363557818360005260206000209182019101613634919061363a565b5b505050565b61365c91905b80821115613658576000816000905550600101613640565b5090565b905600a165627a7a72305820f19c82bc5a94f6539b4ae2a30391bd89dd50df713359ed8a56a5d6f18fb7aebf00296060604052341561000f57600080fd5b610cf98061001e6000396000f300606060405260043610610133576000357c0100000000000000000000000000000000000000000000000000000000900463ffffffff168063025e7c2714610138578063089d8bec1461019b578063130b4878146101d25780632ab123161461021157806336268e4514610248578063407d19021461029357806349e5465c146102f657806359ba222f1461032d57806368d75eb81461036457806370497414146103875780639ad8a980146103ea5780639e065b551461042c578063a76147c814610486578063b251a4a3146104bd578063b6fcd3d4146104f8578063bc31c1c114610533578063bf72fd2b1461056a578063bffd511e1461059a578063c92abb44146105bd578063d7de509c146105fc578063dcc3974b1461061f578063f835bca614610682578063fa22dc01146106dc575b600080fd5b341561014357600080fd5b61015960048080359060200190919050506106ff565b604051808273ffffffffffffffffffffffffffffffffffffffff1673ffffffffffffffffffffffffffffffffffffffff16815260200191505060405180910390f35b34156101a657600080fd5b6101bc6004808035906020019091905050610732565b6040518082815260200191505060405180910390f35b34156101dd57600080fd5b6101f3600480803590602001909190505061074a565b60405180826000191660001916815260200191505060405180910390f35b341561021c57600080fd5b6102326004808035906020019091905050610767565b6040518082815260200191505060405180910390f35b341561025357600080fd5b610291600480803590602001909190803590602001909190803573ffffffffffffffffffffffffffffffffffffffff16906020019091905050610784565b005b341561029e57600080fd5b6102b460048080359060200190919050506108c3565b604051808273ffffffffffffffffffffffffffffffffffffffff1673ffffffffffffffffffffffffffffffffffffffff16815260200191505060405180910390f35b341561030157600080fd5b61031760048080359060200190919050506108ff565b6040518082815260200191505060405180910390f35b341561033857600080fd5b61034e600480803590602001909190505061091c565b6040518082815260200191505060405180910390f35b341561036f57600080fd5b6103856004808035906020019091905050610939565b005b341561039257600080fd5b6103a86004808035906020019091905050610955565b604051808273ffffffffffffffffffffffffffffffffffffffff1673ffffffffffffffffffffffffffffffffffffffff16815260200191505060405180910390f35b34156103f557600080fd5b61042a600480803590602001909190803573ffffffffffffffffffffffffffffffffffffffff16906020019091905050610992565b005b341561043757600080fd5b61046c600480803590602001909190803573ffffffffffffffffffffffffffffffffffffffff16906020019091905050610a44565b604051808215151515815260200191505060405180910390f35b341561049157600080fd5b6104a76004808035906020019091905050610ac0565b6040518082815260200191505060405180910390f35b34156104c857600080fd5b6104de6004808035906020019091905050610ad8565b604051808215151515815260200191505060405180910390f35b341561050357600080fd5b6105196004808035906020019091905050610af8565b604051808215151515815260200191505060405180910390f35b341561053e57600080fd5b6105546004808035906020019091905050610b22565b6040518082815260200191505060405180910390f35b341561057557600080fd5b610598600480803590602001909190803560001916906020019091905050610b3a565b005b34156105a557600080fd5b6105bb6004808035906020019091905050610b8b565b005b34156105c857600080fd5b6105de6004808035906020019091905050610bba565b60405180826000191660001916815260200191505060405180910390f35b341561060757600080fd5b61061d6004808035906020019091905050610bd2565b005b341561062a57600080fd5b6106406004808035906020019091905050610bee565b604051808273ffffffffffffffffffffffffffffffffffffffff1673ffffffffffffffffffffffffffffffffffffffff16815260200191505060405180910390f35b341561068d57600080fd5b6106c2600480803590602001909190803573ffffffffffffffffffffffffffffffffffffffff16906020019091905050610c21565b604051808215151515815260200191505060405180910390f35b34156106e757600080fd5b6106fd6004808035906020019091905050610c9e565b005b60016020528060005260406000206000915054906101000a900473ffffffffffffffffffffffffffffffffffffffff1681565b60046020528060005260406000206000915090505481565b600060056000838152602001908152602001600020549050919050565b600060036000838152602001908152602001600020549050919050565b600080600085815260200190815260200160002060006101000a81548173ffffffffffffffffffffffffffffffffffffffff021916908373ffffffffffffffffffffffffffffffffffffffff160217905550806001600085815260200190815260200160002060006101000a81548173ffffffffffffffffffffffffffffffffffffffff021916908373ffffffffffffffffffffffffffffffffffffffff1602179055508160026000858152602001908152602001600020819055506000600360008581526020019081526020016000208190555060006004600085815260200190815260200160002081905550600060010260056000858152602001908152602001600020816000191690555060016006600085815260200190815260200160002060006101000a81548160ff021916908315150217905550505050565b600080600083815260200190815260200160002060009054906101000a900473ffffffffffffffffffffffffffffffffffffffff169050919050565b600060026000838152602001908152602001600020549050919050565b600060046000838152602001908152602001600020549050919050565b6000600460008381526020019081526020016000208190555050565b60006001600083815260200190815260200160002060009054906101000a900473ffffffffffffffffffffffffffffffffffffffff169050919050565b8060008084815260200190815260200160002060006101000a81548173ffffffffffffffffffffffffffffffffffffffff021916908373ffffffffffffffffffffffffffffffffffffffff1602179055504260036000848152602001908152602001600020819055506001600460008481526020019081526020016000208190555060006006600084815260200190815260200160002060006101000a81548160ff0219169083151502179055505050565b60008173ffffffffffffffffffffffffffffffffffffffff1660008085815260200190815260200160002060009054906101000a900473ffffffffffffffffffffffffffffffffffffffff1673ffffffffffffffffffffffffffffffffffffffff161415610ab55760019050610aba565b600090505b92915050565b60036020528060005260406000206000915090505481565b60066020528060005260406000206000915054906101000a900460ff1681565b60006006600083815260200190815260200160002060009054906101000a900460ff169050919050565b60026020528060005260406000206000915090505481565b80600560008481526020019081526020016000208160001916905550600260046000848152602001908152602001600020819055504260036000848152602001908152602001600020819055505050565b60016006600083815260200190815260200160002060006101000a81548160ff02191690831515021790555050565b60056020528060005260406000206000915090505481565b6003600460008381526020019081526020016000208190555050565b60006020528060005260406000206000915054906101000a900473ffffffffffffffffffffffffffffffffffffffff1681565b60008173ffffffffffffffffffffffffffffffffffffffff166001600085815260200190815260200160002060009054906101000a900473ffffffffffffffffffffffffffffffffffffffff1673ffffffffffffffffffffffffffffffffffffffff161415610c935760019050610c98565b600090505b92915050565b60006006600083815260200190815260200160002060006101000a81548160ff021916908315150217905550505600a165627a7a72305820f115d1bfbce582a54152f18636c64de28ee135c6bc81b2719389baf62c634b6a0029",
  "source": "pragma solidity ^0.4.15;\n\nimport './Item.sol';\n\ncontract Market {\n    address public creator;\n    uint[] public items;\n    uint public itemcount;\n    Item public itemstruct;\n\n    function Market() {\n        creator = msg.sender;\n        itemstruct = new Item();\n        itemcount = 0;\n    }\n\n    function upLoad(uint item, uint price) public {\n        address itemowner = msg.sender;\n        items.push(item);\n        itemstruct.upload(itemcount, price, itemowner);\n        itemcount += 1;\n    }\n\n    function lookUp(uint index) public returns (uint, uint, address, bool) {\n        if (index >= itemcount) {\n            return (0,0,0,false);\n        }\n        if (!itemstruct.availableCheck(index)) {\n            return (0,0,0, false);\n        }\n        uint item = items[index];\n        uint price = itemstruct.priceCheck(index);\n        address owner = itemstruct.ownerCheck(index);\n        bool val = itemstruct.availableCheck(index);\n        return (item, price, owner, val);\n    }\n\n    function request(uint index) public payable {\n        address renter = msg.sender;\n        uint commitfee = msg.value;\n        if (index >= itemcount) {\n            msg.sender.transfer(commitfee);\n            // need to print error;\n            return;\n        }\n        uint price = itemstruct.priceCheck(index);\n        address owner = itemstruct.ownerCheck(index);\n        bool val = itemstruct.availableCheck(index);\n        if (!val || commitfee < price) {\n            msg.sender.transfer(commitfee);\n            // need to print error;\n            return;\n        }\n        itemstruct.request(index, renter);   \n    }\n\n    function rRequestcheck(uint index) returns (uint) {\n        address renter = msg.sender;\n        if (!itemstruct.ritemCheck(index, renter) || itemstruct.availableCheck(index) || itemstruct.statusCheck(index) != 1) {\n            return 0;\n        }\n        uint start = itemstruct.startimeCheck(index);\n        // 10 is the waiting time\n        if (now > start + 10) {\n            itemstruct.status0(index);\n            itemstruct.availableTrue(index);\n            uint price = itemstruct.priceCheck(index);\n            renter.transfer(price);\n        }\n        uint status = itemstruct.statusCheck(index);\n        return status;\n    }\n\n    function oRequestcheck(uint index) returns (uint) {\n        address owner = msg.sender;\n        if (!itemstruct.oitemCheck(index, owner) || itemstruct.availableCheck(index) || itemstruct.statusCheck(index) != 1) {\n            return 0;\n        }\n        uint start = itemstruct.startimeCheck(index);\n        // 10 is the waiting time\n        if (now > start + 10) {\n            itemstruct.status0(index);\n            itemstruct.availableTrue(index);\n            address renter = itemstruct.renterCheck(index);\n            uint price = itemstruct.priceCheck(index);\n            renter.transfer(price);\n        }\n        uint status = itemstruct.statusCheck(index);\n        return status;\n    }\n\n    function acknowledge(uint index, uint key) {\n        address owner = msg.sender;\n        if (!itemstruct.oitemCheck(index, owner) || itemstruct.availableCheck(index) || itemstruct.statusCheck(index) != 1) {\n            return;\n        }\n        uint start = itemstruct.startimeCheck(index);\n        if (now > start + 10) {\n            itemstruct.status0(index);\n            itemstruct.availableTrue(index);\n            address renter = itemstruct.renterCheck(index);\n            uint price = itemstruct.priceCheck(index);\n            renter.transfer(price);\n            return;\n        }\n        itemstruct.acknowledge(index, sha3(key));   \n    }\n\n    function oackCheck(uint index) returns (uint) {\n        address owner = msg.sender;\n        if (!itemstruct.oitemCheck(index, owner) || itemstruct.availableCheck(index) || itemstruct.statusCheck(index) != 2) {\n            return 0;\n        }\n        uint start = itemstruct.startimeCheck(index);\n        // 10 is the waiting time\n        if (now > start + 10) {\n            itemstruct.status0(index);\n            itemstruct.availableTrue(index);\n            address renter = itemstruct.renterCheck(index);\n            uint price = itemstruct.priceCheck(index);\n            renter.transfer(price);\n        }\n        uint status = itemstruct.statusCheck(index);\n        return status;\n    }\n\n    function rackCheck(uint index) returns (uint) {\n        address renter = msg.sender;\n        if (!itemstruct.ritemCheck(index, renter) || itemstruct.availableCheck(index) || itemstruct.statusCheck(index) != 2) {\n            return 0;\n        }\n        uint start = itemstruct.startimeCheck(index);\n        // 10 is the waiting time\n        if (now > start + 10) {\n            itemstruct.status0(index);\n            itemstruct.availableTrue(index);\n            uint price = itemstruct.priceCheck(index);\n            renter.transfer(price);\n        }\n        uint status = itemstruct.statusCheck(index);\n        return status;\n    }\n\n    function transact(uint index, uint key) returns (uint) {\n        address renter = msg.sender;\n        if (!itemstruct.ritemCheck(index, renter) || itemstruct.availableCheck(index) || itemstruct.statusCheck(index) != 2) {\n            return 0;\n        }\n        uint start = itemstruct.startimeCheck(index);\n        uint price = itemstruct.priceCheck(index);\n        // 10 is the waiting time\n        if (now > start + 10) {\n            itemstruct.status0(index);\n            itemstruct.availableTrue(index);\n            renter.transfer(price);\n            return 0;\n        }\n        bytes32 ohash = itemstruct.ohashCheck(index);\n        if (ohash == sha3(key)) {\n            address owner = itemstruct.ownerCheck(index);\n            itemstruct.status3(index);\n            owner.transfer(price);\n            \n            return 3;\n        }\n        return 2;\n    }\n    \n}",
  "sourcePath": "/Users/kwanhongyap/Desktop/Crypto_final/contracts/Market.sol",
  "compiler": {
    "name": "solc",
    "version": "0.4.18+commit.9cf6e910.Emscripten.clang"
  },
  "schemaVersion": "1.0.1",
  "updatedAt": "2017-12-03T05:23:08.479Z"
}