{
  "contractName": "Marketplace",
  "abi": [
    {
      "constant": false,
      "inputs": [
        {
          "name": "name",
          "type": "bytes32"
        },
        {
          "name": "price",
          "type": "uint256"
        }
      ],
      "name": "upLoad",
      "outputs": [],
      "payable": false,
      "stateMutability": "nonpayable",
      "type": "function"
    },
    {
      "constant": false,
      "inputs": [],
      "name": "lookingUp",
      "outputs": [
        {
          "name": "",
          "type": "bytes32"
        },
        {
          "name": "",
          "type": "address"
        },
        {
          "name": "",
          "type": "uint256"
        }
      ],
      "payable": false,
      "stateMutability": "nonpayable",
      "type": "function"
    },
    {
      "constant": true,
      "inputs": [],
      "name": "owner",
      "outputs": [
        {
          "name": "",
          "type": "address"
        }
      ],
      "payable": false,
      "stateMutability": "view",
      "type": "function"
    },
    {
      "constant": true,
      "inputs": [
        {
          "name": "",
          "type": "uint256"
        }
      ],
      "name": "itemlist",
      "outputs": [
        {
          "name": "name",
          "type": "bytes32"
        },
        {
          "name": "owner",
          "type": "address"
        },
        {
          "name": "price",
          "type": "uint256"
        }
      ],
      "payable": false,
      "stateMutability": "view",
      "type": "function"
    },
    {
      "constant": true,
      "inputs": [],
      "name": "tempitem",
      "outputs": [
        {
          "name": "name",
          "type": "bytes32"
        },
        {
          "name": "owner",
          "type": "address"
        },
        {
          "name": "price",
          "type": "uint256"
        }
      ],
      "payable": false,
      "stateMutability": "view",
      "type": "function"
    },
    {
      "constant": true,
      "inputs": [],
      "name": "templength",
      "outputs": [
        {
          "name": "",
          "type": "uint256"
        }
      ],
      "payable": false,
      "stateMutability": "view",
      "type": "function"
    },
    {
      "constant": true,
      "inputs": [
        {
          "name": "",
          "type": "uint256"
        }
      ],
      "name": "tempitemlist",
      "outputs": [
        {
          "name": "name",
          "type": "bytes32"
        },
        {
          "name": "owner",
          "type": "address"
        },
        {
          "name": "price",
          "type": "uint256"
        }
      ],
      "payable": false,
      "stateMutability": "view",
      "type": "function"
    },
    {
      "inputs": [],
      "payable": false,
      "stateMutability": "nonpayable",
      "type": "constructor"
    }
  ],
  "bytecode": "0x6060604052341561000f57600080fd5b336000806101000a81548173ffffffffffffffffffffffffffffffffffffffff021916908373ffffffffffffffffffffffffffffffffffffffff1602179055506000600181905550610839806100666000396000f300606060405260043610610083576000357c0100000000000000000000000000000000000000000000000000000000900463ffffffff1680635d4091af146100885780635fdde5c2146100b85780638da5cb5b14610123578063a3554eba14610178578063e2e29433146101f1578063f15eba171461025c578063f913fe9b14610285575b600080fd5b341561009357600080fd5b6100b66004808035600019169060200190919080359060200190919050506102fe565b005b34156100c357600080fd5b6100cb6105ba565b6040518084600019166000191681526020018373ffffffffffffffffffffffffffffffffffffffff1673ffffffffffffffffffffffffffffffffffffffff168152602001828152602001935050505060405180910390f35b341561012e57600080fd5b610136610621565b604051808273ffffffffffffffffffffffffffffffffffffffff1673ffffffffffffffffffffffffffffffffffffffff16815260200191505060405180910390f35b341561018357600080fd5b6101996004808035906020019091905050610646565b6040518084600019166000191681526020018373ffffffffffffffffffffffffffffffffffffffff1673ffffffffffffffffffffffffffffffffffffffff168152602001828152602001935050505060405180910390f35b34156101fc57600080fd5b61020461069f565b6040518084600019166000191681526020018373ffffffffffffffffffffffffffffffffffffffff1673ffffffffffffffffffffffffffffffffffffffff168152602001828152602001935050505060405180910390f35b341561026757600080fd5b61026f6106d7565b6040518082815260200191505060405180910390f35b341561029057600080fd5b6102a660048080359060200190919050506106dd565b6040518084600019166000191681526020018373ffffffffffffffffffffffffffffffffffffffff1673ffffffffffffffffffffffffffffffffffffffff168152602001828152602001935050505060405180910390f35b600080610309610736565b6000339350600092505b81518310156103c257818381518110151561032a57fe5b9060200190602002015160068481548110151561034357fe5b90600052602060002090600302016000820151816000019060001916905560208201518160010160006101000a81548173ffffffffffffffffffffffffffffffffffffffff021916908373ffffffffffffffffffffffffffffffffffffffff160217905550604082015181600201559050508280600101935050610313565b600680548060010182816103d6919061074a565b916000526020600020906003020160006060604051908101604052808a6000191681526020018873ffffffffffffffffffffffffffffffffffffffff1681526020018981525090919091506000820151816000019060001916905560208201518160010160006101000a81548173ffffffffffffffffffffffffffffffffffffffff021916908373ffffffffffffffffffffffffffffffffffffffff160217905550604082015181600201555050506006805490506040518059106104985750595b9080825280602002602001820160405280156104ce57816020015b6104bb61077c565b8152602001906001900390816104b35790505b509150600090505b6006805490508110156105a6576006818154811015156104f257fe5b9060005260206000209060030201606060405190810160405290816000820154600019166000191681526020016001820160009054906101000a900473ffffffffffffffffffffffffffffffffffffffff1673ffffffffffffffffffffffffffffffffffffffff1673ffffffffffffffffffffffffffffffffffffffff168152602001600282015481525050828281518110151561058c57fe5b9060200190602002018190525080806001019150506104d6565b600680549050600181905550505050505050565b6000806000806000339150600660008154811015156105d557fe5b9060005260206000209060030201905080600001548160010160009054906101000a900473ffffffffffffffffffffffffffffffffffffffff1682600201549450945094505050909192565b6000809054906101000a900473ffffffffffffffffffffffffffffffffffffffff1681565b60068181548110151561065557fe5b90600052602060002090600302016000915090508060000154908060010160009054906101000a900473ffffffffffffffffffffffffffffffffffffffff16908060020154905083565b60028060000154908060010160009054906101000a900473ffffffffffffffffffffffffffffffffffffffff16908060020154905083565b60015481565b6005818154811015156106ec57fe5b90600052602060002090600302016000915090508060000154908060010160009054906101000a900473ffffffffffffffffffffffffffffffffffffffff16908060020154905083565b602060405190810160405280600081525090565b8154818355818115116107775760030281600302836000526020600020918201910161077691906107b7565b5b505050565b60606040519081016040528060008019168152602001600073ffffffffffffffffffffffffffffffffffffffff168152602001600081525090565b61080a91905b80821115610806576000808201600090556001820160006101000a81549073ffffffffffffffffffffffffffffffffffffffff02191690556002820160009055506003016107bd565b5090565b905600a165627a7a723058205349f336008f822da2bb2e946ed66a195c3c8f157a08e17880cafcb7ac6090fd0029",
  "source": "pragma solidity ^0.4.15;\n\nimport './Renter.sol';\nimport './Owner.sol';\nimport './Transaction.sol';\nimport './Request.sol';\nimport './Rentpayment.sol';\nimport './Rentdeposit.sol';\n\ncontract Marketplace {\n    address public owner;\n    uint public templength;\n    Item public tempitem;\n    Item[] public tempitemlist;\n    Item[] public itemlist;\n\tRenter rentstruct;\n\tOwner ownstruct;\n\tTransaction tstruct;\n\tRequest rstruct;\n\tRentpayment rpstruct;\n\tRentdeposit rdstruct;\n\n    struct Item {\n\t\tbytes32 name;\n\t\taddress owner;\n\t\tuint price;\n\t}\n\n    function Marketplace() {\n        //initial constructor\n        \n        \n        owner = msg.sender;\n        templength = 0;\n    }\n\n    function upLoad(bytes32 name, uint price) {\n        //owner upload items to marketplace contract\n        address itemowner = msg.sender;\n        for (uint index = 0; index < tempitemlist.length; index++) {\n            itemlist[index] = tempitemlist[index];\n        }\n\n        itemlist.push(Item(name, itemowner, price));\n        Item[] memory tempitemlist = new Item[](itemlist.length);\n        for (uint i = 0; i < itemlist.length; i++) {\n            tempitemlist[i] = itemlist[i];\n        }\n        //Item[] memory tempitemlist = itemlist;\n        templength = itemlist.length;    \n    }\n\n    \n\n    function lookingUp() returns (bytes32, address, uint) {\n        //potential renter can lookup what is on the \n        address potentialrenter = msg.sender;\n        Item retval = itemlist[0];\n        return (retval.name, retval.owner, retval.price);\n\n    }\n\n\n    \n}\n",
  "sourcePath": "/Users/kwanhongyap/Desktop/Crypto_final/contracts/Marketplace.sol",
  "compiler": {
    "name": "solc",
    "version": "0.4.18+commit.9cf6e910.Emscripten.clang"
  },
  "schemaVersion": "1.0.1",
  "updatedAt": "2017-11-27T07:38:28.562Z"
}