{
  "contractName": "Marketplace",
  "abi": [
    {
      "constant": false,
      "inputs": [
        {
          "name": "name",
          "type": "bytes32"
        },
        {
          "name": "price",
          "type": "uint256"
        }
      ],
      "name": "upLoad",
      "outputs": [],
      "payable": false,
      "stateMutability": "nonpayable",
      "type": "function"
    },
    {
      "constant": false,
      "inputs": [],
      "name": "lookingUp",
      "outputs": [
        {
          "name": "",
          "type": "uint256[]"
        }
      ],
      "payable": false,
      "stateMutability": "nonpayable",
      "type": "function"
    },
    {
      "constant": true,
      "inputs": [],
      "name": "owner",
      "outputs": [
        {
          "name": "",
          "type": "address"
        }
      ],
      "payable": false,
      "stateMutability": "view",
      "type": "function"
    },
    {
      "constant": true,
      "inputs": [
        {
          "name": "",
          "type": "uint256"
        }
      ],
      "name": "itemlist",
      "outputs": [
        {
          "name": "name",
          "type": "bytes32"
        },
        {
          "name": "owner",
          "type": "address"
        },
        {
          "name": "price",
          "type": "uint256"
        }
      ],
      "payable": false,
      "stateMutability": "view",
      "type": "function"
    },
    {
      "constant": true,
      "inputs": [
        {
          "name": "",
          "type": "uint256"
        }
      ],
      "name": "owner2",
      "outputs": [
        {
          "name": "",
          "type": "uint256"
        }
      ],
      "payable": false,
      "stateMutability": "view",
      "type": "function"
    },
    {
      "constant": true,
      "inputs": [],
      "name": "tempitem",
      "outputs": [
        {
          "name": "name",
          "type": "bytes32"
        },
        {
          "name": "owner",
          "type": "address"
        },
        {
          "name": "price",
          "type": "uint256"
        }
      ],
      "payable": false,
      "stateMutability": "view",
      "type": "function"
    },
    {
      "constant": true,
      "inputs": [],
      "name": "templength",
      "outputs": [
        {
          "name": "",
          "type": "uint256"
        }
      ],
      "payable": false,
      "stateMutability": "view",
      "type": "function"
    },
    {
      "inputs": [],
      "payable": false,
      "stateMutability": "nonpayable",
      "type": "constructor"
    }
  ],
  "bytecode": "0x6060604052341561000f57600080fd5b600180600180548091906001016100269190610092565b81548110151561003257fe5b906000526020600020900181905550336000806101000a81548173ffffffffffffffffffffffffffffffffffffffff021916908373ffffffffffffffffffffffffffffffffffffffff1602179055506001805490506002819055506100e3565b8154818355818115116100b9578183600052602060002091820191016100b891906100be565b5b505050565b6100e091905b808211156100dc5760008160009055506001016100c4565b5090565b90565b61059a806100f26000396000f300606060405260043610610083576000357c0100000000000000000000000000000000000000000000000000000000900463ffffffff1680635d4091af146100885780635fdde5c2146100b85780638da5cb5b14610122578063a3554eba14610177578063bb0116ec146101f0578063e2e2943314610227578063f15eba1714610292575b600080fd5b341561009357600080fd5b6100b66004808035600019169060200190919080359060200190919050506102bb565b005b34156100c357600080fd5b6100cb610394565b6040518080602001828103825283818151815260200191508051906020019060200280838360005b8381101561010e5780820151818401526020810190506100f3565b505050509050019250505060405180910390f35b341561012d57600080fd5b6101356103f2565b604051808273ffffffffffffffffffffffffffffffffffffffff1673ffffffffffffffffffffffffffffffffffffffff16815260200191505060405180910390f35b341561018257600080fd5b6101986004808035906020019091905050610417565b6040518084600019166000191681526020018373ffffffffffffffffffffffffffffffffffffffff1673ffffffffffffffffffffffffffffffffffffffff168152602001828152602001935050505060405180910390f35b34156101fb57600080fd5b6102116004808035906020019091905050610470565b6040518082815260200191505060405180910390f35b341561023257600080fd5b61023a610494565b6040518084600019166000191681526020018373ffffffffffffffffffffffffffffffffffffffff1673ffffffffffffffffffffffffffffffffffffffff168152602001828152602001935050505060405180910390f35b341561029d57600080fd5b6102a56104cc565b6040518082815260200191505060405180910390f35b6000339050600680548060010182816102d491906104d2565b91600052602060002090600302016000606060405190810160405280876000191681526020018573ffffffffffffffffffffffffffffffffffffffff1681526020018681525090919091506000820151816000019060001916905560208201518160010160006101000a81548173ffffffffffffffffffffffffffffffffffffffff021916908373ffffffffffffffffffffffffffffffffffffffff16021790555060408201518160020155505050600680549050600281905550505050565b61039c610504565b60018054806020026020016040519081016040528092919081815260200182805480156103e857602002820191906000526020600020905b8154815260200190600101908083116103d4575b5050505050905090565b6000809054906101000a900473ffffffffffffffffffffffffffffffffffffffff1681565b60068181548110151561042657fe5b90600052602060002090600302016000915090508060000154908060010160009054906101000a900473ffffffffffffffffffffffffffffffffffffffff16908060020154905083565b60018181548110151561047f57fe5b90600052602060002090016000915090505481565b60038060000154908060010160009054906101000a900473ffffffffffffffffffffffffffffffffffffffff16908060020154905083565b60025481565b8154818355818115116104ff576003028160030283600052602060002091820191016104fe9190610518565b5b505050565b602060405190810160405280600081525090565b61056b91905b80821115610567576000808201600090556001820160006101000a81549073ffffffffffffffffffffffffffffffffffffffff021916905560028201600090555060030161051e565b5090565b905600a165627a7a72305820deed0ea79e92ef8dfd319db60f9f37a4020f08eae557d5b631441354435865220029",
  "source": "pragma solidity ^0.4.15;\n\nimport './Renter.sol';\nimport './Owner.sol';\nimport './Transaction.sol';\nimport './Request.sol';\nimport './Rentpayment.sol';\nimport './Rentdeposit.sol';\n\ncontract Marketplace {\n    address public owner;\n    uint[] public owner2;\n    uint public templength;\n    Item public tempitem;\n    Item[] public itemlist;\n\tRenter rentstruct;\n\tOwner ownstruct;\n\tTransaction tstruct;\n\tRequest rstruct;\n\tRentpayment rpstruct;\n\tRentdeposit rdstruct;\n\n    struct Item {\n\t\tbytes32 name;\n\t\taddress owner;\n\t\tuint price;\n\t}\n\n    function Marketplace() {\n        //initial constructor\n        \n        owner2[owner2.length++] = 1;\n        owner = msg.sender;\n        templength = owner2.length;\n    }\n\n    function upLoad(bytes32 name, uint price) {\n        //owner upload items to marketplace contract\n        address itemowner = msg.sender;\n        itemlist.push(Item(name, itemowner, price));\n        templength = itemlist.length;    \n    }\n\n    \n\n    function lookingUp() returns (uint[]) {\n        //potential renter can lookup what is on the marketplace\n        return owner2;\n    }\n    \n}\n",
  "sourcePath": "/Users/kwanhongyap/Desktop/Crypto_final/contracts/Marketplace.sol",
  "compiler": {
    "name": "solc",
    "version": "0.4.18+commit.9cf6e910.Emscripten.clang"
  },
  "schemaVersion": "1.0.1",
  "updatedAt": "2017-11-27T05:29:54.329Z"
}