{
  "contractName": "Marketplace",
  "abi": [
    {
      "constant": false,
      "inputs": [
        {
          "name": "name",
          "type": "bytes32"
        },
        {
          "name": "price",
          "type": "uint256"
        }
      ],
      "name": "upLoad",
      "outputs": [],
      "payable": false,
      "stateMutability": "nonpayable",
      "type": "function"
    },
    {
      "constant": false,
      "inputs": [],
      "name": "lookingUp",
      "outputs": [
        {
          "components": [
            {
              "name": "name",
              "type": "bytes32"
            },
            {
              "name": "owner",
              "type": "address"
            },
            {
              "name": "price",
              "type": "uint256"
            }
          ],
          "name": "itemlist",
          "type": "tuple[]"
        }
      ],
      "payable": false,
      "stateMutability": "nonpayable",
      "type": "function"
    },
    {
      "inputs": [],
      "payable": false,
      "stateMutability": "view",
      "type": "function",
      "constant": true,
      "name": "temp",
      "outputs": [
        {
          "name": "",
          "type": "uint256"
        }
      ]
    },
    {
      "inputs": [
        {
          "name": "",
          "type": "uint256"
        }
      ],
      "payable": false,
      "stateMutability": "view",
      "type": "function",
      "constant": true,
      "name": "owner",
      "outputs": [
        {
          "name": "",
          "type": "address"
        },
        {
          "name": "owner",
          "type": "address"
        },
        {
          "name": "price",
          "type": "uint256"
        }
      ]
    },
    {
      "inputs": [
        {
          "name": "",
          "type": "uint256"
        }
      ],
      "payable": false,
      "stateMutability": "view",
      "type": "function",
      "constant": true,
      "name": "itemlist",
      "outputs": [
        {
          "name": "name",
          "type": "bytes32"
        },
        {
          "name": "owner",
          "type": "address"
        },
        {
          "name": "price",
          "type": "uint256"
        }
      ]
    },
    {
      "inputs": [],
      "payable": false,
      "stateMutability": "nonpayable",
      "type": "constructor"
    }
  ],
  "bytecode": "0x6060604052341561000f57600080fd5b336000806101000a81548173ffffffffffffffffffffffffffffffffffffffff021916908373ffffffffffffffffffffffffffffffffffffffff1602179055506000600181905550610478806100666000396000f30060606040526004361061006d576000357c0100000000000000000000000000000000000000000000000000000000900463ffffffff1680635d4091af146100725780635fdde5c2146100a2578063673402e5146101075780638da5cb5b14610130578063a3554eba14610185575b600080fd5b341561007d57600080fd5b6100a06004808035600019169060200190919080359060200190919050506101fe565b005b34156100ad57600080fd5b6100b56102e3565b60405180806020018281038252838181518152602001915080516000925b818410156100f657828490602001906020020151815260200192600101926100d3565b925050509250505060405180910390f35b341561011257600080fd5b61011a6102f1565b6040518082815260200191505060405180910390f35b341561013b57600080fd5b6101436102f7565b604051808273ffffffffffffffffffffffffffffffffffffffff1673ffffffffffffffffffffffffffffffffffffffff16815260200191505060405180910390f35b341561019057600080fd5b6101a6600480803590602001909190505061031c565b6040518084600019166000191681526020018373ffffffffffffffffffffffffffffffffffffffff1673ffffffffffffffffffffffffffffffffffffffff168152602001828152602001935050505060405180910390f35b6000610208610375565b339150600280549050600181905550606060405190810160405280856000191681526020018373ffffffffffffffffffffffffffffffffffffffff1681526020018481525090506002805480600101828161026391906103b0565b916000526020600020906003020160008390919091506000820151816000019060001916905560208201518160010160006101000a81548173ffffffffffffffffffffffffffffffffffffffff021916908373ffffffffffffffffffffffffffffffffffffffff1602179055506040820151816002015550505050505050565b6102eb6103e2565b80905090565b60015481565b6000809054906101000a900473ffffffffffffffffffffffffffffffffffffffff1681565b60028181548110151561032b57fe5b90600052602060002090600302016000915090508060000154908060010160009054906101000a900473ffffffffffffffffffffffffffffffffffffffff16908060020154905083565b60606040519081016040528060008019168152602001600073ffffffffffffffffffffffffffffffffffffffff168152602001600081525090565b8154818355818115116103dd576003028160030283600052602060002091820191016103dc91906103f6565b5b505050565b602060405190810160405280600081525090565b61044991905b80821115610445576000808201600090556001820160006101000a81549073ffffffffffffffffffffffffffffffffffffffff02191690556002820160009055506003016103fc565b5090565b905600a165627a7a723058202c2fb502ab3886af237ebdbdf76205bf526260f5f0d820c3282949039fadfd530029",
  "source": "pragma solidity ^0.4.15;\n\nimport './Renter.sol';\nimport './Owner.sol';\nimport './Transaction.sol';\nimport './Request.sol';\nimport './Rentpayment.sol';\nimport './Rentdeposit.sol';\n\ncontract Marketplace {\n    address public owner;\n    uint public temp;\n    Item[] public itemlist;\n\tRenter rentstruct;\n\tOwner ownstruct;\n\tTransaction tstruct;\n\tRequest rstruct;\n\tRentpayment rpstruct;\n\tRentdeposit rdstruct;\n\n    struct Item {\n\t\tbytes32 name;\n\t\taddress owner;\n\t\tuint price;\n\t}\n\n    function Marketplace() {\n        //initial constructor\n        owner = msg.sender;\n        //Item[] memory itemlist = new Item[](1);\n        temp = 0;\n    }\n\n    function upLoad(bytes32 name, uint price) {\n        //owner upload items to marketplace contract\n        address owner = msg.sender;\n        temp = itemlist.length;\n        Item memory uitem = Item(name, owner, price);\n        itemlist.push(uitem);\n    }\n\n    function lookingUp() returns (Item[] itemlist) {\n        //potential renter can lookup what is on the marketplace\n        return itemlist;\n    }\n    \n}\n",
  "sourcePath": "/Users/kwanhongyap/Desktop/Crypto_final/contracts/Marketplace.sol",
  "compiler": {
    "name": "solc",
    "version": "0.4.18+commit.9cf6e910.Emscripten.clang"
  },
  "schemaVersion": "1.0.1",
  "updatedAt": "2017-11-27T03:21:16.542Z"
}