{
  "contractName": "Owner",
  "abi": [
    {
      "constant": false,
      "inputs": [
        {
          "name": "renter",
          "type": "address"
        },
        {
          "name": "index",
          "type": "uint256"
        }
      ],
      "name": "pricerequest",
      "outputs": [
        {
          "name": "",
          "type": "uint256"
        }
      ],
      "payable": false,
      "stateMutability": "nonpayable",
      "type": "function"
    },
    {
      "constant": false,
      "inputs": [
        {
          "name": "renter",
          "type": "address"
        },
        {
          "name": "name",
          "type": "string"
        },
        {
          "name": "owner",
          "type": "address"
        },
        {
          "name": "price",
          "type": "uint256"
        },
        {
          "name": "fee",
          "type": "uint256"
        }
      ],
      "name": "requesting2",
      "outputs": [],
      "payable": false,
      "stateMutability": "nonpayable",
      "type": "function"
    },
    {
      "constant": false,
      "inputs": [
        {
          "name": "owner",
          "type": "address"
        },
        {
          "name": "index",
          "type": "uint256"
        }
      ],
      "name": "pricerequest2",
      "outputs": [
        {
          "name": "",
          "type": "uint256"
        }
      ],
      "payable": false,
      "stateMutability": "nonpayable",
      "type": "function"
    },
    {
      "constant": false,
      "inputs": [
        {
          "name": "renter",
          "type": "address"
        },
        {
          "name": "name",
          "type": "string"
        },
        {
          "name": "owner",
          "type": "address"
        },
        {
          "name": "price",
          "type": "uint256"
        }
      ],
      "name": "requesting",
      "outputs": [],
      "payable": false,
      "stateMutability": "nonpayable",
      "type": "function"
    },
    {
      "constant": true,
      "inputs": [
        {
          "name": "",
          "type": "address"
        },
        {
          "name": "",
          "type": "uint256"
        }
      ],
      "name": "requests2",
      "outputs": [
        {
          "name": "renter",
          "type": "address"
        },
        {
          "name": "name",
          "type": "string"
        },
        {
          "name": "owner",
          "type": "address"
        },
        {
          "name": "price",
          "type": "uint256"
        },
        {
          "name": "fee",
          "type": "uint256"
        }
      ],
      "payable": false,
      "stateMutability": "view",
      "type": "function"
    },
    {
      "constant": false,
      "inputs": [
        {
          "name": "renter",
          "type": "address"
        },
        {
          "name": "name",
          "type": "string"
        },
        {
          "name": "owner",
          "type": "address"
        },
        {
          "name": "price",
          "type": "uint256"
        },
        {
          "name": "rfee",
          "type": "uint256"
        }
      ],
      "name": "rentdeposit",
      "outputs": [],
      "payable": false,
      "stateMutability": "nonpayable",
      "type": "function"
    },
    {
      "constant": true,
      "inputs": [],
      "name": "lengthtemp",
      "outputs": [
        {
          "name": "",
          "type": "uint256"
        }
      ],
      "payable": false,
      "stateMutability": "view",
      "type": "function"
    },
    {
      "constant": false,
      "inputs": [
        {
          "name": "renter",
          "type": "address"
        },
        {
          "name": "index",
          "type": "uint256"
        }
      ],
      "name": "namerequest",
      "outputs": [
        {
          "name": "",
          "type": "string"
        }
      ],
      "payable": false,
      "stateMutability": "nonpayable",
      "type": "function"
    },
    {
      "constant": false,
      "inputs": [
        {
          "name": "owner",
          "type": "address"
        },
        {
          "name": "index",
          "type": "uint256"
        }
      ],
      "name": "rentfee",
      "outputs": [
        {
          "name": "",
          "type": "uint256"
        }
      ],
      "payable": false,
      "stateMutability": "nonpayable",
      "type": "function"
    },
    {
      "constant": false,
      "inputs": [
        {
          "name": "renter",
          "type": "address"
        },
        {
          "name": "name",
          "type": "string"
        },
        {
          "name": "owner",
          "type": "address"
        },
        {
          "name": "price",
          "type": "uint256"
        },
        {
          "name": "rfee",
          "type": "uint256"
        },
        {
          "name": "ofee",
          "type": "uint256"
        }
      ],
      "name": "transacting",
      "outputs": [],
      "payable": false,
      "stateMutability": "nonpayable",
      "type": "function"
    },
    {
      "constant": false,
      "inputs": [
        {
          "name": "renter",
          "type": "address"
        },
        {
          "name": "index",
          "type": "uint256"
        }
      ],
      "name": "addressrequest",
      "outputs": [
        {
          "name": "",
          "type": "address"
        }
      ],
      "payable": false,
      "stateMutability": "nonpayable",
      "type": "function"
    },
    {
      "constant": true,
      "inputs": [
        {
          "name": "",
          "type": "address"
        },
        {
          "name": "",
          "type": "uint256"
        }
      ],
      "name": "odeposit",
      "outputs": [
        {
          "name": "renter",
          "type": "address"
        },
        {
          "name": "name",
          "type": "string"
        },
        {
          "name": "owner",
          "type": "address"
        },
        {
          "name": "price",
          "type": "uint256"
        },
        {
          "name": "rfee",
          "type": "uint256"
        }
      ],
      "payable": false,
      "stateMutability": "view",
      "type": "function"
    },
    {
      "constant": true,
      "inputs": [
        {
          "name": "",
          "type": "address"
        },
        {
          "name": "",
          "type": "uint256"
        }
      ],
      "name": "requests",
      "outputs": [
        {
          "name": "name",
          "type": "string"
        },
        {
          "name": "owner",
          "type": "address"
        },
        {
          "name": "price",
          "type": "uint256"
        }
      ],
      "payable": false,
      "stateMutability": "view",
      "type": "function"
    },
    {
      "constant": true,
      "inputs": [
        {
          "name": "",
          "type": "address"
        },
        {
          "name": "",
          "type": "uint256"
        }
      ],
      "name": "transacts",
      "outputs": [
        {
          "name": "renter",
          "type": "address"
        },
        {
          "name": "name",
          "type": "string"
        },
        {
          "name": "owner",
          "type": "address"
        },
        {
          "name": "price",
          "type": "uint256"
        },
        {
          "name": "rfee",
          "type": "uint256"
        },
        {
          "name": "ofee",
          "type": "uint256"
        }
      ],
      "payable": false,
      "stateMutability": "view",
      "type": "function"
    },
    {
      "constant": false,
      "inputs": [
        {
          "name": "owner",
          "type": "address"
        },
        {
          "name": "index",
          "type": "uint256"
        }
      ],
      "name": "addressrequest2",
      "outputs": [
        {
          "name": "",
          "type": "address"
        }
      ],
      "payable": false,
      "stateMutability": "nonpayable",
      "type": "function"
    },
    {
      "constant": false,
      "inputs": [
        {
          "name": "owner",
          "type": "address"
        },
        {
          "name": "index",
          "type": "uint256"
        }
      ],
      "name": "pricetransact",
      "outputs": [
        {
          "name": "",
          "type": "uint256"
        }
      ],
      "payable": false,
      "stateMutability": "nonpayable",
      "type": "function"
    },
    {
      "constant": false,
      "inputs": [
        {
          "name": "owner",
          "type": "address"
        },
        {
          "name": "index",
          "type": "uint256"
        }
      ],
      "name": "namerequest2",
      "outputs": [
        {
          "name": "",
          "type": "string"
        }
      ],
      "payable": false,
      "stateMutability": "nonpayable",
      "type": "function"
    },
    {
      "constant": true,
      "inputs": [],
      "name": "templength",
      "outputs": [
        {
          "name": "",
          "type": "uint256"
        }
      ],
      "payable": false,
      "stateMutability": "view",
      "type": "function"
    },
    {
      "inputs": [],
      "payable": false,
      "stateMutability": "nonpayable",
      "type": "constructor"
    }
  ],
  "bytecode": "0x6060604052341561000f57600080fd5b60006004819055506000600381905550611e5b8061002e6000396000f3006060604052600436106100fc576000357c0100000000000000000000000000000000000000000000000000000000900463ffffffff16806313725088146101015780631fa6ef4d146101575780632623f2be1461020457806353f23a921461025a5780635ca41469146102fe578063631ebc871461044a578063759fa999146104f75780638a4887cf146105205780638e26a302146105db5780638ee34750146106315780639b19d394146106e75780639b7165f7146107695780639ecebe2a146108b5578063a4748845146109c7578063bea372df14610b1a578063cae08ddc14610b9c578063e65986b114610bf2578063f15eba1714610cad575b600080fd5b341561010c57600080fd5b610141600480803573ffffffffffffffffffffffffffffffffffffffff16906020019091908035906020019091905050610cd6565b6040518082815260200191505060405180910390f35b341561016257600080fd5b610202600480803573ffffffffffffffffffffffffffffffffffffffff1690602001909190803590602001908201803590602001908080601f0160208091040260200160405190810160405280939291908181526020018383808284378201915050505050509190803573ffffffffffffffffffffffffffffffffffffffff16906020019091908035906020019091908035906020019091905050610d4b565b005b341561020f57600080fd5b610244600480803573ffffffffffffffffffffffffffffffffffffffff16906020019091908035906020019091905050610f17565b6040518082815260200191505060405180910390f35b341561026557600080fd5b6102fc600480803573ffffffffffffffffffffffffffffffffffffffff1690602001909190803590602001908201803590602001908080601f0160208091040260200160405190810160405280939291908181526020018383808284378201915050505050509190803573ffffffffffffffffffffffffffffffffffffffff16906020019091908035906020019091905050610f8c565b005b341561030957600080fd5b61033e600480803573ffffffffffffffffffffffffffffffffffffffff169060200190919080359060200190919050506110e4565b604051808673ffffffffffffffffffffffffffffffffffffffff1673ffffffffffffffffffffffffffffffffffffffff168152602001806020018573ffffffffffffffffffffffffffffffffffffffff1673ffffffffffffffffffffffffffffffffffffffff1681526020018481526020018381526020018281038252868181546001816001161561010002031660029004815260200191508054600181600116156101000203166002900480156104375780601f1061040c57610100808354040283529160200191610437565b820191906000526020600020905b81548152906001019060200180831161041a57829003601f168201915b5050965050505050505060405180910390f35b341561045557600080fd5b6104f5600480803573ffffffffffffffffffffffffffffffffffffffff1690602001909190803590602001908201803590602001908080601f0160208091040260200160405190810160405280939291908181526020018383808284378201915050505050509190803573ffffffffffffffffffffffffffffffffffffffff16906020019091908035906020019091908035906020019091905050611175565b005b341561050257600080fd5b61050a6112f8565b6040518082815260200191505060405180910390f35b341561052b57600080fd5b610560600480803573ffffffffffffffffffffffffffffffffffffffff169060200190919080359060200190919050506112fe565b6040518080602001828103825283818151815260200191508051906020019080838360005b838110156105a0578082015181840152602081019050610585565b50505050905090810190601f1680156105cd5780820380516001836020036101000a031916815260200191505b509250505060405180910390f35b34156105e657600080fd5b61061b600480803573ffffffffffffffffffffffffffffffffffffffff16906020019091908035906020019091905050611412565b6040518082815260200191505060405180910390f35b341561063c57600080fd5b6106e5600480803573ffffffffffffffffffffffffffffffffffffffff1690602001909190803590602001908201803590602001908080601f0160208091040260200160405190810160405280939291908181526020018383808284378201915050505050509190803573ffffffffffffffffffffffffffffffffffffffff1690602001909190803590602001909190803590602001909190803590602001909190505061147f565b005b34156106f257600080fd5b610727600480803573ffffffffffffffffffffffffffffffffffffffff16906020019091908035906020019091905050611613565b604051808273ffffffffffffffffffffffffffffffffffffffff1673ffffffffffffffffffffffffffffffffffffffff16815260200191505060405180910390f35b341561077457600080fd5b6107a9600480803573ffffffffffffffffffffffffffffffffffffffff169060200190919080359060200190919050506116a8565b604051808673ffffffffffffffffffffffffffffffffffffffff1673ffffffffffffffffffffffffffffffffffffffff168152602001806020018573ffffffffffffffffffffffffffffffffffffffff1673ffffffffffffffffffffffffffffffffffffffff1681526020018481526020018381526020018281038252868181546001816001161561010002031660029004815260200191508054600181600116156101000203166002900480156108a25780601f10610877576101008083540402835291602001916108a2565b820191906000526020600020905b81548152906001019060200180831161088557829003601f168201915b5050965050505050505060405180910390f35b34156108c057600080fd5b6108f5600480803573ffffffffffffffffffffffffffffffffffffffff16906020019091908035906020019091905050611739565b60405180806020018473ffffffffffffffffffffffffffffffffffffffff1673ffffffffffffffffffffffffffffffffffffffff1681526020018381526020018281038252858181546001816001161561010002031660029004815260200191508054600181600116156101000203166002900480156109b65780601f1061098b576101008083540402835291602001916109b6565b820191906000526020600020905b81548152906001019060200180831161099957829003601f168201915b505094505050505060405180910390f35b34156109d257600080fd5b610a07600480803573ffffffffffffffffffffffffffffffffffffffff1690602001909190803590602001909190505061179e565b604051808773ffffffffffffffffffffffffffffffffffffffff1673ffffffffffffffffffffffffffffffffffffffff168152602001806020018673ffffffffffffffffffffffffffffffffffffffff1673ffffffffffffffffffffffffffffffffffffffff168152602001858152602001848152602001838152602001828103825287818154600181600116156101000203166002900481526020019150805460018160011615610100020316600290048015610b065780601f10610adb57610100808354040283529160200191610b06565b820191906000526020600020905b815481529060010190602001808311610ae957829003601f168201915b505097505050505050505060405180910390f35b3415610b2557600080fd5b610b5a600480803573ffffffffffffffffffffffffffffffffffffffff16906020019091908035906020019091905050611835565b604051808273ffffffffffffffffffffffffffffffffffffffff1673ffffffffffffffffffffffffffffffffffffffff16815260200191505060405180910390f35b3415610ba757600080fd5b610bdc600480803573ffffffffffffffffffffffffffffffffffffffff169060200190919080359060200190919050506118ca565b6040518082815260200191505060405180910390f35b3415610bfd57600080fd5b610c32600480803573ffffffffffffffffffffffffffffffffffffffff1690602001909190803590602001909190505061193f565b6040518080602001828103825283818151815260200191508051906020019080838360005b83811015610c72578082015181840152602081019050610c57565b50505050905090810190601f168015610c9f5780820380516001836020036101000a031916815260200191505b509250505060405180910390f35b3415610cb857600080fd5b610cc0611a53565b6040518082815260200191505060405180910390f35b600080600560008573ffffffffffffffffffffffffffffffffffffffff1673ffffffffffffffffffffffffffffffffffffffff16815260200190815260200160002083815481101515610d2557fe5b906000526020600020906003020190506001600381905550806002015491505092915050565b600660008473ffffffffffffffffffffffffffffffffffffffff1673ffffffffffffffffffffffffffffffffffffffff1681526020019081526020016000208054806001018281610d9c9190611a59565b9160005260206000209060050201600060a0604051908101604052808973ffffffffffffffffffffffffffffffffffffffff1681526020018881526020018773ffffffffffffffffffffffffffffffffffffffff16815260200186815260200185815250909190915060008201518160000160006101000a81548173ffffffffffffffffffffffffffffffffffffffff021916908373ffffffffffffffffffffffffffffffffffffffff1602179055506020820151816001019080519060200190610e68929190611a8b565b5060408201518160020160006101000a81548173ffffffffffffffffffffffffffffffffffffffff021916908373ffffffffffffffffffffffffffffffffffffffff1602179055506060820151816003015560808201518160040155505050600560008473ffffffffffffffffffffffffffffffffffffffff1673ffffffffffffffffffffffffffffffffffffffff168152602001908152602001600020805490506004819055505050505050565b600080600660008573ffffffffffffffffffffffffffffffffffffffff1673ffffffffffffffffffffffffffffffffffffffff16815260200190815260200160002083815481101515610f6657fe5b906000526020600020906005020190506001600381905550806003015491505092915050565b600560008573ffffffffffffffffffffffffffffffffffffffff1673ffffffffffffffffffffffffffffffffffffffff1681526020019081526020016000208054806001018281610fdd9190611b0b565b916000526020600020906003020160006060604051908101604052808781526020018673ffffffffffffffffffffffffffffffffffffffff1681526020018581525090919091506000820151816000019080519060200190611040929190611a8b565b5060208201518160010160006101000a81548173ffffffffffffffffffffffffffffffffffffffff021916908373ffffffffffffffffffffffffffffffffffffffff16021790555060408201518160020155505050600560008573ffffffffffffffffffffffffffffffffffffffff1673ffffffffffffffffffffffffffffffffffffffff1681526020019081526020016000208054905060048190555050505050565b6006602052816000526040600020818154811015156110ff57fe5b9060005260206000209060050201600091509150508060000160009054906101000a900473ffffffffffffffffffffffffffffffffffffffff169080600101908060020160009054906101000a900473ffffffffffffffffffffffffffffffffffffffff16908060030154908060040154905085565b600860008473ffffffffffffffffffffffffffffffffffffffff1673ffffffffffffffffffffffffffffffffffffffff16815260200190815260200160002080548060010182816111c69190611b3d565b9160005260206000209060050201600060a0604051908101604052808973ffffffffffffffffffffffffffffffffffffffff1681526020018881526020018773ffffffffffffffffffffffffffffffffffffffff16815260200186815260200185815250909190915060008201518160000160006101000a81548173ffffffffffffffffffffffffffffffffffffffff021916908373ffffffffffffffffffffffffffffffffffffffff1602179055506020820151816001019080519060200190611292929190611a8b565b5060408201518160020160006101000a81548173ffffffffffffffffffffffffffffffffffffffff021916908373ffffffffffffffffffffffffffffffffffffffff16021790555060608201518160030155608082015181600401555050505050505050565b60035481565b611306611b6f565b6000600560008573ffffffffffffffffffffffffffffffffffffffff1673ffffffffffffffffffffffffffffffffffffffff1681526020019081526020016000208381548110151561135457fe5b906000526020600020906003020190506001600381905550806000018054600181600116156101000203166002900480601f0160208091040260200160405190810160405280929190818152602001828054600181600116156101000203166002900480156114045780601f106113d957610100808354040283529160200191611404565b820191906000526020600020905b8154815290600101906020018083116113e757829003601f168201915b505050505091505092915050565b600080600860008573ffffffffffffffffffffffffffffffffffffffff1673ffffffffffffffffffffffffffffffffffffffff1681526020019081526020016000208381548110151561146157fe5b90600052602060002090600502019050806004015491505092915050565b600760008573ffffffffffffffffffffffffffffffffffffffff1673ffffffffffffffffffffffffffffffffffffffff16815260200190815260200160002080548060010182816114d09190611b83565b9160005260206000209060060201600060c0604051908101604052808a73ffffffffffffffffffffffffffffffffffffffff1681526020018981526020018873ffffffffffffffffffffffffffffffffffffffff16815260200187815260200186815260200185815250909190915060008201518160000160006101000a81548173ffffffffffffffffffffffffffffffffffffffff021916908373ffffffffffffffffffffffffffffffffffffffff16021790555060208201518160010190805190602001906115a2929190611a8b565b5060408201518160020160006101000a81548173ffffffffffffffffffffffffffffffffffffffff021916908373ffffffffffffffffffffffffffffffffffffffff160217905550606082015181600301556080820151816004015560a08201518160050155505050505050505050565b600080600560008573ffffffffffffffffffffffffffffffffffffffff1673ffffffffffffffffffffffffffffffffffffffff1681526020019081526020016000208381548110151561166257fe5b9060005260206000209060030201905060016003819055508060010160009054906101000a900473ffffffffffffffffffffffffffffffffffffffff1691505092915050565b6008602052816000526040600020818154811015156116c357fe5b9060005260206000209060050201600091509150508060000160009054906101000a900473ffffffffffffffffffffffffffffffffffffffff169080600101908060020160009054906101000a900473ffffffffffffffffffffffffffffffffffffffff16908060030154908060040154905085565b60056020528160005260406000208181548110151561175457fe5b90600052602060002090600302016000915091505080600001908060010160009054906101000a900473ffffffffffffffffffffffffffffffffffffffff16908060020154905083565b6007602052816000526040600020818154811015156117b957fe5b9060005260206000209060060201600091509150508060000160009054906101000a900473ffffffffffffffffffffffffffffffffffffffff169080600101908060020160009054906101000a900473ffffffffffffffffffffffffffffffffffffffff16908060030154908060040154908060050154905086565b600080600660008573ffffffffffffffffffffffffffffffffffffffff1673ffffffffffffffffffffffffffffffffffffffff1681526020019081526020016000208381548110151561188457fe5b9060005260206000209060050201905060016003819055508060000160009054906101000a900473ffffffffffffffffffffffffffffffffffffffff1691505092915050565b600080600760008573ffffffffffffffffffffffffffffffffffffffff1673ffffffffffffffffffffffffffffffffffffffff1681526020019081526020016000208381548110151561191957fe5b906000526020600020906006020190506001600381905550806003015491505092915050565b611947611b6f565b6000600660008573ffffffffffffffffffffffffffffffffffffffff1673ffffffffffffffffffffffffffffffffffffffff1681526020019081526020016000208381548110151561199557fe5b906000526020600020906005020190506001600381905550806001018054600181600116156101000203166002900480601f016020809104026020016040519081016040528092919081815260200182805460018160011615610100020316600290048015611a455780601f10611a1a57610100808354040283529160200191611a45565b820191906000526020600020905b815481529060010190602001808311611a2857829003601f168201915b505050505091505092915050565b60045481565b815481835581811511611a8657600502816005028360005260206000209182019101611a859190611bb5565b5b505050565b828054600181600116156101000203166002900490600052602060002090601f016020900481019282601f10611acc57805160ff1916838001178555611afa565b82800160010185558215611afa579182015b82811115611af9578251825591602001919060010190611ade565b5b509050611b079190611c42565b5090565b815481835581811511611b3857600302816003028360005260206000209182019101611b379190611c67565b5b505050565b815481835581811511611b6a57600502816005028360005260206000209182019101611b699190611cc5565b5b505050565b602060405190810160405280600081525090565b815481835581811511611bb057600602816006028360005260206000209182019101611baf9190611d52565b5b505050565b611c3f91905b80821115611c3b57600080820160006101000a81549073ffffffffffffffffffffffffffffffffffffffff0219169055600182016000611bfb9190611de7565b6002820160006101000a81549073ffffffffffffffffffffffffffffffffffffffff02191690556003820160009055600482016000905550600501611bbb565b5090565b90565b611c6491905b80821115611c60576000816000905550600101611c48565b5090565b90565b611cc291905b80821115611cbe5760008082016000611c869190611de7565b6001820160006101000a81549073ffffffffffffffffffffffffffffffffffffffff0219169055600282016000905550600301611c6d565b5090565b90565b611d4f91905b80821115611d4b57600080820160006101000a81549073ffffffffffffffffffffffffffffffffffffffff0219169055600182016000611d0b9190611de7565b6002820160006101000a81549073ffffffffffffffffffffffffffffffffffffffff02191690556003820160009055600482016000905550600501611ccb565b5090565b90565b611de491905b80821115611de057600080820160006101000a81549073ffffffffffffffffffffffffffffffffffffffff0219169055600182016000611d989190611de7565b6002820160006101000a81549073ffffffffffffffffffffffffffffffffffffffff021916905560038201600090556004820160009055600582016000905550600601611d58565b5090565b90565b50805460018160011615610100020316600290046000825580601f10611e0d5750611e2c565b601f016020900490600052602060002090810190611e2b9190611c42565b5b505600a165627a7a7230582026950d958f484b44635fdebcfcbbbbf8d63110d67110ced56a11559c02deb5e30029",
  "source": "pragma solidity ^0.4.15;\n\ncontract Owner {\n    Item item;\n    uint public lengthtemp;\n    uint public templength;\n    mapping(address => Item[]) public  requests;\n    mapping(address => Orequest[]) public  requests2;\n    mapping(address => Transact[]) public transacts;\n    mapping(address => Odeposit[]) public odeposit;\n\n    struct Transact {\n        address renter;\n        string name;\n        address owner;\n        uint price;\n        uint rfee;\n        uint ofee;\n    }\n\n    struct Odeposit {\n        address renter;\n        string name;\n        address owner;\n        uint price;\n        uint rfee;\n    }\n\n    struct Item {\n\t\tstring name;\n\t\taddress owner;\n\t\tuint price;\n\t}\n\n    struct Orequest {\n        address renter;\n        string name;\n        address owner;\n        uint price;\n        uint fee;\n    }\n\n    function Owner() public {\n        templength = 0;\n        lengthtemp = 0;\n    }\n\n    function requesting2(address renter, string name, address owner, uint price, uint fee) public {\n        requests2[owner].push(Orequest(renter, name, owner, price, fee));\n        templength = requests[owner].length;\n    }\n\n    function requesting(address renter, string name, address owner, uint price) public {\n        requests[renter].push(Item(name, owner, price));\n        templength = requests[renter].length;\n    }\n\n    function namerequest(address renter, uint index) public returns (string) {\n        Item retval = requests[renter][index];\n        lengthtemp = 1;\n        return retval.name;\n    }\n\n    function namerequest2(address owner, uint index) public returns (string) {\n        Orequest retval = requests2[owner][index];\n        lengthtemp = 1;\n        return retval.name;\n    }\n\n    function addressrequest2(address owner, uint index) public returns (address) {\n        Orequest retval = requests2[owner][index];\n        lengthtemp = 1;\n        return retval.renter;\n    }\n\n    function addressrequest(address renter, uint index) public returns (address) {\n        Item retval = requests[renter][index];\n        lengthtemp = 1;\n        return retval.owner;\n    }\n\n    function pricerequest(address renter, uint index) public returns (uint) {\n        Item retval = requests[renter][index];\n        lengthtemp = 1;\n        return retval.price;\n    }\n\n    function pricerequest2(address owner, uint index) public returns (uint) {\n        Orequest retval = requests2[owner][index];\n        lengthtemp = 1;\n        return retval.price;\n    }\n\n    function transacting(address renter, string name, address owner, uint price, uint rfee, uint ofee) public {\n        transacts[owner].push(Transact(renter, name, owner, price, rfee, ofee));    \n    }\n\n    function pricetransact(address owner, uint index) public returns (uint) {\n        Transact retval = transacts[owner][index];\n        lengthtemp = 1;\n        return retval.price;\n    }\n\n    function rentdeposit(address renter, string name, address owner, uint price, uint rfee) public {\n        odeposit[owner].push(Odeposit(renter, name, owner, price, rfee));\n    }\n\n    function rentfee(address owner, uint index) public returns (uint) {\n        Odeposit retval = odeposit[owner][index];\n        return retval.rfee;\n    }\n\n\n}\n\n\n\n\n\t",
  "sourcePath": "/Users/kwanhongyap/Desktop/Crypto_final/contracts/Owner.sol",
  "compiler": {
    "name": "solc",
    "version": "0.4.18+commit.9cf6e910.Emscripten.clang"
  },
  "schemaVersion": "1.0.1",
  "updatedAt": "2017-11-28T00:26:17.377Z"
}