{
  "contractName": "Owner",
  "abi": [
    {
      "constant": false,
      "inputs": [
        {
          "name": "owner",
          "type": "address"
        },
        {
          "name": "index",
          "type": "uint256"
        }
      ],
      "name": "statussSet3",
      "outputs": [],
      "payable": false,
      "stateMutability": "nonpayable",
      "type": "function"
    },
    {
      "constant": false,
      "inputs": [
        {
          "name": "owner",
          "type": "address"
        },
        {
          "name": "index",
          "type": "uint256"
        }
      ],
      "name": "commitfeesCheck",
      "outputs": [
        {
          "name": "",
          "type": "uint256"
        }
      ],
      "payable": false,
      "stateMutability": "nonpayable",
      "type": "function"
    },
    {
      "constant": false,
      "inputs": [
        {
          "name": "owner",
          "type": "address"
        },
        {
          "name": "index",
          "type": "uint256"
        },
        {
          "name": "ohash",
          "type": "bytes32"
        },
        {
          "name": "ohash2",
          "type": "bytes32"
        }
      ],
      "name": "acknowledge",
      "outputs": [],
      "payable": false,
      "stateMutability": "nonpayable",
      "type": "function"
    },
    {
      "constant": false,
      "inputs": [
        {
          "name": "owner",
          "type": "address"
        },
        {
          "name": "index",
          "type": "uint256"
        }
      ],
      "name": "rentpricesCheck",
      "outputs": [
        {
          "name": "",
          "type": "uint256"
        }
      ],
      "payable": false,
      "stateMutability": "nonpayable",
      "type": "function"
    },
    {
      "constant": false,
      "inputs": [
        {
          "name": "owner",
          "type": "address"
        },
        {
          "name": "index",
          "type": "uint256"
        }
      ],
      "name": "nowsCheck",
      "outputs": [
        {
          "name": "",
          "type": "uint256"
        }
      ],
      "payable": false,
      "stateMutability": "nonpayable",
      "type": "function"
    },
    {
      "constant": false,
      "inputs": [
        {
          "name": "owner",
          "type": "address"
        },
        {
          "name": "index",
          "type": "uint256"
        }
      ],
      "name": "ohashingsCheck",
      "outputs": [
        {
          "name": "",
          "type": "bytes32"
        }
      ],
      "payable": false,
      "stateMutability": "nonpayable",
      "type": "function"
    },
    {
      "constant": true,
      "inputs": [
        {
          "name": "",
          "type": "address"
        },
        {
          "name": "",
          "type": "uint256"
        }
      ],
      "name": "statuss",
      "outputs": [
        {
          "name": "",
          "type": "uint256"
        }
      ],
      "payable": false,
      "stateMutability": "view",
      "type": "function"
    },
    {
      "constant": true,
      "inputs": [
        {
          "name": "",
          "type": "address"
        },
        {
          "name": "",
          "type": "uint256"
        }
      ],
      "name": "rentdurations",
      "outputs": [
        {
          "name": "",
          "type": "uint256"
        }
      ],
      "payable": false,
      "stateMutability": "view",
      "type": "function"
    },
    {
      "constant": true,
      "inputs": [
        {
          "name": "",
          "type": "address"
        },
        {
          "name": "",
          "type": "uint256"
        }
      ],
      "name": "rentprices",
      "outputs": [
        {
          "name": "",
          "type": "uint256"
        }
      ],
      "payable": false,
      "stateMutability": "view",
      "type": "function"
    },
    {
      "constant": false,
      "inputs": [
        {
          "name": "owner",
          "type": "address"
        },
        {
          "name": "index",
          "type": "uint256"
        }
      ],
      "name": "rhashingsCheck",
      "outputs": [
        {
          "name": "",
          "type": "bytes32"
        }
      ],
      "payable": false,
      "stateMutability": "nonpayable",
      "type": "function"
    },
    {
      "constant": true,
      "inputs": [
        {
          "name": "",
          "type": "address"
        },
        {
          "name": "",
          "type": "uint256"
        }
      ],
      "name": "items",
      "outputs": [
        {
          "name": "",
          "type": "uint256"
        }
      ],
      "payable": false,
      "stateMutability": "view",
      "type": "function"
    },
    {
      "constant": true,
      "inputs": [
        {
          "name": "",
          "type": "address"
        },
        {
          "name": "",
          "type": "uint256"
        }
      ],
      "name": "ohashings",
      "outputs": [
        {
          "name": "",
          "type": "bytes32"
        }
      ],
      "payable": false,
      "stateMutability": "view",
      "type": "function"
    },
    {
      "constant": false,
      "inputs": [
        {
          "name": "owner",
          "type": "address"
        },
        {
          "name": "item",
          "type": "uint256"
        }
      ],
      "name": "indexBool",
      "outputs": [
        {
          "name": "",
          "type": "bool"
        },
        {
          "name": "",
          "type": "uint256"
        }
      ],
      "payable": false,
      "stateMutability": "nonpayable",
      "type": "function"
    },
    {
      "constant": false,
      "inputs": [
        {
          "name": "renter",
          "type": "address"
        },
        {
          "name": "item",
          "type": "uint256"
        },
        {
          "name": "price",
          "type": "uint256"
        },
        {
          "name": "owner",
          "type": "address"
        }
      ],
      "name": "request",
      "outputs": [],
      "payable": false,
      "stateMutability": "nonpayable",
      "type": "function"
    },
    {
      "constant": false,
      "inputs": [
        {
          "name": "owner",
          "type": "address"
        },
        {
          "name": "index",
          "type": "uint256"
        },
        {
          "name": "time",
          "type": "uint256"
        }
      ],
      "name": "previousSet",
      "outputs": [],
      "payable": false,
      "stateMutability": "nonpayable",
      "type": "function"
    },
    {
      "constant": false,
      "inputs": [
        {
          "name": "owner",
          "type": "address"
        },
        {
          "name": "index",
          "type": "uint256"
        }
      ],
      "name": "statussSet0",
      "outputs": [],
      "payable": false,
      "stateMutability": "nonpayable",
      "type": "function"
    },
    {
      "constant": false,
      "inputs": [
        {
          "name": "owner",
          "type": "address"
        },
        {
          "name": "index",
          "type": "uint256"
        }
      ],
      "name": "itemsCheck",
      "outputs": [
        {
          "name": "",
          "type": "uint256"
        }
      ],
      "payable": false,
      "stateMutability": "nonpayable",
      "type": "function"
    },
    {
      "constant": true,
      "inputs": [
        {
          "name": "",
          "type": "address"
        },
        {
          "name": "",
          "type": "uint256"
        }
      ],
      "name": "prices",
      "outputs": [
        {
          "name": "",
          "type": "uint256"
        }
      ],
      "payable": false,
      "stateMutability": "view",
      "type": "function"
    },
    {
      "constant": true,
      "inputs": [
        {
          "name": "",
          "type": "address"
        },
        {
          "name": "",
          "type": "uint256"
        }
      ],
      "name": "nows",
      "outputs": [
        {
          "name": "",
          "type": "uint256"
        }
      ],
      "payable": false,
      "stateMutability": "view",
      "type": "function"
    },
    {
      "constant": false,
      "inputs": [
        {
          "name": "owner",
          "type": "address"
        },
        {
          "name": "index",
          "type": "uint256"
        }
      ],
      "name": "statussCheck",
      "outputs": [
        {
          "name": "",
          "type": "uint256"
        }
      ],
      "payable": false,
      "stateMutability": "nonpayable",
      "type": "function"
    },
    {
      "constant": false,
      "inputs": [
        {
          "name": "owner",
          "type": "address"
        },
        {
          "name": "index",
          "type": "uint256"
        },
        {
          "name": "val",
          "type": "bool"
        }
      ],
      "name": "availableSet",
      "outputs": [],
      "payable": false,
      "stateMutability": "nonpayable",
      "type": "function"
    },
    {
      "constant": false,
      "inputs": [
        {
          "name": "owner",
          "type": "address"
        },
        {
          "name": "index",
          "type": "uint256"
        }
      ],
      "name": "indexCheck",
      "outputs": [
        {
          "name": "",
          "type": "bool"
        }
      ],
      "payable": false,
      "stateMutability": "nonpayable",
      "type": "function"
    },
    {
      "constant": false,
      "inputs": [
        {
          "name": "owner",
          "type": "address"
        },
        {
          "name": "index",
          "type": "uint256"
        }
      ],
      "name": "pricesCheck",
      "outputs": [
        {
          "name": "",
          "type": "uint256"
        }
      ],
      "payable": false,
      "stateMutability": "nonpayable",
      "type": "function"
    },
    {
      "constant": false,
      "inputs": [
        {
          "name": "owner",
          "type": "address"
        },
        {
          "name": "index",
          "type": "uint256"
        },
        {
          "name": "status",
          "type": "uint256"
        }
      ],
      "name": "statussSet",
      "outputs": [],
      "payable": false,
      "stateMutability": "nonpayable",
      "type": "function"
    },
    {
      "constant": false,
      "inputs": [
        {
          "name": "owner",
          "type": "address"
        },
        {
          "name": "index",
          "type": "uint256"
        }
      ],
      "name": "rentdurationsCheck",
      "outputs": [
        {
          "name": "",
          "type": "uint256"
        }
      ],
      "payable": false,
      "stateMutability": "nonpayable",
      "type": "function"
    },
    {
      "constant": true,
      "inputs": [
        {
          "name": "",
          "type": "address"
        },
        {
          "name": "",
          "type": "uint256"
        }
      ],
      "name": "renters",
      "outputs": [
        {
          "name": "",
          "type": "address"
        }
      ],
      "payable": false,
      "stateMutability": "view",
      "type": "function"
    },
    {
      "constant": false,
      "inputs": [
        {
          "name": "owner",
          "type": "address"
        },
        {
          "name": "index",
          "type": "uint256"
        }
      ],
      "name": "rentersCheck",
      "outputs": [
        {
          "name": "",
          "type": "address"
        }
      ],
      "payable": false,
      "stateMutability": "nonpayable",
      "type": "function"
    },
    {
      "constant": true,
      "inputs": [
        {
          "name": "",
          "type": "address"
        },
        {
          "name": "",
          "type": "uint256"
        }
      ],
      "name": "commitfees",
      "outputs": [
        {
          "name": "",
          "type": "uint256"
        }
      ],
      "payable": false,
      "stateMutability": "view",
      "type": "function"
    },
    {
      "constant": true,
      "inputs": [
        {
          "name": "",
          "type": "address"
        },
        {
          "name": "",
          "type": "uint256"
        }
      ],
      "name": "rhashings",
      "outputs": [
        {
          "name": "",
          "type": "bytes32"
        }
      ],
      "payable": false,
      "stateMutability": "view",
      "type": "function"
    },
    {
      "constant": true,
      "inputs": [
        {
          "name": "",
          "type": "address"
        },
        {
          "name": "",
          "type": "uint256"
        }
      ],
      "name": "available",
      "outputs": [
        {
          "name": "",
          "type": "bool"
        }
      ],
      "payable": false,
      "stateMutability": "view",
      "type": "function"
    },
    {
      "inputs": [],
      "payable": false,
      "stateMutability": "nonpayable",
      "type": "constructor"
    }
  ],
  "bytecode": "0x6060604052341561000f57600080fd5b611c3d8061001e6000396000f30060606040526004361061017f576000357c0100000000000000000000000000000000000000000000000000000000900463ffffffff1680621b796c14610184578063149a5f9e146101c65780631bd829e81461021c5780631cc0b92b14610278578063327ff26b146102ce57806333cea02e146103245780633b2e506514610382578063571258b1146103d857806357b74dbd1461042e57806359c98f8f146104845780635c80a435146104e257806389ddca511461053857806390caa7ad146105965780639193b2e3146105f757806392a5dd83146106615780639c05db29146106ac578063a3f1673b146106ee578063bbc492c014610744578063bd49aad41461079a578063c2ca1c74146107f0578063c67e718314610846578063d3c7d5af14610893578063d799a162146108ed578063dbe76c6214610943578063dc443e021461098e578063e6b4dd24146109e4578063e7d17fcf14610a66578063eaa1629414610ae8578063ebe92b1514610b3e578063f8724aba14610b9c575b600080fd5b341561018f57600080fd5b6101c4600480803573ffffffffffffffffffffffffffffffffffffffff16906020019091908035906020019091905050610bf6565b005b34156101d157600080fd5b610206600480803573ffffffffffffffffffffffffffffffffffffffff16906020019091908035906020019091905050610c57565b6040518082815260200191505060405180910390f35b341561022757600080fd5b610276600480803573ffffffffffffffffffffffffffffffffffffffff169060200190919080359060200190919080356000191690602001909190803560001916906020019091905050610cb9565b005b341561028357600080fd5b6102b8600480803573ffffffffffffffffffffffffffffffffffffffff16906020019091908035906020019091905050610e38565b6040518082815260200191505060405180910390f35b34156102d957600080fd5b61030e600480803573ffffffffffffffffffffffffffffffffffffffff16906020019091908035906020019091905050610e9a565b6040518082815260200191505060405180910390f35b341561032f57600080fd5b610364600480803573ffffffffffffffffffffffffffffffffffffffff16906020019091908035906020019091905050610efc565b60405180826000191660001916815260200191505060405180910390f35b341561038d57600080fd5b6103c2600480803573ffffffffffffffffffffffffffffffffffffffff16906020019091908035906020019091905050610f5e565b6040518082815260200191505060405180910390f35b34156103e357600080fd5b610418600480803573ffffffffffffffffffffffffffffffffffffffff16906020019091908035906020019091905050610f8f565b6040518082815260200191505060405180910390f35b341561043957600080fd5b61046e600480803573ffffffffffffffffffffffffffffffffffffffff16906020019091908035906020019091905050610fc0565b6040518082815260200191505060405180910390f35b341561048f57600080fd5b6104c4600480803573ffffffffffffffffffffffffffffffffffffffff16906020019091908035906020019091905050610ff1565b60405180826000191660001916815260200191505060405180910390f35b34156104ed57600080fd5b610522600480803573ffffffffffffffffffffffffffffffffffffffff16906020019091908035906020019091905050611053565b6040518082815260200191505060405180910390f35b341561054357600080fd5b610578600480803573ffffffffffffffffffffffffffffffffffffffff16906020019091908035906020019091905050611084565b60405180826000191660001916815260200191505060405180910390f35b34156105a157600080fd5b6105d6600480803573ffffffffffffffffffffffffffffffffffffffff169060200190919080359060200190919050506110b5565b60405180831515151581526020018281526020019250505060405180910390f35b341561060257600080fd5b61065f600480803573ffffffffffffffffffffffffffffffffffffffff1690602001909190803590602001909190803590602001909190803573ffffffffffffffffffffffffffffffffffffffff16906020019091905050611197565b005b341561066c57600080fd5b6106aa600480803573ffffffffffffffffffffffffffffffffffffffff16906020019091908035906020019091908035906020019091905050611534565b005b34156106b757600080fd5b6106ec600480803573ffffffffffffffffffffffffffffffffffffffff16906020019091908035906020019091905050611595565b005b34156106f957600080fd5b61072e600480803573ffffffffffffffffffffffffffffffffffffffff169060200190919080359060200190919050506115f6565b6040518082815260200191505060405180910390f35b341561074f57600080fd5b610784600480803573ffffffffffffffffffffffffffffffffffffffff16906020019091908035906020019091905050611657565b6040518082815260200191505060405180910390f35b34156107a557600080fd5b6107da600480803573ffffffffffffffffffffffffffffffffffffffff16906020019091908035906020019091905050611688565b6040518082815260200191505060405180910390f35b34156107fb57600080fd5b610830600480803573ffffffffffffffffffffffffffffffffffffffff169060200190919080359060200190919050506116b9565b6040518082815260200191505060405180910390f35b341561085157600080fd5b610891600480803573ffffffffffffffffffffffffffffffffffffffff16906020019091908035906020019091908035151590602001909190505061171b565b005b341561089e57600080fd5b6108d3600480803573ffffffffffffffffffffffffffffffffffffffff16906020019091908035906020019091905050611796565b604051808215151515815260200191505060405180910390f35b34156108f857600080fd5b61092d600480803573ffffffffffffffffffffffffffffffffffffffff16906020019091908035906020019091905050611870565b6040518082815260200191505060405180910390f35b341561094e57600080fd5b61098c600480803573ffffffffffffffffffffffffffffffffffffffff169060200190919080359060200190919080359060200190919050506118d2565b005b341561099957600080fd5b6109ce600480803573ffffffffffffffffffffffffffffffffffffffff16906020019091908035906020019091905050611933565b6040518082815260200191505060405180910390f35b34156109ef57600080fd5b610a24600480803573ffffffffffffffffffffffffffffffffffffffff16906020019091908035906020019091905050611995565b604051808273ffffffffffffffffffffffffffffffffffffffff1673ffffffffffffffffffffffffffffffffffffffff16815260200191505060405180910390f35b3415610a7157600080fd5b610aa6600480803573ffffffffffffffffffffffffffffffffffffffff169060200190919080359060200190919050506119e3565b604051808273ffffffffffffffffffffffffffffffffffffffff1673ffffffffffffffffffffffffffffffffffffffff16815260200191505060405180910390f35b3415610af357600080fd5b610b28600480803573ffffffffffffffffffffffffffffffffffffffff16906020019091908035906020019091905050611a65565b6040518082815260200191505060405180910390f35b3415610b4957600080fd5b610b7e600480803573ffffffffffffffffffffffffffffffffffffffff16906020019091908035906020019091905050611a96565b60405180826000191660001916815260200191505060405180910390f35b3415610ba757600080fd5b610bdc600480803573ffffffffffffffffffffffffffffffffffffffff16906020019091908035906020019091905050611ac7565b604051808215151515815260200191505060405180910390f35b6003600760008473ffffffffffffffffffffffffffffffffffffffff1673ffffffffffffffffffffffffffffffffffffffff16815260200190815260200160002082815481101515610c4457fe5b9060005260206000209001819055505050565b6000600460008473ffffffffffffffffffffffffffffffffffffffff1673ffffffffffffffffffffffffffffffffffffffff16815260200190815260200160002082815481101515610ca557fe5b906000526020600020900154905092915050565b42600660008673ffffffffffffffffffffffffffffffffffffffff1673ffffffffffffffffffffffffffffffffffffffff16815260200190815260200160002084815481101515610d0657fe5b9060005260206000209001819055506002600760008673ffffffffffffffffffffffffffffffffffffffff1673ffffffffffffffffffffffffffffffffffffffff16815260200190815260200160002084815481101515610d6357fe5b90600052602060002090018190555081600960008673ffffffffffffffffffffffffffffffffffffffff1673ffffffffffffffffffffffffffffffffffffffff16815260200190815260200160002084815481101515610dbf57fe5b9060005260206000209001816000191690555080600860008673ffffffffffffffffffffffffffffffffffffffff1673ffffffffffffffffffffffffffffffffffffffff16815260200190815260200160002084815481101515610e1f57fe5b9060005260206000209001816000191690555050505050565b6000600260008473ffffffffffffffffffffffffffffffffffffffff1673ffffffffffffffffffffffffffffffffffffffff16815260200190815260200160002082815481101515610e8657fe5b906000526020600020900154905092915050565b6000600660008473ffffffffffffffffffffffffffffffffffffffff1673ffffffffffffffffffffffffffffffffffffffff16815260200190815260200160002082815481101515610ee857fe5b906000526020600020900154905092915050565b6000600960008473ffffffffffffffffffffffffffffffffffffffff1673ffffffffffffffffffffffffffffffffffffffff16815260200190815260200160002082815481101515610f4a57fe5b906000526020600020900154905092915050565b600760205281600052604060002081815481101515610f7957fe5b9060005260206000209001600091509150505481565b600560205281600052604060002081815481101515610faa57fe5b9060005260206000209001600091509150505481565b600260205281600052604060002081815481101515610fdb57fe5b9060005260206000209001600091509150505481565b6000600860008473ffffffffffffffffffffffffffffffffffffffff1673ffffffffffffffffffffffffffffffffffffffff1681526020019081526020016000208281548110151561103f57fe5b906000526020600020900154905092915050565b60006020528160005260406000208181548110151561106e57fe5b9060005260206000209001600091509150505481565b60096020528160005260406000208181548110151561109f57fe5b9060005260206000209001600091509150505481565b6000806000806000808773ffffffffffffffffffffffffffffffffffffffff1673ffffffffffffffffffffffffffffffffffffffff168152602001908152602001600020805490509150600090505b8181101561118357846000808873ffffffffffffffffffffffffffffffffffffffff1673ffffffffffffffffffffffffffffffffffffffff1681526020019081526020016000208281548110151561115857fe5b9060005260206000209001541415611176576001819350935061118e565b8080600101915050611104565b600080809050935093505b50509250929050565b6000808273ffffffffffffffffffffffffffffffffffffffff1673ffffffffffffffffffffffffffffffffffffffff16815260200190815260200160002080548060010182816111e79190611b09565b916000526020600020900160008590919091505550600160008273ffffffffffffffffffffffffffffffffffffffff1673ffffffffffffffffffffffffffffffffffffffff168152602001908152602001600020805480600101828161124d9190611b09565b916000526020600020900160008490919091505550600360008273ffffffffffffffffffffffffffffffffffffffff1673ffffffffffffffffffffffffffffffffffffffff16815260200190815260200160002080548060010182816112b39190611b35565b9160005260206000209001600086909190916101000a81548173ffffffffffffffffffffffffffffffffffffffff021916908373ffffffffffffffffffffffffffffffffffffffff16021790555050600660008273ffffffffffffffffffffffffffffffffffffffff1673ffffffffffffffffffffffffffffffffffffffff16815260200190815260200160002080548060010182816113539190611b09565b916000526020600020900160004290919091505550600760008273ffffffffffffffffffffffffffffffffffffffff1673ffffffffffffffffffffffffffffffffffffffff16815260200190815260200160002080548060010182816113b99190611b09565b91600052602060002090016000600190919091505550600860008273ffffffffffffffffffffffffffffffffffffffff1673ffffffffffffffffffffffffffffffffffffffff16815260200190815260200160002080548060010182816114209190611b61565b916000526020600020900160008060010290919091509060001916905550600960008273ffffffffffffffffffffffffffffffffffffffff1673ffffffffffffffffffffffffffffffffffffffff168152602001908152602001600020805480600101828161148f9190611b61565b916000526020600020900160008060010290919091509060001916905550600a60008273ffffffffffffffffffffffffffffffffffffffff1673ffffffffffffffffffffffffffffffffffffffff16815260200190815260200160002080548060010182816114fe9190611b8d565b91600052602060002090602091828204019190066001909190916101000a81548160ff0219169083151502179055505050505050565b80600660008573ffffffffffffffffffffffffffffffffffffffff1673ffffffffffffffffffffffffffffffffffffffff1681526020019081526020016000208381548110151561158157fe5b906000526020600020900181905550505050565b6000600760008473ffffffffffffffffffffffffffffffffffffffff1673ffffffffffffffffffffffffffffffffffffffff168152602001908152602001600020828154811015156115e357fe5b9060005260206000209001819055505050565b60008060008473ffffffffffffffffffffffffffffffffffffffff1673ffffffffffffffffffffffffffffffffffffffff1681526020019081526020016000208281548110151561164357fe5b906000526020600020900154905092915050565b60016020528160005260406000208181548110151561167257fe5b9060005260206000209001600091509150505481565b6006602052816000526040600020818154811015156116a357fe5b9060005260206000209001600091509150505481565b6000600760008473ffffffffffffffffffffffffffffffffffffffff1673ffffffffffffffffffffffffffffffffffffffff1681526020019081526020016000208281548110151561170757fe5b906000526020600020900154905092915050565b80600a60008573ffffffffffffffffffffffffffffffffffffffff1673ffffffffffffffffffffffffffffffffffffffff1681526020019081526020016000208381548110151561176857fe5b90600052602060002090602091828204019190066101000a81548160ff021916908315150217905550505050565b60008060008473ffffffffffffffffffffffffffffffffffffffff1673ffffffffffffffffffffffffffffffffffffffff16815260200190815260200160002080549050821015156117eb576000905061186a565b600a60008473ffffffffffffffffffffffffffffffffffffffff1673ffffffffffffffffffffffffffffffffffffffff1681526020019081526020016000208281548110151561183757fe5b90600052602060002090602091828204019190069054906101000a900460ff1615611865576001905061186a565b600090505b92915050565b6000600160008473ffffffffffffffffffffffffffffffffffffffff1673ffffffffffffffffffffffffffffffffffffffff168152602001908152602001600020828154811015156118be57fe5b906000526020600020900154905092915050565b80600760008573ffffffffffffffffffffffffffffffffffffffff1673ffffffffffffffffffffffffffffffffffffffff1681526020019081526020016000208381548110151561191f57fe5b906000526020600020900181905550505050565b6000600560008473ffffffffffffffffffffffffffffffffffffffff1673ffffffffffffffffffffffffffffffffffffffff1681526020019081526020016000208281548110151561198157fe5b906000526020600020900154905092915050565b6003602052816000526040600020818154811015156119b057fe5b90600052602060002090016000915091509054906101000a900473ffffffffffffffffffffffffffffffffffffffff1681565b6000600360008473ffffffffffffffffffffffffffffffffffffffff1673ffffffffffffffffffffffffffffffffffffffff16815260200190815260200160002082815481101515611a3157fe5b906000526020600020900160009054906101000a900473ffffffffffffffffffffffffffffffffffffffff16905092915050565b600460205281600052604060002081815481101515611a8057fe5b9060005260206000209001600091509150505481565b600860205281600052604060002081815481101515611ab157fe5b9060005260206000209001600091509150505481565b600a60205281600052604060002081815481101515611ae257fe5b9060005260206000209060209182820401919006915091509054906101000a900460ff1681565b815481835581811511611b3057818360005260206000209182019101611b2f9190611bc7565b5b505050565b815481835581811511611b5c57818360005260206000209182019101611b5b9190611bc7565b5b505050565b815481835581811511611b8857818360005260206000209182019101611b879190611bec565b5b505050565b815481835581811511611bc257601f016020900481601f01602090048360005260206000209182019101611bc19190611bc7565b5b505050565b611be991905b80821115611be5576000816000905550600101611bcd565b5090565b90565b611c0e91905b80821115611c0a576000816000905550600101611bf2565b5090565b905600a165627a7a723058206e4dc5be9c27c9f0b2d18eb29328ce00d808824bb93ef0562b58ab9906eab3070029",
  "source": "pragma solidity ^0.4.15;\n\n//import './Market.sol';\n\ncontract Owner {\n    mapping(address => uint[]) public items;\n    mapping(address => uint[]) public prices;\n    mapping(address => uint[]) public rentprices;\n    mapping(address => address[]) public renters;\n    mapping(address => uint[]) public commitfees;\n    mapping(address => uint[]) public rentdurations;\n    mapping(address => uint[]) public nows;\n    mapping(address => uint[]) public statuss;\n    mapping(address => bytes32[]) public rhashings;\n    mapping(address => bytes32[]) public ohashings;\n    mapping(address => bool[]) public available;\n    \n    function Owner() public {\n    }\n\n    function request(address renter, uint item, uint price, address owner) {\n        items[owner].push(item);\n        prices[owner].push(price);\n        renters[owner].push(renter);\n        nows[owner].push(now);\n        statuss[owner].push(1);\n        rhashings[owner].push(0);\n        ohashings[owner].push(0);\n        available[owner].push(true);\n    }\n\n    function indexCheck(address owner, uint index) returns (bool) {\n        if (index >= items[owner].length) {\n            return false;\n        } else {\n            if (available[owner][index]) {\n                return true;\n            }\n            return false;\n        }\n    }\n\n    function indexBool(address owner, uint item) returns (bool, uint) {\n        uint limit = items[owner].length;\n        for (uint i = 0; i < limit; i++) {\n            if (items[owner][i] == item) {\n                return (true, i);\n            }\n        }\n        return (false,0);\n    }\n\n    function itemsCheck(address owner, uint index) returns (uint) {\n        return items[owner][index];\n    }\n\n    function pricesCheck(address owner, uint index) returns (uint) {\n        return prices[owner][index];\n    }\n\n    function rentpricesCheck(address owner, uint index) returns (uint) {\n        return rentprices[owner][index];\n    }\n\n    function rentersCheck(address owner, uint index) returns (address) {\n        return renters[owner][index];\n    }\n\n    function commitfeesCheck(address owner, uint index) returns (uint) {\n        return commitfees[owner][index];\n    }\n\n\n    function rentdurationsCheck(address owner, uint index) returns (uint) {\n        return rentdurations[owner][index];\n    }\n\n    function nowsCheck(address owner, uint index) returns (uint) {\n        return nows[owner][index];\n    }\n\n    function statussCheck(address owner, uint index) returns (uint) {\n        return statuss[owner][index];\n    }\n\n    function rhashingsCheck(address owner, uint index) returns (bytes32) {\n        return rhashings[owner][index];\n    }\n\n    function ohashingsCheck(address owner, uint index) returns (bytes32) {\n        return ohashings[owner][index];\n    }\n\n    function statussSet(address owner, uint index, uint status) {\n        statuss[owner][index] = status;\n    }\n\n    function statussSet3(address owner, uint index) {\n        statuss[owner][index] = 3;\n    }\n\n    function statussSet0(address owner, uint index) {\n        statuss[owner][index] = 0;\n    }\n\n    function previousSet(address owner, uint index, uint time) {\n        nows[owner][index] = time;\n    }\n\n    function availableSet(address owner, uint index, bool val) {\n        available[owner][index] = val;\n    }\n\n    function acknowledge(address owner, uint index, bytes32 ohash, bytes32 ohash2) {\n        nows[owner][index] = now;\n        statuss[owner][index] = 2;\n        ohashings[owner][index] = ohash;\n        rhashings[owner][index] = ohash2;\n    }\n    \n}\n",
  "sourcePath": "/Users/kwanhongyap/Desktop/Crypto_final/contracts/Owner.sol",
  "compiler": {
    "name": "solc",
    "version": "0.4.18+commit.9cf6e910.Emscripten.clang"
  },
  "schemaVersion": "1.0.1",
  "updatedAt": "2017-12-01T08:33:23.136Z"
}