{
  "contractName": "Renter",
  "abi": [
    {
      "constant": false,
      "inputs": [
        {
          "name": "renter",
          "type": "address"
        },
        {
          "name": "index",
          "type": "uint256"
        }
      ],
      "name": "statussSet3",
      "outputs": [],
      "payable": false,
      "stateMutability": "nonpayable",
      "type": "function"
    },
    {
      "constant": false,
      "inputs": [
        {
          "name": "renter",
          "type": "address"
        },
        {
          "name": "item",
          "type": "uint256"
        }
      ],
      "name": "indexFinding",
      "outputs": [
        {
          "name": "",
          "type": "uint256"
        }
      ],
      "payable": false,
      "stateMutability": "nonpayable",
      "type": "function"
    },
    {
      "constant": false,
      "inputs": [
        {
          "name": "renter",
          "type": "address"
        },
        {
          "name": "index",
          "type": "uint256"
        }
      ],
      "name": "commitfeesCheck",
      "outputs": [
        {
          "name": "",
          "type": "uint256"
        }
      ],
      "payable": false,
      "stateMutability": "nonpayable",
      "type": "function"
    },
    {
      "constant": false,
      "inputs": [
        {
          "name": "renter",
          "type": "address"
        },
        {
          "name": "index",
          "type": "uint256"
        },
        {
          "name": "ohash",
          "type": "bytes32"
        },
        {
          "name": "ohash2",
          "type": "bytes32"
        }
      ],
      "name": "acknowledge",
      "outputs": [],
      "payable": false,
      "stateMutability": "nonpayable",
      "type": "function"
    },
    {
      "constant": false,
      "inputs": [
        {
          "name": "renter",
          "type": "address"
        },
        {
          "name": "index",
          "type": "uint256"
        }
      ],
      "name": "rentpricesCheck",
      "outputs": [
        {
          "name": "",
          "type": "uint256"
        }
      ],
      "payable": false,
      "stateMutability": "nonpayable",
      "type": "function"
    },
    {
      "constant": false,
      "inputs": [
        {
          "name": "renter",
          "type": "address"
        },
        {
          "name": "index",
          "type": "uint256"
        }
      ],
      "name": "nowsCheck",
      "outputs": [
        {
          "name": "",
          "type": "uint256"
        }
      ],
      "payable": false,
      "stateMutability": "nonpayable",
      "type": "function"
    },
    {
      "constant": false,
      "inputs": [
        {
          "name": "renter",
          "type": "address"
        },
        {
          "name": "index",
          "type": "uint256"
        }
      ],
      "name": "ohashingsCheck",
      "outputs": [
        {
          "name": "",
          "type": "bytes32"
        }
      ],
      "payable": false,
      "stateMutability": "nonpayable",
      "type": "function"
    },
    {
      "constant": true,
      "inputs": [
        {
          "name": "",
          "type": "address"
        },
        {
          "name": "",
          "type": "uint256"
        }
      ],
      "name": "statuss",
      "outputs": [
        {
          "name": "",
          "type": "uint256"
        }
      ],
      "payable": false,
      "stateMutability": "view",
      "type": "function"
    },
    {
      "constant": true,
      "inputs": [
        {
          "name": "",
          "type": "address"
        },
        {
          "name": "",
          "type": "uint256"
        }
      ],
      "name": "rentdurations",
      "outputs": [
        {
          "name": "",
          "type": "uint256"
        }
      ],
      "payable": false,
      "stateMutability": "view",
      "type": "function"
    },
    {
      "constant": true,
      "inputs": [
        {
          "name": "",
          "type": "address"
        },
        {
          "name": "",
          "type": "uint256"
        }
      ],
      "name": "rentprices",
      "outputs": [
        {
          "name": "",
          "type": "uint256"
        }
      ],
      "payable": false,
      "stateMutability": "view",
      "type": "function"
    },
    {
      "constant": false,
      "inputs": [
        {
          "name": "renter",
          "type": "address"
        },
        {
          "name": "index",
          "type": "uint256"
        }
      ],
      "name": "rhashingsCheck",
      "outputs": [
        {
          "name": "",
          "type": "bytes32"
        }
      ],
      "payable": false,
      "stateMutability": "nonpayable",
      "type": "function"
    },
    {
      "constant": true,
      "inputs": [
        {
          "name": "",
          "type": "address"
        },
        {
          "name": "",
          "type": "uint256"
        }
      ],
      "name": "items",
      "outputs": [
        {
          "name": "",
          "type": "uint256"
        }
      ],
      "payable": false,
      "stateMutability": "view",
      "type": "function"
    },
    {
      "constant": false,
      "inputs": [
        {
          "name": "renter",
          "type": "address"
        },
        {
          "name": "index",
          "type": "uint256"
        }
      ],
      "name": "statussSet4",
      "outputs": [],
      "payable": false,
      "stateMutability": "nonpayable",
      "type": "function"
    },
    {
      "constant": true,
      "inputs": [
        {
          "name": "",
          "type": "address"
        },
        {
          "name": "",
          "type": "uint256"
        }
      ],
      "name": "ohashings",
      "outputs": [
        {
          "name": "",
          "type": "bytes32"
        }
      ],
      "payable": false,
      "stateMutability": "view",
      "type": "function"
    },
    {
      "constant": false,
      "inputs": [
        {
          "name": "renter",
          "type": "address"
        },
        {
          "name": "item",
          "type": "uint256"
        }
      ],
      "name": "indexBool",
      "outputs": [
        {
          "name": "",
          "type": "bool"
        }
      ],
      "payable": false,
      "stateMutability": "nonpayable",
      "type": "function"
    },
    {
      "constant": false,
      "inputs": [
        {
          "name": "renter",
          "type": "address"
        },
        {
          "name": "index",
          "type": "uint256"
        },
        {
          "name": "time",
          "type": "uint256"
        }
      ],
      "name": "previousSet",
      "outputs": [],
      "payable": false,
      "stateMutability": "nonpayable",
      "type": "function"
    },
    {
      "constant": true,
      "inputs": [
        {
          "name": "",
          "type": "address"
        },
        {
          "name": "",
          "type": "uint256"
        }
      ],
      "name": "owners",
      "outputs": [
        {
          "name": "",
          "type": "address"
        }
      ],
      "payable": false,
      "stateMutability": "view",
      "type": "function"
    },
    {
      "constant": false,
      "inputs": [
        {
          "name": "renter",
          "type": "address"
        },
        {
          "name": "index",
          "type": "uint256"
        }
      ],
      "name": "statussSet0",
      "outputs": [],
      "payable": false,
      "stateMutability": "nonpayable",
      "type": "function"
    },
    {
      "constant": false,
      "inputs": [
        {
          "name": "renter",
          "type": "address"
        },
        {
          "name": "index",
          "type": "uint256"
        }
      ],
      "name": "itemsCheck",
      "outputs": [
        {
          "name": "",
          "type": "uint256"
        }
      ],
      "payable": false,
      "stateMutability": "nonpayable",
      "type": "function"
    },
    {
      "constant": false,
      "inputs": [
        {
          "name": "renter",
          "type": "address"
        },
        {
          "name": "item",
          "type": "uint256"
        },
        {
          "name": "price",
          "type": "uint256"
        },
        {
          "name": "owner",
          "type": "address"
        },
        {
          "name": "commitfee",
          "type": "uint256"
        }
      ],
      "name": "request",
      "outputs": [],
      "payable": false,
      "stateMutability": "nonpayable",
      "type": "function"
    },
    {
      "constant": true,
      "inputs": [
        {
          "name": "",
          "type": "address"
        },
        {
          "name": "",
          "type": "uint256"
        }
      ],
      "name": "prices",
      "outputs": [
        {
          "name": "",
          "type": "uint256"
        }
      ],
      "payable": false,
      "stateMutability": "view",
      "type": "function"
    },
    {
      "constant": true,
      "inputs": [
        {
          "name": "",
          "type": "address"
        },
        {
          "name": "",
          "type": "uint256"
        }
      ],
      "name": "nows",
      "outputs": [
        {
          "name": "",
          "type": "uint256"
        }
      ],
      "payable": false,
      "stateMutability": "view",
      "type": "function"
    },
    {
      "constant": false,
      "inputs": [
        {
          "name": "renter",
          "type": "address"
        },
        {
          "name": "index",
          "type": "uint256"
        }
      ],
      "name": "ownersCheck",
      "outputs": [
        {
          "name": "",
          "type": "address"
        }
      ],
      "payable": false,
      "stateMutability": "nonpayable",
      "type": "function"
    },
    {
      "constant": false,
      "inputs": [
        {
          "name": "renter",
          "type": "address"
        },
        {
          "name": "index",
          "type": "uint256"
        }
      ],
      "name": "statussCheck",
      "outputs": [
        {
          "name": "",
          "type": "uint256"
        }
      ],
      "payable": false,
      "stateMutability": "nonpayable",
      "type": "function"
    },
    {
      "constant": false,
      "inputs": [
        {
          "name": "renter",
          "type": "address"
        },
        {
          "name": "index",
          "type": "uint256"
        },
        {
          "name": "val",
          "type": "bool"
        }
      ],
      "name": "availableSet",
      "outputs": [],
      "payable": false,
      "stateMutability": "nonpayable",
      "type": "function"
    },
    {
      "constant": false,
      "inputs": [
        {
          "name": "renter",
          "type": "address"
        },
        {
          "name": "index",
          "type": "uint256"
        }
      ],
      "name": "indexCheck",
      "outputs": [
        {
          "name": "",
          "type": "bool"
        }
      ],
      "payable": false,
      "stateMutability": "nonpayable",
      "type": "function"
    },
    {
      "constant": false,
      "inputs": [
        {
          "name": "renter",
          "type": "address"
        },
        {
          "name": "index",
          "type": "uint256"
        }
      ],
      "name": "pricesCheck",
      "outputs": [
        {
          "name": "",
          "type": "uint256"
        }
      ],
      "payable": false,
      "stateMutability": "nonpayable",
      "type": "function"
    },
    {
      "constant": false,
      "inputs": [
        {
          "name": "renter",
          "type": "address"
        },
        {
          "name": "index",
          "type": "uint256"
        },
        {
          "name": "status",
          "type": "uint256"
        }
      ],
      "name": "statussSet",
      "outputs": [],
      "payable": false,
      "stateMutability": "nonpayable",
      "type": "function"
    },
    {
      "constant": false,
      "inputs": [
        {
          "name": "renter",
          "type": "address"
        },
        {
          "name": "index",
          "type": "uint256"
        }
      ],
      "name": "rentdurationsCheck",
      "outputs": [
        {
          "name": "",
          "type": "uint256"
        }
      ],
      "payable": false,
      "stateMutability": "nonpayable",
      "type": "function"
    },
    {
      "constant": true,
      "inputs": [
        {
          "name": "",
          "type": "address"
        },
        {
          "name": "",
          "type": "uint256"
        }
      ],
      "name": "commitfees",
      "outputs": [
        {
          "name": "",
          "type": "uint256"
        }
      ],
      "payable": false,
      "stateMutability": "view",
      "type": "function"
    },
    {
      "constant": true,
      "inputs": [
        {
          "name": "",
          "type": "address"
        },
        {
          "name": "",
          "type": "uint256"
        }
      ],
      "name": "rhashings",
      "outputs": [
        {
          "name": "",
          "type": "bytes32"
        }
      ],
      "payable": false,
      "stateMutability": "view",
      "type": "function"
    },
    {
      "constant": true,
      "inputs": [
        {
          "name": "",
          "type": "address"
        },
        {
          "name": "",
          "type": "uint256"
        }
      ],
      "name": "available",
      "outputs": [
        {
          "name": "",
          "type": "bool"
        }
      ],
      "payable": false,
      "stateMutability": "view",
      "type": "function"
    },
    {
      "inputs": [],
      "payable": false,
      "stateMutability": "nonpayable",
      "type": "constructor"
    }
  ],
  "bytecode": "0x6060604052341561000f57600080fd5b611e818061001e6000396000f300606060405260043610610195576000357c0100000000000000000000000000000000000000000000000000000000900463ffffffff1680621b796c1461019a5780631052519b146101dc578063149a5f9e146102325780631bd829e8146102885780631cc0b92b146102e4578063327ff26b1461033a57806333cea02e146103905780633b2e5065146103ee578063571258b11461044457806357b74dbd1461049a57806359c98f8f146104f05780635c80a4351461054e57806373d159e0146105a457806389ddca51146105e657806390caa7ad1461064457806392a5dd831461069e5780639b3e2787146106e95780639c05db291461076b578063a3f1673b146107ad578063abf37d2914610803578063bbc492c014610876578063bd49aad4146108cc578063c1d6d3fb14610922578063c2ca1c74146109a4578063c67e7183146109fa578063d3c7d5af14610a47578063d799a16214610aa1578063dbe76c6214610af7578063dc443e0214610b42578063eaa1629414610b98578063ebe92b1514610bee578063f8724aba14610c4c575b600080fd5b34156101a557600080fd5b6101da600480803573ffffffffffffffffffffffffffffffffffffffff16906020019091908035906020019091905050610ca6565b005b34156101e757600080fd5b61021c600480803573ffffffffffffffffffffffffffffffffffffffff16906020019091908035906020019091905050610d07565b6040518082815260200191505060405180910390f35b341561023d57600080fd5b610272600480803573ffffffffffffffffffffffffffffffffffffffff16906020019091908035906020019091905050610ddd565b6040518082815260200191505060405180910390f35b341561029357600080fd5b6102e2600480803573ffffffffffffffffffffffffffffffffffffffff169060200190919080359060200190919080356000191690602001909190803560001916906020019091905050610e3f565b005b34156102ef57600080fd5b610324600480803573ffffffffffffffffffffffffffffffffffffffff16906020019091908035906020019091905050610fbe565b6040518082815260200191505060405180910390f35b341561034557600080fd5b61037a600480803573ffffffffffffffffffffffffffffffffffffffff16906020019091908035906020019091905050611020565b6040518082815260200191505060405180910390f35b341561039b57600080fd5b6103d0600480803573ffffffffffffffffffffffffffffffffffffffff16906020019091908035906020019091905050611082565b60405180826000191660001916815260200191505060405180910390f35b34156103f957600080fd5b61042e600480803573ffffffffffffffffffffffffffffffffffffffff169060200190919080359060200190919050506110e4565b6040518082815260200191505060405180910390f35b341561044f57600080fd5b610484600480803573ffffffffffffffffffffffffffffffffffffffff16906020019091908035906020019091905050611115565b6040518082815260200191505060405180910390f35b34156104a557600080fd5b6104da600480803573ffffffffffffffffffffffffffffffffffffffff16906020019091908035906020019091905050611146565b6040518082815260200191505060405180910390f35b34156104fb57600080fd5b610530600480803573ffffffffffffffffffffffffffffffffffffffff16906020019091908035906020019091905050611177565b60405180826000191660001916815260200191505060405180910390f35b341561055957600080fd5b61058e600480803573ffffffffffffffffffffffffffffffffffffffff169060200190919080359060200190919050506111d9565b6040518082815260200191505060405180910390f35b34156105af57600080fd5b6105e4600480803573ffffffffffffffffffffffffffffffffffffffff1690602001909190803590602001909190505061120a565b005b34156105f157600080fd5b610626600480803573ffffffffffffffffffffffffffffffffffffffff1690602001909190803590602001909190505061126b565b60405180826000191660001916815260200191505060405180910390f35b341561064f57600080fd5b610684600480803573ffffffffffffffffffffffffffffffffffffffff1690602001909190803590602001909190505061129c565b604051808215151515815260200191505060405180910390f35b34156106a957600080fd5b6106e7600480803573ffffffffffffffffffffffffffffffffffffffff16906020019091908035906020019091908035906020019091905050611373565b005b34156106f457600080fd5b610729600480803573ffffffffffffffffffffffffffffffffffffffff169060200190919080359060200190919050506113d4565b604051808273ffffffffffffffffffffffffffffffffffffffff1673ffffffffffffffffffffffffffffffffffffffff16815260200191505060405180910390f35b341561077657600080fd5b6107ab600480803573ffffffffffffffffffffffffffffffffffffffff16906020019091908035906020019091905050611422565b005b34156107b857600080fd5b6107ed600480803573ffffffffffffffffffffffffffffffffffffffff16906020019091908035906020019091905050611483565b6040518082815260200191505060405180910390f35b341561080e57600080fd5b610874600480803573ffffffffffffffffffffffffffffffffffffffff1690602001909190803590602001909190803590602001909190803573ffffffffffffffffffffffffffffffffffffffff169060200190919080359060200190919050506114e4565b005b341561088157600080fd5b6108b6600480803573ffffffffffffffffffffffffffffffffffffffff169060200190919080359060200190919050506118e8565b6040518082815260200191505060405180910390f35b34156108d757600080fd5b61090c600480803573ffffffffffffffffffffffffffffffffffffffff16906020019091908035906020019091905050611919565b6040518082815260200191505060405180910390f35b341561092d57600080fd5b610962600480803573ffffffffffffffffffffffffffffffffffffffff1690602001909190803590602001909190505061194a565b604051808273ffffffffffffffffffffffffffffffffffffffff1673ffffffffffffffffffffffffffffffffffffffff16815260200191505060405180910390f35b34156109af57600080fd5b6109e4600480803573ffffffffffffffffffffffffffffffffffffffff169060200190919080359060200190919050506119cc565b6040518082815260200191505060405180910390f35b3415610a0557600080fd5b610a45600480803573ffffffffffffffffffffffffffffffffffffffff169060200190919080359060200190919080351515906020019091905050611a2e565b005b3415610a5257600080fd5b610a87600480803573ffffffffffffffffffffffffffffffffffffffff16906020019091908035906020019091905050611aa9565b604051808215151515815260200191505060405180910390f35b3415610aac57600080fd5b610ae1600480803573ffffffffffffffffffffffffffffffffffffffff16906020019091908035906020019091905050611b84565b6040518082815260200191505060405180910390f35b3415610b0257600080fd5b610b40600480803573ffffffffffffffffffffffffffffffffffffffff16906020019091908035906020019091908035906020019091905050611be6565b005b3415610b4d57600080fd5b610b82600480803573ffffffffffffffffffffffffffffffffffffffff16906020019091908035906020019091905050611c47565b6040518082815260200191505060405180910390f35b3415610ba357600080fd5b610bd8600480803573ffffffffffffffffffffffffffffffffffffffff16906020019091908035906020019091905050611ca9565b6040518082815260200191505060405180910390f35b3415610bf957600080fd5b610c2e600480803573ffffffffffffffffffffffffffffffffffffffff16906020019091908035906020019091905050611cda565b60405180826000191660001916815260200191505060405180910390f35b3415610c5757600080fd5b610c8c600480803573ffffffffffffffffffffffffffffffffffffffff16906020019091908035906020019091905050611d0b565b604051808215151515815260200191505060405180910390f35b6003600760008473ffffffffffffffffffffffffffffffffffffffff1673ffffffffffffffffffffffffffffffffffffffff16815260200190815260200160002082815481101515610cf457fe5b9060005260206000209001819055505050565b60008060008060008673ffffffffffffffffffffffffffffffffffffffff1673ffffffffffffffffffffffffffffffffffffffff168152602001908152602001600020805490509150600090505b81811015610dd057836000808773ffffffffffffffffffffffffffffffffffffffff1673ffffffffffffffffffffffffffffffffffffffff16815260200190815260200160002082815481101515610da957fe5b9060005260206000209001541415610dc357809250610dd5565b8080600101915050610d55565b600092505b505092915050565b6000600460008473ffffffffffffffffffffffffffffffffffffffff1673ffffffffffffffffffffffffffffffffffffffff16815260200190815260200160002082815481101515610e2b57fe5b906000526020600020900154905092915050565b42600660008673ffffffffffffffffffffffffffffffffffffffff1673ffffffffffffffffffffffffffffffffffffffff16815260200190815260200160002084815481101515610e8c57fe5b9060005260206000209001819055506002600760008673ffffffffffffffffffffffffffffffffffffffff1673ffffffffffffffffffffffffffffffffffffffff16815260200190815260200160002084815481101515610ee957fe5b90600052602060002090018190555081600960008673ffffffffffffffffffffffffffffffffffffffff1673ffffffffffffffffffffffffffffffffffffffff16815260200190815260200160002084815481101515610f4557fe5b9060005260206000209001816000191690555080600860008673ffffffffffffffffffffffffffffffffffffffff1673ffffffffffffffffffffffffffffffffffffffff16815260200190815260200160002084815481101515610fa557fe5b9060005260206000209001816000191690555050505050565b6000600260008473ffffffffffffffffffffffffffffffffffffffff1673ffffffffffffffffffffffffffffffffffffffff1681526020019081526020016000208281548110151561100c57fe5b906000526020600020900154905092915050565b6000600660008473ffffffffffffffffffffffffffffffffffffffff1673ffffffffffffffffffffffffffffffffffffffff1681526020019081526020016000208281548110151561106e57fe5b906000526020600020900154905092915050565b6000600960008473ffffffffffffffffffffffffffffffffffffffff1673ffffffffffffffffffffffffffffffffffffffff168152602001908152602001600020828154811015156110d057fe5b906000526020600020900154905092915050565b6007602052816000526040600020818154811015156110ff57fe5b9060005260206000209001600091509150505481565b60056020528160005260406000208181548110151561113057fe5b9060005260206000209001600091509150505481565b60026020528160005260406000208181548110151561116157fe5b9060005260206000209001600091509150505481565b6000600860008473ffffffffffffffffffffffffffffffffffffffff1673ffffffffffffffffffffffffffffffffffffffff168152602001908152602001600020828154811015156111c557fe5b906000526020600020900154905092915050565b6000602052816000526040600020818154811015156111f457fe5b9060005260206000209001600091509150505481565b6003600760008473ffffffffffffffffffffffffffffffffffffffff1673ffffffffffffffffffffffffffffffffffffffff1681526020019081526020016000208281548110151561125857fe5b9060005260206000209001819055505050565b60096020528160005260406000208181548110151561128657fe5b9060005260206000209001600091509150505481565b60008060008060008673ffffffffffffffffffffffffffffffffffffffff1673ffffffffffffffffffffffffffffffffffffffff168152602001908152602001600020805490509150600090505b8181101561136657836000808773ffffffffffffffffffffffffffffffffffffffff1673ffffffffffffffffffffffffffffffffffffffff1681526020019081526020016000208281548110151561133e57fe5b9060005260206000209001541415611359576001925061136b565b80806001019150506112ea565b600092505b505092915050565b80600660008573ffffffffffffffffffffffffffffffffffffffff1673ffffffffffffffffffffffffffffffffffffffff168152602001908152602001600020838154811015156113c057fe5b906000526020600020900181905550505050565b6003602052816000526040600020818154811015156113ef57fe5b90600052602060002090016000915091509054906101000a900473ffffffffffffffffffffffffffffffffffffffff1681565b6000600760008473ffffffffffffffffffffffffffffffffffffffff1673ffffffffffffffffffffffffffffffffffffffff1681526020019081526020016000208281548110151561147057fe5b9060005260206000209001819055505050565b60008060008473ffffffffffffffffffffffffffffffffffffffff1673ffffffffffffffffffffffffffffffffffffffff168152602001908152602001600020828154811015156114d057fe5b906000526020600020900154905092915050565b6000808673ffffffffffffffffffffffffffffffffffffffff1673ffffffffffffffffffffffffffffffffffffffff16815260200190815260200160002080548060010182816115349190611d4d565b916000526020600020900160008690919091505550600160008673ffffffffffffffffffffffffffffffffffffffff1673ffffffffffffffffffffffffffffffffffffffff168152602001908152602001600020805480600101828161159a9190611d4d565b916000526020600020900160008590919091505550600360008673ffffffffffffffffffffffffffffffffffffffff1673ffffffffffffffffffffffffffffffffffffffff16815260200190815260200160002080548060010182816116009190611d79565b9160005260206000209001600084909190916101000a81548173ffffffffffffffffffffffffffffffffffffffff021916908373ffffffffffffffffffffffffffffffffffffffff16021790555050600460008673ffffffffffffffffffffffffffffffffffffffff1673ffffffffffffffffffffffffffffffffffffffff16815260200190815260200160002080548060010182816116a09190611d4d565b916000526020600020900160008390919091505550600660008673ffffffffffffffffffffffffffffffffffffffff1673ffffffffffffffffffffffffffffffffffffffff16815260200190815260200160002080548060010182816117069190611d4d565b916000526020600020900160004290919091505550600760008673ffffffffffffffffffffffffffffffffffffffff1673ffffffffffffffffffffffffffffffffffffffff168152602001908152602001600020805480600101828161176c9190611d4d565b91600052602060002090016000600190919091505550600860008673ffffffffffffffffffffffffffffffffffffffff1673ffffffffffffffffffffffffffffffffffffffff16815260200190815260200160002080548060010182816117d39190611da5565b916000526020600020900160008060010290919091509060001916905550600960008673ffffffffffffffffffffffffffffffffffffffff1673ffffffffffffffffffffffffffffffffffffffff16815260200190815260200160002080548060010182816118429190611da5565b916000526020600020900160008060010290919091509060001916905550600a60008673ffffffffffffffffffffffffffffffffffffffff1673ffffffffffffffffffffffffffffffffffffffff16815260200190815260200160002080548060010182816118b19190611dd1565b91600052602060002090602091828204019190066001909190916101000a81548160ff021916908315150217905550505050505050565b60016020528160005260406000208181548110151561190357fe5b9060005260206000209001600091509150505481565b60066020528160005260406000208181548110151561193457fe5b9060005260206000209001600091509150505481565b6000600360008473ffffffffffffffffffffffffffffffffffffffff1673ffffffffffffffffffffffffffffffffffffffff1681526020019081526020016000208281548110151561199857fe5b906000526020600020900160009054906101000a900473ffffffffffffffffffffffffffffffffffffffff16905092915050565b6000600760008473ffffffffffffffffffffffffffffffffffffffff1673ffffffffffffffffffffffffffffffffffffffff16815260200190815260200160002082815481101515611a1a57fe5b906000526020600020900154905092915050565b80600a60008573ffffffffffffffffffffffffffffffffffffffff1673ffffffffffffffffffffffffffffffffffffffff16815260200190815260200160002083815481101515611a7b57fe5b90600052602060002090602091828204019190066101000a81548160ff021916908315150217905550505050565b6000600a60008473ffffffffffffffffffffffffffffffffffffffff1673ffffffffffffffffffffffffffffffffffffffff1681526020019081526020016000208054905082101515611aff5760009050611b7e565b600a60008473ffffffffffffffffffffffffffffffffffffffff1673ffffffffffffffffffffffffffffffffffffffff16815260200190815260200160002082815481101515611b4b57fe5b90600052602060002090602091828204019190069054906101000a900460ff1615611b795760019050611b7e565b600090505b92915050565b6000600160008473ffffffffffffffffffffffffffffffffffffffff1673ffffffffffffffffffffffffffffffffffffffff16815260200190815260200160002082815481101515611bd257fe5b906000526020600020900154905092915050565b80600760008573ffffffffffffffffffffffffffffffffffffffff1673ffffffffffffffffffffffffffffffffffffffff16815260200190815260200160002083815481101515611c3357fe5b906000526020600020900181905550505050565b6000600560008473ffffffffffffffffffffffffffffffffffffffff1673ffffffffffffffffffffffffffffffffffffffff16815260200190815260200160002082815481101515611c9557fe5b906000526020600020900154905092915050565b600460205281600052604060002081815481101515611cc457fe5b9060005260206000209001600091509150505481565b600860205281600052604060002081815481101515611cf557fe5b9060005260206000209001600091509150505481565b600a60205281600052604060002081815481101515611d2657fe5b9060005260206000209060209182820401919006915091509054906101000a900460ff1681565b815481835581811511611d7457818360005260206000209182019101611d739190611e0b565b5b505050565b815481835581811511611da057818360005260206000209182019101611d9f9190611e0b565b5b505050565b815481835581811511611dcc57818360005260206000209182019101611dcb9190611e30565b5b505050565b815481835581811511611e0657601f016020900481601f01602090048360005260206000209182019101611e059190611e0b565b5b505050565b611e2d91905b80821115611e29576000816000905550600101611e11565b5090565b90565b611e5291905b80821115611e4e576000816000905550600101611e36565b5090565b905600a165627a7a72305820f1a029dc445fe8a9cb46f0175eb9672d9cd76e26d74b2d93b5796b8fafb83c640029",
  "source": "pragma solidity ^0.4.15;\n\n//import './Market.sol';\n\ncontract Renter {\n    mapping(address => uint[]) public items;\n    mapping(address => uint[]) public prices;\n    mapping(address => uint[]) public rentprices;\n    mapping(address => address[]) public owners;\n    mapping(address => uint[]) public commitfees;\n    mapping(address => uint[]) public rentdurations;\n    mapping(address => uint[]) public nows;\n    mapping(address => uint[]) public statuss;\n    mapping(address => bytes32[]) public rhashings;\n    mapping(address => bytes32[]) public ohashings;\n    mapping(address => bool[]) public available;\n\n    function Renter() public {\n    }\n    function request(address renter, uint item, uint price, address owner, uint commitfee) public {\n        items[renter].push(item);\n        prices[renter].push(price);\n        owners[renter].push(owner);\n        commitfees[renter].push(commitfee);\n        nows[renter].push(now);\n        statuss[renter].push(1);\n        rhashings[renter].push(0);\n        ohashings[renter].push(0);\n        available[renter].push(true);\n    }\n\n    function indexCheck(address renter, uint index) returns (bool) {\n        if (index >= available[renter].length) {\n            return false;\n        } else {\n            if (available[renter][index]) {\n                return true;\n            }\n            return false;\n        }\n    }\n\n    function itemsCheck(address renter, uint index) returns (uint) {\n        return items[renter][index];\n    }\n\n    function indexBool(address renter, uint item) returns (bool) {\n        uint limit = items[renter].length;\n        for (uint i = 0; i < limit; i++) {\n            if (items[renter][i] == item) {\n                return true;\n            }\n        }\n        return false;\n    }\n\n\n    function indexFinding(address renter, uint item) returns (uint) {\n        uint limit = items[renter].length;\n        for (uint i = 0; i < limit; i++) {\n            if (items[renter][i] == item) {\n                return i;\n            }\n        }\n        return 0;\n    }\n\n    function pricesCheck(address renter, uint index) returns (uint) {\n        return prices[renter][index];\n    }\n\n    function rentpricesCheck(address renter, uint index) returns (uint) {\n        return rentprices[renter][index];\n    }\n\n    function ownersCheck(address renter, uint index) returns (address) {\n        return owners[renter][index];\n    }\n\n    function commitfeesCheck(address renter, uint index) returns (uint) {\n        return commitfees[renter][index];\n    }\n\n    \n\n    function rentdurationsCheck(address renter, uint index) returns (uint) {\n        return rentdurations[renter][index];\n    }\n\n    function nowsCheck(address renter, uint index) returns (uint) {\n        return nows[renter][index];\n    }\n\n    \n\n    function statussCheck(address renter, uint index) returns (uint) {\n        return statuss[renter][index];\n    }\n\n    function rhashingsCheck(address renter, uint index) returns (bytes32) {\n        return rhashings[renter][index];\n    }\n\n    function ohashingsCheck(address renter, uint index) returns (bytes32) {\n        return ohashings[renter][index];\n    }\n\n    function statussSet(address renter, uint index, uint status) {\n        statuss[renter][index] = status;\n    }\n\n    function statussSet3(address renter, uint index) {\n        statuss[renter][index] = 3;\n    }\n\n    function statussSet4(address renter, uint index) {\n        statuss[renter][index] = 3;\n    }\n\n    function statussSet0(address renter, uint index) {\n        statuss[renter][index] = 0;\n    }\n\n    function previousSet(address renter, uint index, uint time) {\n        nows[renter][index] = time;\n    } \n\n    function availableSet(address renter, uint index, bool val) {\n        available[renter][index] = val;\n    }\n\n    function acknowledge(address renter, uint index, bytes32 ohash, bytes32 ohash2) {\n        nows[renter][index] = now;\n        statuss[renter][index] = 2;\n        ohashings[renter][index] = ohash;\n        rhashings[renter][index] = ohash2;\n    }\n    \n}\n",
  "sourcePath": "/Users/kwanhongyap/Desktop/Crypto_final/contracts/Renter.sol",
  "compiler": {
    "name": "solc",
    "version": "0.4.18+commit.9cf6e910.Emscripten.clang"
  },
  "schemaVersion": "1.0.1",
  "updatedAt": "2017-12-01T08:33:23.137Z"
}