{
  "contractName": "Renter",
  "abi": [
    {
      "constant": false,
      "inputs": [
        {
          "name": "renter",
          "type": "address"
        },
        {
          "name": "index",
          "type": "uint256"
        }
      ],
      "name": "pricerequest",
      "outputs": [
        {
          "name": "",
          "type": "uint256"
        }
      ],
      "payable": false,
      "stateMutability": "nonpayable",
      "type": "function"
    },
    {
      "constant": false,
      "inputs": [
        {
          "name": "renter",
          "type": "address"
        },
        {
          "name": "name",
          "type": "string"
        },
        {
          "name": "owner",
          "type": "address"
        },
        {
          "name": "price",
          "type": "uint256"
        },
        {
          "name": "fee",
          "type": "uint256"
        }
      ],
      "name": "requesting2",
      "outputs": [],
      "payable": false,
      "stateMutability": "nonpayable",
      "type": "function"
    },
    {
      "constant": false,
      "inputs": [
        {
          "name": "renter",
          "type": "address"
        },
        {
          "name": "index",
          "type": "uint256"
        }
      ],
      "name": "pricerequest2",
      "outputs": [
        {
          "name": "",
          "type": "uint256"
        }
      ],
      "payable": false,
      "stateMutability": "nonpayable",
      "type": "function"
    },
    {
      "constant": false,
      "inputs": [
        {
          "name": "renter",
          "type": "address"
        },
        {
          "name": "name",
          "type": "string"
        },
        {
          "name": "owner",
          "type": "address"
        },
        {
          "name": "price",
          "type": "uint256"
        }
      ],
      "name": "requesting",
      "outputs": [],
      "payable": false,
      "stateMutability": "nonpayable",
      "type": "function"
    },
    {
      "constant": true,
      "inputs": [
        {
          "name": "",
          "type": "address"
        },
        {
          "name": "",
          "type": "uint256"
        }
      ],
      "name": "requests2",
      "outputs": [
        {
          "name": "name",
          "type": "string"
        },
        {
          "name": "owner",
          "type": "address"
        },
        {
          "name": "price",
          "type": "uint256"
        },
        {
          "name": "fee",
          "type": "uint256"
        }
      ],
      "payable": false,
      "stateMutability": "view",
      "type": "function"
    },
    {
      "constant": false,
      "inputs": [
        {
          "name": "renter",
          "type": "address"
        },
        {
          "name": "name",
          "type": "string"
        },
        {
          "name": "owner",
          "type": "address"
        },
        {
          "name": "price",
          "type": "uint256"
        },
        {
          "name": "rfee",
          "type": "uint256"
        }
      ],
      "name": "depositing",
      "outputs": [],
      "payable": false,
      "stateMutability": "nonpayable",
      "type": "function"
    },
    {
      "constant": true,
      "inputs": [],
      "name": "lengthtemp",
      "outputs": [
        {
          "name": "",
          "type": "uint256"
        }
      ],
      "payable": false,
      "stateMutability": "view",
      "type": "function"
    },
    {
      "constant": false,
      "inputs": [
        {
          "name": "renter",
          "type": "address"
        },
        {
          "name": "index",
          "type": "uint256"
        }
      ],
      "name": "namerequest",
      "outputs": [
        {
          "name": "",
          "type": "string"
        }
      ],
      "payable": false,
      "stateMutability": "nonpayable",
      "type": "function"
    },
    {
      "constant": false,
      "inputs": [
        {
          "name": "renter",
          "type": "address"
        },
        {
          "name": "index",
          "type": "uint256"
        }
      ],
      "name": "rentfee",
      "outputs": [
        {
          "name": "",
          "type": "uint256"
        }
      ],
      "payable": false,
      "stateMutability": "nonpayable",
      "type": "function"
    },
    {
      "constant": false,
      "inputs": [
        {
          "name": "renter",
          "type": "address"
        },
        {
          "name": "name",
          "type": "string"
        },
        {
          "name": "owner",
          "type": "address"
        },
        {
          "name": "price",
          "type": "uint256"
        },
        {
          "name": "rfee",
          "type": "uint256"
        },
        {
          "name": "ofee",
          "type": "uint256"
        }
      ],
      "name": "transacting",
      "outputs": [],
      "payable": false,
      "stateMutability": "nonpayable",
      "type": "function"
    },
    {
      "constant": false,
      "inputs": [
        {
          "name": "renter",
          "type": "address"
        },
        {
          "name": "index",
          "type": "uint256"
        }
      ],
      "name": "addressrequest",
      "outputs": [
        {
          "name": "",
          "type": "address"
        }
      ],
      "payable": false,
      "stateMutability": "nonpayable",
      "type": "function"
    },
    {
      "constant": true,
      "inputs": [
        {
          "name": "",
          "type": "address"
        },
        {
          "name": "",
          "type": "uint256"
        }
      ],
      "name": "requests",
      "outputs": [
        {
          "name": "name",
          "type": "string"
        },
        {
          "name": "owner",
          "type": "address"
        },
        {
          "name": "price",
          "type": "uint256"
        }
      ],
      "payable": false,
      "stateMutability": "view",
      "type": "function"
    },
    {
      "constant": true,
      "inputs": [
        {
          "name": "",
          "type": "address"
        },
        {
          "name": "",
          "type": "uint256"
        }
      ],
      "name": "transacts",
      "outputs": [
        {
          "name": "renter",
          "type": "address"
        },
        {
          "name": "name",
          "type": "string"
        },
        {
          "name": "owner",
          "type": "address"
        },
        {
          "name": "price",
          "type": "uint256"
        },
        {
          "name": "rfee",
          "type": "uint256"
        },
        {
          "name": "ofee",
          "type": "uint256"
        }
      ],
      "payable": false,
      "stateMutability": "view",
      "type": "function"
    },
    {
      "constant": false,
      "inputs": [
        {
          "name": "renter",
          "type": "address"
        },
        {
          "name": "index",
          "type": "uint256"
        }
      ],
      "name": "addressrequest2",
      "outputs": [
        {
          "name": "",
          "type": "address"
        }
      ],
      "payable": false,
      "stateMutability": "nonpayable",
      "type": "function"
    },
    {
      "constant": false,
      "inputs": [
        {
          "name": "renter",
          "type": "address"
        },
        {
          "name": "index",
          "type": "uint256"
        }
      ],
      "name": "pricetransact",
      "outputs": [
        {
          "name": "",
          "type": "uint256"
        }
      ],
      "payable": false,
      "stateMutability": "nonpayable",
      "type": "function"
    },
    {
      "constant": true,
      "inputs": [
        {
          "name": "",
          "type": "address"
        },
        {
          "name": "",
          "type": "uint256"
        }
      ],
      "name": "deposits",
      "outputs": [
        {
          "name": "renter",
          "type": "address"
        },
        {
          "name": "name",
          "type": "string"
        },
        {
          "name": "owner",
          "type": "address"
        },
        {
          "name": "price",
          "type": "uint256"
        },
        {
          "name": "rfee",
          "type": "uint256"
        }
      ],
      "payable": false,
      "stateMutability": "view",
      "type": "function"
    },
    {
      "constant": false,
      "inputs": [
        {
          "name": "renter",
          "type": "address"
        },
        {
          "name": "index",
          "type": "uint256"
        }
      ],
      "name": "namerequest2",
      "outputs": [
        {
          "name": "",
          "type": "string"
        }
      ],
      "payable": false,
      "stateMutability": "nonpayable",
      "type": "function"
    },
    {
      "constant": true,
      "inputs": [],
      "name": "templength",
      "outputs": [
        {
          "name": "",
          "type": "uint256"
        }
      ],
      "payable": false,
      "stateMutability": "view",
      "type": "function"
    },
    {
      "inputs": [],
      "payable": false,
      "stateMutability": "nonpayable",
      "type": "constructor"
    }
  ],
  "bytecode": "0x6060604052341561000f57600080fd5b60006004819055506000600381905550611d2f8061002e6000396000f3006060604052600436106100fc576000357c0100000000000000000000000000000000000000000000000000000000900463ffffffff16806313725088146101015780631fa6ef4d146101575780632623f2be1461020457806353f23a921461025a5780635ca41469146102fe57806372718b6214610417578063759fa999146104c45780638a4887cf146104ed5780638e26a302146105a85780638ee34750146105fe5780639b19d394146106b45780639ecebe2a14610736578063a474884514610848578063bea372df1461099b578063cae08ddc14610a1d578063d6d6817714610a73578063e65986b114610bbf578063f15eba1714610c7a575b600080fd5b341561010c57600080fd5b610141600480803573ffffffffffffffffffffffffffffffffffffffff16906020019091908035906020019091905050610ca3565b6040518082815260200191505060405180910390f35b341561016257600080fd5b610202600480803573ffffffffffffffffffffffffffffffffffffffff1690602001909190803590602001908201803590602001908080601f0160208091040260200160405190810160405280939291908181526020018383808284378201915050505050509190803573ffffffffffffffffffffffffffffffffffffffff16906020019091908035906020019091908035906020019091905050610d18565b005b341561020f57600080fd5b610244600480803573ffffffffffffffffffffffffffffffffffffffff16906020019091908035906020019091905050610e38565b6040518082815260200191505060405180910390f35b341561026557600080fd5b6102fc600480803573ffffffffffffffffffffffffffffffffffffffff1690602001909190803590602001908201803590602001908080601f0160208091040260200160405190810160405280939291908181526020018383808284378201915050505050509190803573ffffffffffffffffffffffffffffffffffffffff16906020019091908035906020019091905050610ead565b005b341561030957600080fd5b61033e600480803573ffffffffffffffffffffffffffffffffffffffff16906020019091908035906020019091905050611005565b60405180806020018573ffffffffffffffffffffffffffffffffffffffff1673ffffffffffffffffffffffffffffffffffffffff1681526020018481526020018381526020018281038252868181546001816001161561010002031660029004815260200191508054600181600116156101000203166002900480156104055780601f106103da57610100808354040283529160200191610405565b820191906000526020600020905b8154815290600101906020018083116103e857829003601f168201915b50509550505050505060405180910390f35b341561042257600080fd5b6104c2600480803573ffffffffffffffffffffffffffffffffffffffff1690602001909190803590602001908201803590602001908080601f0160208091040260200160405190810160405280939291908181526020018383808284378201915050505050509190803573ffffffffffffffffffffffffffffffffffffffff16906020019091908035906020019091908035906020019091905050611070565b005b34156104cf57600080fd5b6104d76111f3565b6040518082815260200191505060405180910390f35b34156104f857600080fd5b61052d600480803573ffffffffffffffffffffffffffffffffffffffff169060200190919080359060200190919050506111f9565b6040518080602001828103825283818151815260200191508051906020019080838360005b8381101561056d578082015181840152602081019050610552565b50505050905090810190601f16801561059a5780820380516001836020036101000a031916815260200191505b509250505060405180910390f35b34156105b357600080fd5b6105e8600480803573ffffffffffffffffffffffffffffffffffffffff1690602001909190803590602001909190505061130d565b6040518082815260200191505060405180910390f35b341561060957600080fd5b6106b2600480803573ffffffffffffffffffffffffffffffffffffffff1690602001909190803590602001908201803590602001908080601f0160208091040260200160405190810160405280939291908181526020018383808284378201915050505050509190803573ffffffffffffffffffffffffffffffffffffffff1690602001909190803590602001909190803590602001909190803590602001909190505061137a565b005b34156106bf57600080fd5b6106f4600480803573ffffffffffffffffffffffffffffffffffffffff1690602001909190803590602001909190505061150e565b604051808273ffffffffffffffffffffffffffffffffffffffff1673ffffffffffffffffffffffffffffffffffffffff16815260200191505060405180910390f35b341561074157600080fd5b610776600480803573ffffffffffffffffffffffffffffffffffffffff169060200190919080359060200190919050506115a3565b60405180806020018473ffffffffffffffffffffffffffffffffffffffff1673ffffffffffffffffffffffffffffffffffffffff1681526020018381526020018281038252858181546001816001161561010002031660029004815260200191508054600181600116156101000203166002900480156108375780601f1061080c57610100808354040283529160200191610837565b820191906000526020600020905b81548152906001019060200180831161081a57829003601f168201915b505094505050505060405180910390f35b341561085357600080fd5b610888600480803573ffffffffffffffffffffffffffffffffffffffff16906020019091908035906020019091905050611608565b604051808773ffffffffffffffffffffffffffffffffffffffff1673ffffffffffffffffffffffffffffffffffffffff168152602001806020018673ffffffffffffffffffffffffffffffffffffffff1673ffffffffffffffffffffffffffffffffffffffff1681526020018581526020018481526020018381526020018281038252878181546001816001161561010002031660029004815260200191508054600181600116156101000203166002900480156109875780601f1061095c57610100808354040283529160200191610987565b820191906000526020600020905b81548152906001019060200180831161096a57829003601f168201915b505097505050505050505060405180910390f35b34156109a657600080fd5b6109db600480803573ffffffffffffffffffffffffffffffffffffffff1690602001909190803590602001909190505061169f565b604051808273ffffffffffffffffffffffffffffffffffffffff1673ffffffffffffffffffffffffffffffffffffffff16815260200191505060405180910390f35b3415610a2857600080fd5b610a5d600480803573ffffffffffffffffffffffffffffffffffffffff16906020019091908035906020019091905050611734565b6040518082815260200191505060405180910390f35b3415610a7e57600080fd5b610ab3600480803573ffffffffffffffffffffffffffffffffffffffff169060200190919080359060200190919050506117a9565b604051808673ffffffffffffffffffffffffffffffffffffffff1673ffffffffffffffffffffffffffffffffffffffff168152602001806020018573ffffffffffffffffffffffffffffffffffffffff1673ffffffffffffffffffffffffffffffffffffffff168152602001848152602001838152602001828103825286818154600181600116156101000203166002900481526020019150805460018160011615610100020316600290048015610bac5780601f10610b8157610100808354040283529160200191610bac565b820191906000526020600020905b815481529060010190602001808311610b8f57829003601f168201915b5050965050505050505060405180910390f35b3415610bca57600080fd5b610bff600480803573ffffffffffffffffffffffffffffffffffffffff1690602001909190803590602001909190505061183a565b6040518080602001828103825283818151815260200191508051906020019080838360005b83811015610c3f578082015181840152602081019050610c24565b50505050905090810190601f168015610c6c5780820380516001836020036101000a031916815260200191505b509250505060405180910390f35b3415610c8557600080fd5b610c8d61194e565b6040518082815260200191505060405180910390f35b600080600560008573ffffffffffffffffffffffffffffffffffffffff1673ffffffffffffffffffffffffffffffffffffffff16815260200190815260200160002083815481101515610cf257fe5b906000526020600020906003020190506001600381905550806002015491505092915050565b600660008673ffffffffffffffffffffffffffffffffffffffff1673ffffffffffffffffffffffffffffffffffffffff1681526020019081526020016000208054806001018281610d699190611954565b916000526020600020906004020160006080604051908101604052808881526020018773ffffffffffffffffffffffffffffffffffffffff1681526020018681526020018581525090919091506000820151816000019080519060200190610dd2929190611986565b5060208201518160010160006101000a81548173ffffffffffffffffffffffffffffffffffffffff021916908373ffffffffffffffffffffffffffffffffffffffff16021790555060408201518160020155606082015181600301555050505050505050565b600080600660008573ffffffffffffffffffffffffffffffffffffffff1673ffffffffffffffffffffffffffffffffffffffff16815260200190815260200160002083815481101515610e8757fe5b906000526020600020906004020190506001600381905550806002015491505092915050565b600560008573ffffffffffffffffffffffffffffffffffffffff1673ffffffffffffffffffffffffffffffffffffffff1681526020019081526020016000208054806001018281610efe9190611a06565b916000526020600020906003020160006060604051908101604052808781526020018673ffffffffffffffffffffffffffffffffffffffff1681526020018581525090919091506000820151816000019080519060200190610f61929190611986565b5060208201518160010160006101000a81548173ffffffffffffffffffffffffffffffffffffffff021916908373ffffffffffffffffffffffffffffffffffffffff16021790555060408201518160020155505050600560008573ffffffffffffffffffffffffffffffffffffffff1673ffffffffffffffffffffffffffffffffffffffff1681526020019081526020016000208054905060048190555050505050565b60066020528160005260406000208181548110151561102057fe5b90600052602060002090600402016000915091505080600001908060010160009054906101000a900473ffffffffffffffffffffffffffffffffffffffff16908060020154908060030154905084565b600860008673ffffffffffffffffffffffffffffffffffffffff1673ffffffffffffffffffffffffffffffffffffffff16815260200190815260200160002080548060010182816110c19190611a38565b9160005260206000209060050201600060a0604051908101604052808973ffffffffffffffffffffffffffffffffffffffff1681526020018881526020018773ffffffffffffffffffffffffffffffffffffffff16815260200186815260200185815250909190915060008201518160000160006101000a81548173ffffffffffffffffffffffffffffffffffffffff021916908373ffffffffffffffffffffffffffffffffffffffff160217905550602082015181600101908051906020019061118d929190611986565b5060408201518160020160006101000a81548173ffffffffffffffffffffffffffffffffffffffff021916908373ffffffffffffffffffffffffffffffffffffffff16021790555060608201518160030155608082015181600401555050505050505050565b60035481565b611201611a6a565b6000600560008573ffffffffffffffffffffffffffffffffffffffff1673ffffffffffffffffffffffffffffffffffffffff1681526020019081526020016000208381548110151561124f57fe5b906000526020600020906003020190506001600381905550806000018054600181600116156101000203166002900480601f0160208091040260200160405190810160405280929190818152602001828054600181600116156101000203166002900480156112ff5780601f106112d4576101008083540402835291602001916112ff565b820191906000526020600020905b8154815290600101906020018083116112e257829003601f168201915b505050505091505092915050565b600080600860008573ffffffffffffffffffffffffffffffffffffffff1673ffffffffffffffffffffffffffffffffffffffff1681526020019081526020016000208381548110151561135c57fe5b90600052602060002090600502019050806004015491505092915050565b600760008773ffffffffffffffffffffffffffffffffffffffff1673ffffffffffffffffffffffffffffffffffffffff16815260200190815260200160002080548060010182816113cb9190611a7e565b9160005260206000209060060201600060c0604051908101604052808a73ffffffffffffffffffffffffffffffffffffffff1681526020018981526020018873ffffffffffffffffffffffffffffffffffffffff16815260200187815260200186815260200185815250909190915060008201518160000160006101000a81548173ffffffffffffffffffffffffffffffffffffffff021916908373ffffffffffffffffffffffffffffffffffffffff160217905550602082015181600101908051906020019061149d929190611986565b5060408201518160020160006101000a81548173ffffffffffffffffffffffffffffffffffffffff021916908373ffffffffffffffffffffffffffffffffffffffff160217905550606082015181600301556080820151816004015560a08201518160050155505050505050505050565b600080600560008573ffffffffffffffffffffffffffffffffffffffff1673ffffffffffffffffffffffffffffffffffffffff1681526020019081526020016000208381548110151561155d57fe5b9060005260206000209060030201905060016003819055508060010160009054906101000a900473ffffffffffffffffffffffffffffffffffffffff1691505092915050565b6005602052816000526040600020818154811015156115be57fe5b90600052602060002090600302016000915091505080600001908060010160009054906101000a900473ffffffffffffffffffffffffffffffffffffffff16908060020154905083565b60076020528160005260406000208181548110151561162357fe5b9060005260206000209060060201600091509150508060000160009054906101000a900473ffffffffffffffffffffffffffffffffffffffff169080600101908060020160009054906101000a900473ffffffffffffffffffffffffffffffffffffffff16908060030154908060040154908060050154905086565b600080600660008573ffffffffffffffffffffffffffffffffffffffff1673ffffffffffffffffffffffffffffffffffffffff168152602001908152602001600020838154811015156116ee57fe5b9060005260206000209060040201905060016003819055508060010160009054906101000a900473ffffffffffffffffffffffffffffffffffffffff1691505092915050565b600080600760008573ffffffffffffffffffffffffffffffffffffffff1673ffffffffffffffffffffffffffffffffffffffff1681526020019081526020016000208381548110151561178357fe5b906000526020600020906006020190506001600381905550806003015491505092915050565b6008602052816000526040600020818154811015156117c457fe5b9060005260206000209060050201600091509150508060000160009054906101000a900473ffffffffffffffffffffffffffffffffffffffff169080600101908060020160009054906101000a900473ffffffffffffffffffffffffffffffffffffffff16908060030154908060040154905085565b611842611a6a565b6000600660008573ffffffffffffffffffffffffffffffffffffffff1673ffffffffffffffffffffffffffffffffffffffff1681526020019081526020016000208381548110151561189057fe5b906000526020600020906004020190506001600381905550806000018054600181600116156101000203166002900480601f0160208091040260200160405190810160405280929190818152602001828054600181600116156101000203166002900480156119405780601f1061191557610100808354040283529160200191611940565b820191906000526020600020905b81548152906001019060200180831161192357829003601f168201915b505050505091505092915050565b60045481565b815481835581811511611981576004028160040283600052602060002091820191016119809190611ab0565b5b505050565b828054600181600116156101000203166002900490600052602060002090601f016020900481019282601f106119c757805160ff19168380011785556119f5565b828001600101855582156119f5579182015b828111156119f45782518255916020019190600101906119d9565b5b509050611a029190611b16565b5090565b815481835581811511611a3357600302816003028360005260206000209182019101611a329190611b3b565b5b505050565b815481835581811511611a6557600502816005028360005260206000209182019101611a649190611b99565b5b505050565b602060405190810160405280600081525090565b815481835581811511611aab57600602816006028360005260206000209182019101611aaa9190611c26565b5b505050565b611b1391905b80821115611b0f5760008082016000611acf9190611cbb565b6001820160006101000a81549073ffffffffffffffffffffffffffffffffffffffff02191690556002820160009055600382016000905550600401611ab6565b5090565b90565b611b3891905b80821115611b34576000816000905550600101611b1c565b5090565b90565b611b9691905b80821115611b925760008082016000611b5a9190611cbb565b6001820160006101000a81549073ffffffffffffffffffffffffffffffffffffffff0219169055600282016000905550600301611b41565b5090565b90565b611c2391905b80821115611c1f57600080820160006101000a81549073ffffffffffffffffffffffffffffffffffffffff0219169055600182016000611bdf9190611cbb565b6002820160006101000a81549073ffffffffffffffffffffffffffffffffffffffff02191690556003820160009055600482016000905550600501611b9f565b5090565b90565b611cb891905b80821115611cb457600080820160006101000a81549073ffffffffffffffffffffffffffffffffffffffff0219169055600182016000611c6c9190611cbb565b6002820160006101000a81549073ffffffffffffffffffffffffffffffffffffffff021916905560038201600090556004820160009055600582016000905550600601611c2c565b5090565b90565b50805460018160011615610100020316600290046000825580601f10611ce15750611d00565b601f016020900490600052602060002090810190611cff9190611b16565b5b505600a165627a7a7230582044200c62c6bcf141cdcc95e3e7b33ffa73faf83116a40d338e9a46138159b7ed0029",
  "source": "pragma solidity ^0.4.15;\n\ncontract Renter {\n    Item item;\n    uint public lengthtemp;\n    uint public templength;\n    mapping(address => Item[]) public  requests;\n    mapping(address => Rrequest[]) public  requests2;\n    mapping(address => Transact[]) public transacts;\n    mapping(address => Deposit[]) public deposits;\n\n    struct Deposit {\n        address renter;\n        string name;\n        address owner;\n        uint price;\n        uint rfee;\n    }\n\n    struct Transact {\n        address renter;\n        string name;\n        address owner;\n        uint price;\n        uint rfee;\n        uint ofee;\n    }\n\n    struct Item {\n\t\tstring name;\n\t\taddress owner;\n\t\tuint price;\n\t}\n\n    struct Rrequest {\n        string name;\n        address owner;\n        uint price;\n        uint fee;\n    }\n\n    function Renter() public {\n        templength = 0;\n        lengthtemp = 0;\n    }\n\n    function requesting(address renter, string name, address owner, uint price) public {\n        requests[renter].push(Item(name, owner, price));\n        templength = requests[renter].length;\n    }\n\n    function requesting2(address renter, string name, address owner, uint price, uint fee) public {\n        requests2[renter].push(Rrequest(name, owner, price, fee));\n        //templength = requests2[renter].length;\n    }\n\n    function namerequest(address renter, uint index) public returns (string) {\n        Item retval = requests[renter][index];\n        lengthtemp = 1;\n        return retval.name;\n    }\n\n    function namerequest2(address renter, uint index) public returns (string) {\n        Rrequest retval = requests2[renter][index];\n        lengthtemp = 1;\n        return retval.name;\n    }\n\n    function addressrequest(address renter, uint index) public returns (address) {\n        Item retval = requests[renter][index];\n        lengthtemp = 1;\n        return retval.owner;\n    }\n\n    function addressrequest2(address renter, uint index) public returns (address) {\n        Rrequest retval = requests2[renter][index];\n        lengthtemp = 1;\n        return retval.owner;\n    }\n\n    function pricerequest(address renter, uint index) public returns (uint) {\n        Item retval = requests[renter][index];\n        lengthtemp = 1;\n        return retval.price;\n    }\n\n    function pricerequest2(address renter, uint index) public returns (uint) {\n        Rrequest retval = requests2[renter][index];\n        lengthtemp = 1;\n        return retval.price;\n    }\n\n    function transacting(address renter, string name, address owner, uint price, uint rfee, uint ofee) public {\n        transacts[renter].push(Transact(renter, name, owner, price, rfee, ofee));    \n    }\n\n    function pricetransact(address renter, uint index) public returns (uint) {\n        Transact retval = transacts[renter][index];\n        lengthtemp = 1;\n        return retval.price;\n    }\n\n    function depositing(address renter, string name, address owner, uint price, uint rfee) public {\n        deposits[renter].push(Deposit(renter, name, owner, price, rfee));\n    }\n\n    function rentfee(address renter, uint index) public returns (uint) {\n        Deposit retval = deposits[renter][index];\n        return retval.rfee;\n    }\n}\n",
  "sourcePath": "/Users/kwanhongyap/Desktop/Crypto_final/contracts/Renter.sol",
  "compiler": {
    "name": "solc",
    "version": "0.4.18+commit.9cf6e910.Emscripten.clang"
  },
  "schemaVersion": "1.0.1",
  "updatedAt": "2017-11-28T02:33:44.909Z"
}